:040FF800005007009E
:040FFC0000E007000A
:0200000270008C
:1050000000000120B5520700DD520700DF52070003
:10501000E1520700E3520700E552070000000000DC
:10502000000000000000000000000000AD86070046
:10503000E952070000000000EB520700ED520700A4
:10504000EF520700EF520700EF520700EF52070040
:10505000EF520700EF520700EF520700EF52070030
:10506000EF520700EF520700EF520700EF52070020
:10507000EF520700EF520700EF520700EF52070010
:105080001D870700EF520700EF520700EF5207009D
:10509000EF520700EF52070075860700EF52070036
:1050A000EF520700EF520700EF520700EF520700E0
:1050B000EF520700EF520700000000000000000060
:1050C000EF520700EF520700EF520700EF520700C0
:1050D00035870700EF520700EF520700000000007D
:1050E00000000000000000000000000000000000C0
:1050F00000000000000000000000000000000000B0
:10510000000000000000000000000000000000009F
:10511000000000000000000000000000000000008F
:10512000000000000000000000000000000000007F
:10513000000000000000000000000000000000006F
:10514000000000000000000000000000000000005F
:10515000000000000000000000000000000000004F
:10516000000000000000000000000000000000003F
:10517000000000000000000000000000000000002F
:10518000000000000000000000000000000000001F
:10519000000000000000000000000000000000000F
:1051A00000000000000000000000000000000000FF
:1051B00000000000000000000000000000000000EF
:1051C00000000000000000000000000000000000DF
:1051D00000000000000000000000000000000000CF
:1051E00000000000000000000000000000000000BF
:1051F00000000000000000000000000000000000AF
:1052000010B5054C237833B9044B13B10448AFF300
:1052100000800123237010BD6058002000000000B2
:105220004CA4070008B5034B1BB103490348AFF377
:10523000008008BD00000000645800204CA4070056
:10524000154B002B08BF134B9D46A3F5803A002158
:105250008B460F461348144A121A04F071FE0F4B86
:10526000002B00D098470E4B002B00D09847002011
:10527000002104000D000D48002802D00C48AFF3B7
:10528000008004F01DFE2000290003F0D5FB04F08F
:1052900003FE00BF00000800000001200000000025
:1052A0000000000060580020247E00200000000064
:1052B000000000000649074A074B9B1A03DD043B28
:1052C000C858D050FBDC03F095FAFFF7B9FF000097
:1052D000B0A40700B857002060580020FEE7FEE7A2
:1052E000FEE7FEE7FEE7FEE7FEE7FEE7FEE7FEE796
:1052F00070B5EFF3108672B60D4A94680123A4B915
:1053000093600C4B0C4DD3F8801029401160C3F80A
:105310008050D3F8841051604FF0FF32C3F88420DE
:10532000047006B962B6002070BD0370F9E700BFD3
:105330007C58002000E100E0FC06FFBD044B53E870
:10534000011FC1EA014143E80112002AF7D1704769
:1053500088580020044B53E8021FC1EA214143E86A
:105360000212002AF7D170478858002013B5114B5C
:1053700053E8012F94B2D9890C4499898C4228BFF3
:10538000641A19898C4202BFBFF32F8F002307E0F4
:10539000C4EA020443E801410029E9D14FF00103C6
:1053A0008DF803300192019B03609DF8030002B069
:1053B00010BD00BF8858002010B5064B002253E8EE
:1053C000001F01EA020043E8000494F0000FF6D148
:1053D00010BD00BF985800202DE9F0471F46194B1B
:1053E0004360DDF8208004460D46164600F0A0FA22
:1053F00060B9DFF85490C4F800904DB1A6B163686D
:1054000032465B6829462046984750B1BDE8F08790
:1054100048F21050FAE748F21450F7E748F2025009
:10542000F4E723684B45F9D16368D8F80010DA68CF
:105430009142F0D34246394620469B68BDE8F0478A
:10544000184700BF909F07006E52464890F85520BD
:1054500012F0FB0F08D190F864302BB1836ED3B1FA
:105460000E4A01201362704712F0010303D090F836
:10547000563003B1836D9207F1D590F85C20002A75
:10548000EDD0074A016EC2F5FC22914201D80B44CF
:10549000E5E7042070470F20704700BF7C580020CC
:1054A000005007000139090B30B5020B01EB103138
:1054B00001254FF08040914201D2002030BD02F022
:1054C0001F03540905FA03F3032C05D8DFE804F0A1
:1054D0000206090CC0F800360132ECE7C0F80436C9
:1054E000FAE7C0F81036F7E7C0F81436F4E74BDFF8
:1054F000704761DF704769DF704760DF704711DF19
:10550000704710DF704769B10B78022B0CD102286D
:1055100004D0032814BF08201120704703230B7008
:10552000002070470E2070470820704738B1054BA7
:105530000360054B436001230372002070470E2077
:10554000704700BFE96507000755070010B543F233
:10555000040319491C688C4202462BD042F2040312
:10556000C358581A434243418C42184621D142F253
:105570000403D358A3421CD14FF4405302F5005109
:105580001B780978142B81BF43F214030B481B6866
:10559000B3FBF0F398BF0023142989BF42F2140132
:1055A00000205058054A88BFB0FBF2F0181A18BF07
:1055B000012010BD0023D7E7DBE5B15140420F00C9
:1055C00043681A44426011B101399A4201D1012065
:1055D000704713F8010B01F8010FF6E710B55B688F
:1055E000DA680C4B9A4207D10B4B5A6A0AB99A6A8D
:1055F0001AB1002283F82C2010BDD0E901211144FA
:1056000012F9014B002CA1EB0200F9DBC3E90920E0
:105610000122EFE7A89F07007C58002043F2040313
:105620001A68084B9A4201BF43F20803186800F653
:10563000FF7020F47F600CBF20F00F004FF480500B
:10564000704700BFDBE5B15108B5FFF7E7FF054B39
:105650009B6C184400F6FF7020F47F6020F00F0070
:1056600008BD00BF7C580020F8B5094E094CA41BAA
:105670000746E40800250436A54201D10020F8BD04
:1056800056F83530384698470028F8D10135F3E709
:1056900050A4070058A4070029DF7047024B0620DA
:1056A000D3F8B033184700BF7C58002018DF70478C
:1056B00043690BB1C0681847704713DF704766DF56
:1056C000704762DF7047B5DF7047B1DF7047B0DF0A
:1056D0007047AEDF70477FB50023CDF80B308DF8F3
:1056E0000F300B4BADF80610B3F8C033ADF80830EF
:1056F00001238DF80A300DF10603CDE90430054B86
:1057000002A91888FFF7E5FF07B05DF804FB00BFAA
:105710007C580020B857002010B5044686B0002100
:105720000D2202A8019104F00BFC2378082B0ED166
:10573000384AB2F8C833B2F8CA13013B9BB2A2F898
:10574000C833E9B1E3B90323A2F8C8132370627820
:1057500023788DF805306021012A8DF804108DF82A
:1057600006200FD00B2A13D12A4B002193F8CC230B
:105770008DF8072083F8CC13042101A8FFF7ABFFB5
:1057800006B010BD062B05D0082B29D0032B27D03F
:105790000321F2E7E1688DF80710D4E90123080A34
:1057A0008DF80800080C090E8DF80A10110A8DF802
:1057B0000B208DF80C10110C120E8DF80E201A0A09
:1057C0008DF80F308DF810201A0C1B0E8DF80D106F
:1057D0008DF809008DF811208DF812300F21CCE7DB
:1057E000D4E90123110A8DF807208DF80810110C57
:1057F000120E8DF80A201A0A8DF80B308DF80C2045
:105800001A0C1B0E8DF809108DF80D208DF80E3036
:105810000B21B2E77C580020ADDF7047AADF70474C
:10582000A8DF704790DF70478FDF704786DF7047D3
:105830007FDF70477DDF70477CDF70477ADF70471E
:1058400076DF704775DF704774DF704773DF70472E
:1058500072DF704770B518228CB000210DEB02008A
:1058600004F06EFB2823254C08931623ADF8063070
:105870000023CDE90333059304F2CD3302930223D1
:10588000062284F8CD3384F8D13359230125092623
:1058900084F8CF2384F8D2330322FE230DF10601CE
:1058A00004F2D6308DF818508DF82D50ADF80C60FC
:1058B00084F8CE5384F8D02384F8D333FFF7BAFFAB
:1058C000C8B9BDF8063084F8D5635A1984F8D423D2
:1058D000BDF80C200A4C134402A906AAA01CADF87E
:1058E0000C30FFF7B5FF30B9A078FFF7ADFFA07817
:1058F0002946FFF7ABFF0CB070BD00BF7C580020FD
:10590000B85700206DDF70476CDF7047062810B570
:10591000044602D10020FFF7A7FE044BD3F8EC3376
:105920001BB12046BDE81040184710BD7C58002030
:105930000E490F4A30B500240025C0E91445C0E9DE
:1059400016120C4C0C4A0D4DC0E918420C4AC0E925
:105950001A520C4A026702F17452A2F52302002384
:10596000A2F6924283644267184630BD67E6096A30
:1059700085AE67BB72F36E3C3AF54FA57F520E5170
:105980008C68059BABD9831F10B50B689A684B6870
:105990000024C0E90243C0E9002294882344036143
:1059A000B2F90640234443614B68036101F10C03E3
:1059B0004361937803F0C003802B04BF043101617D
:1059C00010BD2DE9F341002604460F46B04635468A
:1059D000A3682BB3236801220DF1070120469847E5
:1059E000F0B1A3689DF807C0013B0CF07F02C5F140
:1059F0002001A360A5F1200302FA03F322FA01F1CA
:105A00000B43AA401CF0800F46EA020643EA08084E
:105A100005F1070502D1C7E9006802E0462DD7D19C
:105A2000002002B0BDE8F081F7B50F466946164682
:105A3000FFF7C7FFB0B1DDE90013002501F0010455
:105A40004A0842EAC37254EA05014FEA530314BFFD
:105A5000DD431D463B8914BFD4431446082B03D1B4
:105A6000C6E9004503B0F0BD042B08D134602246DE
:105A7000D317AB4206BFA24201200020F2E7022B5F
:105A800003D123B233801AB2F2E7012B03D163B200
:105A900033705AB2ECE70020E4E773B50C46694670
:105AA0001646FFF78EFF68B12389082B0CD1DDE97C
:105AB0000045C6E90045DDE90023AB4206BFA2422E
:105AC0000120002002B070BD042B04D1009B336084
:105AD0001C460025EFE7022B4FF0000004D1009B8D
:105AE00033809CB20546E6E7012BEBD1009B337077
:105AF00003F0FF04F6E737B50D4669461446FFF795
:105B000060FF30B12A89082ADDE9003103D1C4E9F8
:105B1000003103B030BD042A18464FEAE37108D1C2
:105B200023601A460B468B4206BF824201200020AA
:105B3000EFE7022A04D11BB223801AB2D317F2E78F
:105B4000012A03D15BB223705AB2F7E70020E0E7E5
:105B50002DE9F34183680446884623B90026304680
:105B600002B0BDE8F081036801220DF107019847FA
:105B700006460028F2D0A3689DF80750013BA360B9
:105B80009DF90730002B1ADA05F07F050727A36877
:105B9000002BE3D0236801220DF10701204698472E
:105BA0000028DBD0A3689DF80720013BA36002F02A
:105BB0007F03BB401D43130607F1070702D4C8F853
:105BC0000050CCE7232FE2D1C8E773B50D4601A9F9
:105BD0000446FFF7BDFF064618B90026304602B05E
:105BE00070BD94E80F0085E80F0001998A42F4D354
:105BF000A960A3685B1AA360F0E730B5044685B0DE
:105C00001546A9B90268124B9A4211D0102D06D838
:105C10002A4669462046FFF7F0FF05B030BD102246
:105C200069462046FFF7E9FF0028F6D0103DEDE772
:105C3000A368AB4201D20020EFE723682A46204642
:105C400098470028F7D0A268521BA260E5E700BF82
:105C5000C1550700F7B50E4601A907461546FFF7DF
:105C600077FFA8B1019A0123D3184FF0000404D2A2
:105C7000B17801F0C001802901D1204608E03189C6
:105C80009942FAD329463846FFF7B7FF019BEC54F7
:105C900003B0F0BD73B50D4601A906461446FFF7E3
:105CA00057FF98B1019AB2F5803F11D2AB7803F05B
:105CB000C003802B02F102010AD02B898B4207D34B
:105CC0002146304621F8022BFFF797FF02B070BD46
:105CD0000020FBE713B5144669460822FFF78DFF45
:105CE00018B1DDE90023C4E9002302B010BD13B5EB
:105CF000144604220DEB0201FFF77FFF08B1019B60
:105D0000236002B010BD13B5044605291FD8DFE893
:105D100001F0030F151E1E1C012201A92046FFF7EA
:105D20006CFF18B19DF90430002BF5DB02B010BDFB
:105D3000082200212046FFF760FFF7E701A9FFF7DF
:105D400007FF0028F2D0019AF3E70422F1E70020D0
:105D5000ECE710B543681A887AB103F1100242608B
:105D60001A8A62B90168C368C0E901128C882344A9
:105D70000361B1F906100B444361104620E09978A5
:105D80001A8901F03004302C1BD19C7C04F03004C3
:105D9000302C1DD199880269521A0261002299782B
:105DA00011F0300F02BF816801318160998A11447E
:105DB00002690A440261B3F916301A4442610120B3
:105DC00010BD01F0F004202C02D159894A43E6E7C6
:105DD00001F0C001802908BF0422E0E70A4AD2F896
:105DE00000347BB109480023D2F80815D940C9070F
:105DF00048BF03F5C07103F1010348BF42F8210019
:105E0000072BF1D1704700BF000001403546526EAC
:105E1000E4E7024B012283F8F02370477C5800200E
:105E200037B56FF07F42154C057BD4F804358A42B4
:105E300028BF0A46891A13444A1E942A23F07F4336
:105E400005F5A8729BBF963B96314160416044F8CE
:105E500022300B4B4FF4F86043F001039847094B95
:105E6000AA00134400221A601B680193019B4FF49F
:105E70008033AB40C4F8043303B030BD004002406F
:105E800060A0070040410240194991F8F12384B015
:105E9000002A2AD14FF08043A020D3F81834DB0326
:105EA0005EBF144B01221A60134A0023136012686C
:105EB0000392039A114A136012680292029A104ADE
:105EC000136012680192019A0E4A82F8240310208E
:105ED00050600D4A0D48C2F80835012303600220C6
:105EE0001360C2F8040381F8F13304B0704700BFB7
:105EF0007C58002008000040004102404041024020
:105F00004441024000E100E00040024008400240FD
:105F100038B5114BD3F80024CAB1D3F804450F4D5E
:105F200040F616518C42B8BF0C46A4F54864FFF702
:105F300055FFEC61FFF7A8FF2846094B40F8143FD6
:105F40002146FFF76DFF074B4FF480321A60064B76
:105F5000012283F8F22338BD00000140B857002029
:105F6000115E070000E100E07C580020024B012296
:105F700083F8F323704700BF7C58002041DF70474F
:105F8000BFF34F8F0549064BCA6802F4E062134322
:105F9000CB60BFF34F8F00BFFDE700BF00ED00E017
:105FA0000400FA0508B5FFF7EBFF08B5FFF7E8FFB7
:105FB000072810D8DFE800F0040F0F0F10041E04AC
:105FC0004FF0A0430322C3F87C274FF00042C3F8F0
:105FD0000C25C3F8082570474FF0A042D2F80435CD
:105FE000D94301F0004103F00043C2F80815C2F89C
:105FF0000C3570474FF0A0434FF00042E9E7013AFB
:1060000002440139824200D2704711F8013F02F880
:106010000139F7E770B516460D46FFF7F0FF324637
:10602000A9193044BDE87040E9E7F0B5164F174DA7
:10603000174CED1B012291B0ED0884F8F4230026E3
:10604000B5421AD1022384F8F4336846114920225C
:10605000FFF7E0FF0023C4F8F8330F480F4BC4F8F4
:10606000FC3320226946FFF7D5FF0D4BC4F8F83307
:10607000012384F8403411B0F0BD57F8363098470A
:106080000028E2D10136DBE750A4070050A4070046
:106090007C58002068A007007C5C0020A8A00700B6
:1060A0007052464D0F4B30B50124C3F80445BFF381
:1060B0006F8FBFF34F8F01EB8202401A914207D1DD
:1060C0000022C3F80425BFF36F8FBFF34F8F30BD9D
:1060D000441851F8045B2560D3F80044002CFBD031
:1060E000ECE700BF00E001400A4B0222C3F80425A0
:1060F000BFF36F8FBFF34F8FC3F80805D3F80024A9
:10610000002AFBD00022C3F80425BFF36F8FBFF332
:106110004F8F704700E001402DE9F04FC9B008AA49
:1061200001F1400514464B780E781B0443EA0663E0
:10613000CE7833438E78043143EA06238D4244F807
:10614000043BF0D11024916B16464FEAF14383EAE9
:10615000714383EA9123716A366852F8045F3144CF
:106160000B444FEAB54181EAF51181EAD5010134CA
:106170000B44402CD363E6D1D0E914E30093836D44
:106180000193C36D0293036E0393436E0493836E76
:106190000593C36E0693DDE9057BDDE9031CDDE9AC
:1061A00001592B4B009E079374464FF00008079B44
:1061B00053F8042B07934FEAF12383EAB11383EAE0
:1061C000716A08AB53F828301A440AEB020327EA35
:1061D000010A01EA0C028AEA02021A444FEA743AFE
:1061E00086EA05035A448AEAB40A06EA050B234004
:1061F00083EA0B038AEAB45A08F101089A44B8F119
:10620000400F02EB0903BB465244A94619D1724420
:106210000265009A22444265019A32448265029ADC
:106220002A44C265039A1A44049B02660B444366DF
:10623000059B63448366069B3B44C36649B0BDE847
:10624000F08F674635468C46264619461446AEE71B
:10625000B4A00700F8B504460D46EAB900201EE0D8
:1062600004F10800AE180027B542F7D0A36C15F86A
:10627000011BE2180133402B1172A364F4D10146D3
:10628000FFF74AFFD4E9143213F5007342F100021C
:10629000C4E91432A764E7E70029E1D10E20F8BD74
:1062A000436843B1026891680B444360526893426B
:1062B00004BF0023436070477FB50E4D0E4C0F4E58
:1062C00001A8FFF714F978B9B44218BF2046029527
:1062D0000390039B002BF3D00198D3E90021904752
:1062E00002A8FFF7DDFFF4E7052801D0FFF748FE1D
:1062F00004B070BDB4A10700A0A40700A8A40700C3
:1063000030B5134DADF5017D4FF4FA740DF1020176
:1063100003A8ADF80240FFF7ECF888B90D4B0E4A20
:106320000195934208BF03460293029B002BEDD0D8
:1063300003A8D3E90021904701A8FFF7B1FFF4E7D4
:10634000052801D0FFF71CFE0DF5017D30BD00BF13
:10635000C0A1070078A4070080A40700024B93F8AF
:10636000413403B1CCE770477C58002013B50A4B89
:106370000A4A00930A4B934208BF00230446019344
:10638000019B0BB902B010BD2046D3E90021904714
:106390006846FFF785FFF3E7CCA1070090A407004C
:1063A00088A4070013B50C4B0C4A00930C4B934286
:1063B00008BF002304460193019808B902B010BD3C
:1063C000D0E900212046904718B16846FFF768FFE2
:1063D000F2E71120F2E700BFD8A1070088A4070068
:1063E00080A40700044B93F84C040122B0FA80F01B
:1063F00083F85524400970477C580020034B93F8DC
:106400004C04003818BF0120704700BF7C580020A2
:1064100000207047002070470846704708467047C4
:106420000E4B30B543600E4B012003F2444151E85E
:10643000002F42EA000441E8004595F0000FF6D134
:1064400052B993F8581483F8541403F25C41C3E929
:1064500003125A61034A9A61002030BDE4A107008B
:106460007C580020DC011C0070B50668B36886B05B
:1064700004460D4673B114220021684603F060FD06
:10648000A36805932379019533B1012B0ED0B3682E
:106490006846984706B070BD01238DF80030236927
:1064A0000293E368039363690493F0E702238DF892
:1064B0000030E3681B030293F5E728DF7047034BC6
:1064C000D869003818BF0120704700BF7C580020F1
:1064D0002DE9F04115461F4686B0164B80460E4604
:1064E000012253E8004F44EA020143E8001090F013
:1064F000000FF6D1E4B921468D4213D1FEF75CFFBF
:10650000D8F8083053B102228DF800200022CDE9DE
:106510000126CDE90325059768469847204606B031
:10652000BDE8F08106EB0130FFF7DEFD0131E3E766
:106530001124F3E7985800202DE9F0431D4687B059
:10654000144B80460F4616464FF0010953E8004FA2
:1065500044EA090243E8002191F0000FF6D1BCB9EA
:10656000AA0831463846FFF79DFDFEF725FFD8F80B
:1065700008304BB10E9A8DF80090CDE90147CDE976
:106580000365059268469847204607B0BDE8F0834A
:106590001124F9E79858002008B5FEF70DFF0020F8
:1065A00008BD024B43600020704700BFF0A1070008
:1065B00030B53AB11368DB430A4D0144814204D13E
:1065C000D84330BD4FF0FF33F6E710F8012B5340AE
:1065D000082213F0010418BF2C46013A84EA530341
:1065E000F7D1EBE72083B8ED70B504460D4601B353
:1065F0000B78012B06D01ED9033B012B94BF08203A
:10660000112070BD0D4ED6F8643390B1013312D114
:10661000002218210430FFF7CBFF0722206021461B
:1066200006F55970FFF738F80028EAD102232B70DD
:10663000E7E70E20E5E70820E3E700BF00F00700EA
:1066400010B5084B9A685AB150B9EFF3108172B681
:10665000054A1C6814605C685460986001B962B6B1
:10666000002010BD7C58002000E100E013B500239D
:1066700004460DF107008DF80730FEF739FE094A90
:106680000948D2F83836591CC2F83816241AF420B2
:10669000B4FBF0F41C709DF80700FFF7D1FF02B0C7
:1066A00010BD00BF7C580020F06D0020DEE773B500
:1066B0001B4D95F858347BB3012085F84006FFF751
:1066C00071FE11284FF0000628D00220FFF74EFE81
:1066D0000DF107008DF80760FEF70AFEFEF70FFFC9
:1066E00004469DF8070085F85864FFF7A9FF54B9E0
:1066F000AB6885F840464BB12B6823F480032B60D0
:106700000320FFF733FE204602B070BD054B4FF467
:106710008002C3F88020F3E70824F4E73446F2E768
:106720007C58002000E100E038B51549D1F8443626
:10673000024613F0010021D0124882421DD0124AB5
:1067400010884FF6FF74A04213D043F00403C1F841
:1067500044361321FFF774F880B90C4DC82445F076
:1067600001054FF47A40A847013CFAD1BDE8384012
:106770009DE79078FFF768F8F8E7002038BD00BF84
:106780007C58002050A40700B857002000A2070042
:1067900037B5234D95F85844002C3ED101232046AF
:1067A00085F84036FFF7FEFD112833D02046FFF76D
:1067B000DDFD1C4B8DF80340186801900DF10300BE
:1067C000FEF796FD184901A8FEF79BFE0446B0FAB5
:1067D00080F0400985F858049DF80300FFF730FF6A
:1067E000C4B9124985F8404691F816335A09EC238A
:1067F0001341DB0705D5AB682BB94FF480030B6061
:1068000005E0FFF7BDFB2B6843F480032B600120FC
:10681000FFF7ACFD204603B030BD0824FAE700BF07
:106820007C58002006A20700AB5F070000E100E0F3
:1068300038B5831E012B54D82A4C94F84C34002BC5
:106840004FD0022B0AD1032833D00022D4F8483687
:10685000C4F850241A793AB1012A24D094F8553456
:106860009BBBBDE838403FE0D3E905128D1A142DDB
:1068700094BF521914329A619142EFD102284FF01D
:1068800000030CBF19460D21D4F8480684F84C3497
:10689000FFF7EAFDB4F84C26B4F84E369A42DDD143
:1068A000FEF758FDDAE71A6901321A615B699A420C
:1068B000E3E7D4F850340133082B02D8C4F850343D
:1068C000CCE70023C4F85034D8E794F8403643B1FD
:1068D00094F8583413B1BDE83840E8E6BDE83840D4
:1068E00056E738BD7C58002037B53E4C94F84C3400
:1068F000002B33D104F10C0353E8022F1FFAA2F04E
:10690000D988884202BFBFF32F8F00230DE0D989B9
:1069100008449989884228BF401AC2EA004043E8E7
:1069200002010029E8D14FF001038DF803300192F4
:10693000019A9DF80330C4F84C2603F0FF0133B9E7
:10694000C4F848160023C4F8483403B030BDE368E7
:1069500003EB1243C4F84836002BF3D00223D4F8DB
:10696000485684F84C342B79ABB1012B2AD0032143
:106970002846FFF779FD0023B4F84C2684F84C3400
:10698000C4F84834B4F84E369A42DED103B0BDE8BC
:106990003040FEF7DFBCD5E90523D21A142AD5E929
:1069A000031028BF14229208012A38BF012219447B
:1069B0001844FEF771FE58B11128D8D1012384F88C
:1069C0004C34C2E7D5E903031844FFF776FDF2E73C
:1069D00094F85434002BB8D10146022003B0BDE82E
:1069E000304025E77C58002000F0FD03012B09D141
:1069F000054B002283F85524421E5042504183F833
:106A0000540471E7704700BF7C5800200A4930B435
:106A100001F58963012253E8000F40EA020443E8CC
:106A2000004595F0000FF6D120B991F855340BB917
:106A300030BC59E730BC70477C5800200C4B1B78A9
:106A4000062B10D10B4B1B681A070CD10A4B186888
:106A500000F0F003302B08D000F0E000A0F140037C
:106A6000584258417047002070470120704700BFCE
:106A7000E00F00F0E40F00F0E80F00F0094B1B7886
:106A8000062B0CD1084B1B681A0708D1074B186856
:106A900000F0F000A0F13003584258417047002048
:106AA000704700BFE00F00F0E40F00F0E80F00F0C7
:106AB0002DE9F341274C002605460DF107008DF81E
:106AC00007600F46FEF714FC94F85036B4F85216DF
:106AD00094F851068842C2B238BF561CDBB238BFA8
:106AE000F6B2B3422FD094F8516694F85126D3B23F
:106AF000914286BF0133DBB2002384F851369DF802
:106B00000700FFF79DFD4FF6FF739E4220D0D4F89B
:106B100054264FEAC60842F8367002EBC601ADB102
:106B2000D4F85836B4F85C06182206FB0030294623
:106B300003F0F8F9D4F85436434418229A80002020
:106B400002B0BDE8F0814FF6FF76D8E78D80F6E71A
:106B50000420F5E77C58002030B52748B0F5FE2F1B
:106B600089B003D84FF4C041FEF79CFC4FF480512C
:106B70004FF4FC20FEF796FCFEF750FD1F4B996C7E
:106B80000144C1F30B0008B9FEF78CFCEFF305825A
:106B90004FF480531C6841F204031968002383F307
:106BA000148883F3108883F3118883F31388C2F366
:106BB00008023AB984F308884FF0FF339E4608472D
:106BC00009B030BD4FF0FF35203CCDE90033CDE9B1
:106BD0000233CDE90551049320224FF080736946BA
:106BE0002046079303F09EF984F30888AE466FF0C1
:106BF00006031847E4E700BF005007007C58002058
:106C00002DE9F743104C1E4623680546D3F8109033
:106C1000884617460146002301222046C84778B916
:106C20004FF460724146304603F07CF923680097C8
:106C3000DF6832464FF4607329462046B84700B1FA
:106C4000032003B0BDE8F0834C58002070B50388E2
:106C5000232B8AB0044635D80F2B04D8012B00F023
:106C60001A810AB070BD103B132BFAD801A252F85A
:106C700023F000BFF56C0700136D0700636C07007D
:106C8000316E0700AB6F0700636C0700636C070091
:106C9000636C0700636C0700636C0700B96F070043
:106CA000636C0700636C0700636C0700636C07008C
:106CB000656E0700636C0700736E0700636C070066
:106CC000216E0700503B9AB2062ACAD8062BC8D8B4
:106CD00001A252F823F000BF3D6D0700A36E07002C
:106CE000B96F0700636C0700636C0700E56D070070
:106CF000836E0700B44B82881A80B44AD2F86026AB
:106D00001C460AB101209047B1492088FEF79AFD40
:106D1000A7E7AD4BAD4C4FF6FF721A80D4F844266E
:106D2000510704D4FEF796FD08B1FFF729F9D4F80E
:106D30006036002B95D00220984792E7A34EE28858
:106D4000B6F8B8339A428CD1002504A88DF81050BB
:106D5000FEF7CEFAD6F8382606F264639A4212D9C4
:106D6000511EC6F8381612F8012C9A4BF42502FB76
:106D7000053506F2756396F83C265B1ADBB29A423B
:106D800038BF86F83C369DF81000FFF759FC002DFF
:106D90003FF467AF228A04F11201284603F0C2F8DB
:106DA0001822002104A803F0CBF808238DF8103036
:106DB000894B0593894B0693894BCDE90735238A87
:106DC000ADF82430B6F85C36172B03D82846FFF709
:106DD0004DFC46E7834904A8FFF76AFE00283FF40C
:106DE00040AFF3E7E188F62918D8CB1E9A070DD0FB
:106DF000CB1F9BB2013B5A4202F0030203F0030394
:106E000001F1FF3158BF5342C91A89B26E4B18883D
:106E1000FEF759FC00283FF424AF86E7F721F5E799
:106E2000002202A98088CDE90222FEF7FBFCF1E7EF
:106E30000023ADF812300223ADF8103001AB0593FA
:106E4000614B1C8804AA42F605212046FEF7E4FCAB
:106E5000034600287FF469AF024685212046FEF7ED
:106E6000E7FCD7E7584B00F108011888FEF7EAFC69
:106E7000D0E7002369468088ADF80030FEF7D4FCE7
:106E8000C8E7A379002B7FF4ECAE4F4B1321188891
:106E9000FEF7D6FCBEE74C4B00211888FEF70FFC2E
:106EA000B8E7A379002B3FF4DCAE022B7FF4D9AE18
:106EB00046492089B1F8C02390420D467FF4D1AEF7
:106EC000A27B012A7FF4CDAE0022CDE90422ADF8E9
:106ED00008308DF8103001AB012003933A4B8DF848
:106EE0001600208A1E88ADF81800608AADF81A00D6
:106EF00004F114000790ADF80A20B1F8C41302AAF7
:106F00003046FEF789FC60B99DF80430DB0708D4F1
:106F100040F2FD1304A93046ADF81430FEF7D7FB5C
:106F20009FE6002304A93046ADF81430FEF7CFFBEE
:106F3000014600287FF495AE182204A803F000F85B
:106F4000237D254A0592022B244A8DF810300692A3
:106F500022D0062B10D0012B10D1B5F8CA33A5F8DA
:106F6000C833637DD4F816200893012B099205D10C
:106F70001D48FEF779FB01E0637D0893069B002B1B
:106F80003FF46FAEB5F85C36172B7FF66AAE154945
:106F900004A8FFF78DFD64E6A27D637D43EA02232A
:106FA000A5F8CA33A5F8C833E8E700231A461946FE
:106FB0008088FEF73BFC2DE70023A0881A4619467F
:106FC000FEF783FB26E700BFB85700207C5800205F
:106FD0000AA20700F06D0020305C0020195707005E
:106FE000AD660700017F070050A4070008B51046F2
:106FF0001A4602F097FF002008BD08B510461A4651
:1070000002F090FF002008BD2DE9F0411C4C1D4B03
:10701000D4F8F8239A429AB00F462BD1D4F8FC3317
:107020005A79202A29D19B689847D4F8FC8398F88C
:107030000550BD4228BF3D4606462A4604F275610A
:1070400002A8FEF7DCFF98F8052004F295610AA873
:10705000FEF7E0FF00960AAB2A4602A904F580601D
:1070600002F0B2FD002848F2425018BF00201AB0CA
:10707000BDE8F08148F24050F9E748F21150F6E7D8
:107080007C5800207052464DF0B5A3B007460C4620
:1070900015461E4678222023002104A8039302F0FF
:1070A0004FFF00230293214B93F840340BB9FEF7B6
:1070B000BCFF002C33D0002F33D103AB0093289AB0
:1070C0001B4B314604A8FEF787F960BB402D2AD13F
:1070D0002A462146174802F025FF164B102203F1DD
:1070E0001F0118780C7803F8014B013A01F80109E7
:1070F000F7D1114B102203F11F0118780C7803F817
:10710000014B013A01F80109F7D1039902A8FFF7F1
:107110007BFF00280CBF0120052023B0F0BD132009
:10712000FBE71620F9E70A20F7E700BF7C580020AC
:10713000F15E0020115F0020315F002070B54FF438
:107140006072044608480D4602F0DEFE20B954B1D4
:107150002346BDE87040184722462946034B0248A3
:10716000BDE870404CE570BD00E00700545F0020B2
:10717000F0B5ABB004460D4616461F4678222023D4
:1071800000210CA8039302F0DBFE114B93F840346E
:107190000BB9FEF74AFF2FB12146202204A8FEF7C3
:1071A0002EFF04AC03AB009332460A4B29460CA8D1
:1071B000FEF712F948B907482022214602F0A4FE42
:1071C000B0FA80F040092BB0F0BD0020FBE700BF13
:1071D0007C580020D462002013B50446084623786A
:1071E0001146032B03D8DFE803F020050F1700201A
:1071F00002B010BD0022FFF7DBF9D4F80130834262
:1072000014BF00200120F3E70A4600230146601C5A
:1072100002B0BDE81040ABE7009103464022611C7C
:107220000020FFF731FF0128EAE70120E0E730B551
:10723000184BDA6D5D6D9C6FAC2A85B00CD15B6E1E
:1072400015481C44ED1A2A46A4F5804102F05CFE64
:1072500030B9002005B030BD14B9FEF7F5F9044689
:107260000D482A46214602F04FFE0028F1D00B4B74
:10727000D3F800340BB1FEF7B1FD102200216846AF
:1072800002F05EFEAD08684601940295FEF70EFA24
:10729000E0E700BF7C5800200050070000000140DC
:1072A00010B5114C0022582104F13400FFF780F989
:1072B00000222063C32104F52470FFF779F94FF40D
:1072C0006072C4F88C0204F13001084802F01CFE20
:1072D00040B104F6782304F130010448BDE81040C1
:1072E00000228DE410BD00BF7C58002000F0070094
:1072F00038B50546FFF7D4FF044618B902492846B9
:10730000FFF71CFF204638BDAC5800202DE9F04F98
:1073100002F6FF7687B0330B03932B4B049314468E
:1073200093F8F223A1EB000805460F464FEA183BFD
:107330000AB9FEF7EDFDBBF1080F28BF4FF0080BAF
:107340004FEA0B33DFF8849005930CB9224637E0FF
:10735000039B1E489B4528BF9A46D9F8003038BF8A
:10736000DDF814801B6938BFDA461E4652464FF0DE
:107370000003294628BFA046B047024600BBD9F803
:1073800000100090CA6808F10303164623F00303B7
:107390003A4629464846B047024688B9039B049AB4
:1073A000A3EB0A030393049B1B6E43441366FFF78E
:1073B0009FFFA4EB08044544474402460028C4D07C
:1073C000104607B0BDE8F08F7C5800204C580020D4
:1073D00008B5154B42F20402996F885802F1A34296
:1073E00002F5471202F2D752904219D1D3E918029E
:1073F000904217D0B1F5805F03D1BDE8084000206E
:1074000076E7121A02F6FF7222F47F62014422F03C
:107410000F0200F58050FFF779FF0028EDD008BD7E
:107420000320FCE70020FAE77C580020042870B510
:10743000154D044614D8022815D9144E327C4FF449
:1074400080339340124AC2F80833FEF71DFD3046E0
:10745000104B40F8043F4FF47011FEF7E1FC02E0DE
:10746000831F012B06D9D5F8F83D5BB12046BDE856
:107470007040184700230849084885F8F333FFF7A0
:107480005DFEF0E770BD00BF7C580020B8570020BB
:1074900000400240A174070000F00700A55F07004C
:1074A000034B04490448002283F8F32346E600BF57
:1074B0007C58002000F00700A55F07002DE9F0418F
:1074C000A2B004460D461646002178221F4604A8A5
:1074D000202303939DF8A08002F032FD4122002179
:1074E000204602F02DFDB5F894300BB195F896804A
:1074F00084F80080B8F1030F1CD8DFE808F0090217
:10750000111D002239463046FFF752F8C4F8010039
:107510003A4631462046FFF75FFE22B0BDE8F081D3
:1075200003AB00933A46631C314604A8FDF754FFB1
:107530000028EDD00020F0E7B5F8982005F19A0179
:10754000601C02F0EFFCE3E710B5084C4FF400724A
:10755000FF2104F18C0002F0F3FC2022002104F151
:10756000680002F0EDFC0023236610BD7C5800206B
:1075700008B50C22002102F0E3FC024B00221A663F
:1075800008BD00BF7C5800202DE9F04F7A4D7B4CA0
:10759000ADB080460026641B1423B4FBF3F4A6426E
:1075A00032D1774C1822002104A802F0C9FCD4F88B
:1075B0002090D4F8802004234A458DF8103040F004
:1075C000CE80D4F8FC5DD4F8006E039201232946E6
:1075D00006F17200FFF7CCFD002800F0BE8096F89F
:1075E0005570002F4DD1039A4FF0010A1346CDF884
:1075F00000A02A4631461BA8FFF760FFD0B9052638
:107600006048FFF7B5FF28E02B6813B90136143541
:10761000C5E7DB69284698470028F7D0584BB3F8F0
:107620005C36172B03D958494046FFF741FA2DB075
:10763000BDE8F08F41221BA904F2D12002F072FCB8
:10764000C4F85CA027657368A363002249462846F6
:10765000FEF7AEFFC4E915900126FFF775FF0A2E6D
:1076600088BF0B3EA56784BF84F8CC630B2604A8B3
:10767000D8E901138DF8116098474448FFF738FEA8
:10768000D5E7412200210AA802F05AFC07F0010ABE
:10769000412200211BA807F0020702F051FCBAF1B9
:1076A000000F64D042F20403EA5803F1A34303F548
:1076B000471303F2D7539A42A1D1D6F858B00BF52D
:1076C000FF520BF6FF73C3F30B031F32D21A42F2C1
:1076D0000803EB58934292D32846FDF737FF08B1D1
:1076E000002F8CD0012300932A465B4631460AA81E
:1076F000FFF7E4FE002882D0E7B92846FDF726FF11
:1077000010B12348FFF734FF224841220AA902F0B2
:1077100009FC002F14BFAC23A523E365B36D63669A
:10772000002F92D01C4841221BA902F0FBFB73687A
:10773000E3638AE7B36DEA18A9EB03030021009124
:107740001BA83146FFF7BAFE00283FF458AFBAF144
:10775000000FD2D1AA23E365E2E7172650E7012301
:107760008DF8113004A8D8E9011398475FE7002F7E
:10777000F0D04B462A46E1E74C58002060580020E4
:107780007C580020D0580020897507009D560700BE
:10779000C45800200C5B00208E5B0020F8B51368F5
:1077A0001F2B04460D46164664D9002965D0836C0C
:1077B000C11800F10807372B4FF0800003F10102D8
:1077C000087247D80933234404F1400200219A4249
:1077D0003DD1D4E91423A06C0821E1FB002310461D
:1077E00012BA62641A0A194684F8433084F84220B7
:1077F0001A0C1B0EC4E9140184F84030394684F891
:1078000041203846FEF788FC691E1823A26DDA4035
:1078100001F8012FE26DDA400A71226EDA400A7235
:10782000626EDA400A73A26EDA400A74E26EDA40DF
:107830000A75226FDA400A76626FDA40083B13F16C
:10784000080F0A77E2D1202333600020F8BD03F847
:10785000011BBCE7E31D00213F2A08D93946384601
:10786000FEF75AFC3822002102F06AFBB1E7013230
:107870009954F1E748F21450E8E70E20E6E730B5F6
:107880004268927802F00F01082987B003460FD1B1
:1078900003691C6800250CB907B030BD214625736B
:1078A0006846FEF771F86846FFF7E9FFA468F2E75B
:1078B00012F0C00120D102F0300010280ED15A6918
:1078C00011705A6818699378D46803F00F03072B76
:1078D00009D10146204600F017F8DDE79006F0D503
:1078E0005B691980D8E71289214614B102F01AFBAE
:1078F000D2E702F025FBCFE78029CDD10069002136
:1079000092060160C8D5EBE77FB50023CDE90231CF
:1079100083881944B0F9063004911944038805910D
:10792000CDE900003BB16846FFF7A9FF6846FEF7C6
:1079300010FA0028F7D107B05DF804FB2DE9F043F9
:107940005768BB7813F0C00489B006468C461546CC
:1079500003D0402C6CD000240EE0614903F00F02EC
:1079600001EB820103F03003202BD1F8848226D072
:1079700006D8CBB1102B1CD0204609B0BDE8F0834F
:10798000302BF9D16B6939881980072A0AD16B68C5
:1079900028691A89214602F0D3FA6B682969D868E8
:1079A000FFF7B2FF2A6940E02A693946C04704461A
:1079B000E2E76B6901221A702A696968F6E7BCF18F
:1079C000020FD5F8149024D1042A22D804A9FEF776
:1079D000FCF804460028BED0069B2BB16968B9F8B4
:1079E00000304A899A4205D8059B7360069B002B9C
:1079F000C2D0B0E708892A6903FB002204A8C04767
:107A000028B1B9F800300133A9F80030E4E70446A2
:107A1000EAE7B9F800307A899A429CD92A6939890B
:107A2000581CA9F8000003FB012269683046BDE735
:107A3000D2F81080474657F8043B13B9FEF763F9B4
:107A4000B5E7022914D104A9FEF7BFF8002882D0B7
:107A5000D8F8003069683A4604A8984704460028D8
:107A60003FF479AF069B002BF2D1059B736083E74F
:107A7000012925D005292BD000297FF46CAF0C46B5
:107A80000DF1040901340B2C3FF465AF0122494686
:107A90003046FEF7B2F800283FF45DAF19F9013B1C
:107AA000002BEFDB0F4B049301ABCDE90534002332
:107AB0000793D8F8003069683A4604A8984776E7F3
:107AC000082201A9FEF799F808240028EAD142E724
:107AD00004220DEB0201FEF790F80424F5E700BF45
:107AE000909F0700C15507002DE9F04F8B888FB09C
:107AF0000025CDE904521A44B1F906300692CDE9C9
:107B00000055CDE902111A44044607924FF00108CE
:107B1000A3682BBBDDE9033402A89D78FEF719F9B1
:107B20000028F7D115F0300F03D1039B1B8803B158
:107B30000134002C65D06309002293425BD10EAA68
:107B400002EB830304F01F044FF0FF30C4F1200464
:107B500020FA04F453F8380C231A5842584108E02C
:107B600008A92046FDF7F4FF30B9A368002BD1D057
:107B700000200FB0BDE8F08F089EDDF80CA0002EAD
:107B8000C8D0F70806F00706039B1A88974204D16D
:107B90009B7803F00F02082A58D102A8FEF7D9F803
:107BA000DDF80C90CA45EFD1BD420DD8039A937809
:107BB00003F00F03082B29D002A8FEF7CAF8039B95
:107BC0009945F3D14FF0FF3531462046FEF79BF83B
:107BD00000289DD1CCE79B681B889F4233D1494642
:107BE00008A8FDF7D1FE89F80C8008AA3146204686
:107BF000FFF7A4FE25E05DF822100131B8D1013273
:107C00009BE70120B5E79A45DED081E71588BD42A4
:107C1000DAD8069BD4F808A0D3F80090A368B9F18D
:107C2000000FF0D09A457FF473AFD9F80030D3F845
:107C300000B0BBF1000FCED033463A46494620464D
:107C4000D847002894D0D9F80890E7E713F0300F10
:107C50000FD1049B3F2B0CD85A090EA901EB8202CD
:107C600003F01F0352F8381C08FA03F30B4342F8E1
:107C7000383CD4F80C90B9F1000F04D002AB324676
:107C800039462046C84702AA31462046FFF756FE2D
:107C90009EE7F8B52E4C2F4DA36E2F4FAF6204F127
:107CA0008C020021C5E90B2304F604602B4B6B63A7
:107CB0004FF44772C4E9091184F82C1002F040F91E
:107CC000274804F60461FFF71FFE254904F6046205
:107CD00005F12800FFF708FF10B900263046F8BD6F
:107CE00094F82C60002EF8D094F8703F94F8041E9D
:107CF00013B30029F1D194F8763F002BEDD0D4E9ED
:107D0000092304F67870C5E90A724FF4B272C5E926
:107D10000C3102F015F9134804F67871FFF7F4FD01
:107D2000104904F6787205F12800FFF7DDFE0028FF
:107D3000D3D004F6787307E00029CED094F80A3E39
:107D4000002BCAD004F60C63C4F8003EC6E700BF9F
:107D50007C58002074690020C1550700DD550700DC
:107D600038A20700A89F07002DE9F3415F49D1E938
:107D70001A329A420D4640F0B4805D4F97F8383081
:107D800053B1FDF761FCC1F8FC0DD1F8000E02B053
:107D9000BDE8F041FDF75ABBFFF77BFF002800F07C
:107DA000A28095F8702F002A39D041F2DC0305F546
:107DB0008751E85C41F2DE0305F67476EA5AAB6A55
:107DC00000936B6AFFF760F9012804463ED196F8EC
:107DD0005830002B7DD096F85920032A79D896F890
:107DE0007230032B73D1337B002B72D03369342B69
:107DF00071D143F20401B38A08683E49884256D1E2
:107E00005BB1B169002948D0DBB2002106F1180C42
:107E100043F20C0EC8B2834206D8122416E0114673
:107E2000104605F60866CAE75CF82180BEF8000037
:107E3000804501F10101EDD13379002B42D0012AB7
:107E4000B3683AD8AA6B9A4288BF10240023012C49
:107E5000C5F8FC3D2B6241D1D5F8000EFDF7F6FACE
:107E6000012804463AD1FDF7EFFB23492E6A081A90
:107E7000864207D9FDF7D2FB081A86422DD81F4843
:107E8000FFF776FBFDF7E0FB0123C5F8FC0D87F853
:107E90003830204602B0BDE8F08112B9012BBCD8C1
:107EA000CAE7531E18BF0123002BC5D1B5E713B194
:107EB000B369002BB1D13379F6E7EA6B9A4228BF58
:107EC0001024C3E7012A14BF0F240124BEE71424A1
:107ED000BCE70F24BAE71124B8E70424FFF734FB0A
:107EE000D7E70824D5E70524D3E700BF7C58002056
:107EF00074690020DBE5B15100400700C458002040
:107F00002DE9F04304468BB01822002104A802F0AA
:107F100017F825788DF8105001238DF811306B1E5D
:107F20000B2B00F25681DFE813F01F0011001F0039
:107F30001F0054011F0054011F005401540154013B
:107F40000C00A54B0720D3F8B0339847D4E90113B0
:107F500004A898479DF81130012B00F02D819E4B0D
:107F60000520D3F8B03326E1062D9C4A01D0012D1F
:107F700002D1216982F8241092F82460012E05D0E4
:107F8000022E7AD0002382F82430C2E0072BDDD8FD
:107F900001A252F823F000BFB97F07004D7F070010
:107FA0006F800700378007004D7F0700698007005A
:107FB0004D7F0700E97F0700874F0320D7F8B033D4
:107FC0009847666966B1B6F5007F0BD8844B0022EE
:107FD00083F83820FFF7B8FABE668DF81150B5E780
:107FE0000325FAE70425F8E77B4DA78AE86EAB6E18
:107FF0003A189A421DD8D4F8108028443A4641468F
:108000008C3001F08FFFEB6E05F170023B44394676
:108010004046EB66FEF7CCFA2867EB6E05932B6FB4
:108020000693E3688DF81160002B8FD02069984784
:108030008CE70326F1E7FFF797FE0A2807D9664B7E
:108040000B3883F8CC030B238DF811307EE7012821
:108050008DF811007FF47AAF0020FFF749F900286E
:108060003FF474AF0A23EFE74FF4007307935A4BC2
:10807000DA6E1B6F0592069368E7072B3FF666AF33
:1080800001A252F823F000BFA98007004D7F07002E
:1080900085810700918107004D7F0700BF810700A0
:1080A0004D7F0700178107004D4B93F838300BB90F
:1080B0000823C9E762690AB90323C5E7C2F30B03C2
:1080C00033B14549D1F88430096A13448B42F3D166
:1080D000B2F5805F01D90423B6E73F4BD3F8841093
:1080E000186A55188542E3D85A67DA6FC3F88010CA
:1080F00019669A673B486269D3F8FC6D036802F61B
:10810000FF721D69120B00233144A84700283FF479
:108110001DAF052398E7324B93F83830002BC7D0BA
:108120002D4DA38AD5E92021521A696F1A448A423B
:10813000C2D8D5F8FC2D2F6ED4F8108003931946C1
:108140001744404605F17802FEF732FA0646254804
:10815000E16802680091D2F80C90039B42463946D0
:10816000C84708B1E36861E7A28A2B6E06961344FC
:108170002B66A38AD5F88020AE671344C5F88030FB
:108180000593E3E6144B9A6F0692D3F88030F7E735
:10819000114DD5E92023696FD31A8B4288D1AB6F7B
:1081A000EB67002120466967C5F88420FFF7ECF9EA
:1081B000D5F8B033042098470BB0BDE8F083064BE8
:1081C0009A6FD3F8803005934FF48053069207934B
:1081D000BCE6022338E700BF7C580020B8570020D7
:1081E000746900204C58002070B586B0CE680192AA
:1081F0000D4602A90446FDF7E8FC90B1E86880B19D
:10820000AB78019A03F03003202B04D1114630469D
:10821000FFF77AFB019A314602A8FFF765FC039B42
:10822000636006B070BD2DE9F347824601A80D4694
:1082300016461F46FDF79AF810B3124BBDF804809E
:10824000D3F80C9019EB08041AD01C220021204608
:1082500001F076FE0123237149F808A0BDF804203F
:10826000BDF80630A7602D0B9A42E560666101D12A
:10827000FDF764F8FEF7CAFB002002B0BDE8F08706
:108280000420FAE77C5800202DE9F347824601A834
:108290000F4616461D46FDF769F818B3124BBDF898
:1082A0000480D3F80C9019EB08041BD01C22002189
:1082B000204601F045FE0023237149F808A00A9BDF
:1082C000BDF80420A360BDF8063065619A42C4E998
:1082D000036701D1FDF732F8FEF798FB002002B0EA
:1082E000BDE8F0870420FAE77C58002013B5134C52
:1082F0001422002104F2444001F022FE04F10C0398
:1083000053E8021FD888B1EB314F4FF0000217BF7E
:1083100089B240EA004041EA004004E05968B1EB0C
:10832000314F08BF012243E802010029E8D18DF84E
:1083300007209DF80730002002B010BD7C580020B7
:108340002DE9F043BC4DD5F84436DA0795B000F17D
:10835000708105F26463C5F83836C5F860061123EC
:10836000013BDBB2FF2B40F058810023CDE90E33F7
:1083700085F83C36089310930DA802230D93FDF762
:1083800095F90446002840F04481AC48FDF795F982
:108390000446002840F03D81FEF7FAF90446002823
:1083A00040F03781A64B089301460C220DA801F03E
:1083B000C7FD01260623089AADF838300DA9202004
:1083C0008DF834608DF83660FDF795F821460C2263
:1083D0000DA801F0B5FD089AADF836400DA9402072
:1083E0008DF83560FDF787F821460C220DA801F0C5
:1083F000A7FDF723089AADF836300DA923208DF894
:108400003460FDF778F821460C220DA801F098FDA4
:10841000089A8DF834600DA93046FDF76CF82146B6
:108420000C220DA801F08CFD4FF4B063089A0D9357
:108430000DA9A120FDF75FF821460C220DA801F03F
:108440007FFD9DF83430089A64F300030DA9A02045
:108450008DF83430FDF74FF808A8FDF74EF80446C4
:10846000002840F0D68002461821764885F84164FD
:10847000FEF79EF87449D1F8643398420BD17348E3
:108480001C2201F5597101F04DFDD5F8443643F039
:108490000203C5F8443611230DA88DF82030FDF7EE
:1084A00031FA0446002840F0B4809DF835300DA81C
:1084B00001338DF83530FDF727FA0446002840F0E7
:1084C000A880D5F844369B0740F1AE806049486DDE
:1084D000403182B208A8FDF7AFF90446002840F009
:1084E00098805C48FDF7AAF90446002840F0918086
:1084F000594B4FF6FF721A8001204FF65963574AC5
:108500008DF80A0002A9ADF80830FDF789F9044694
:1085100000287ED1524B04AA03F1100716461868B2
:108520005968144603C40833BB422246F7D14D496B
:108530003046FDF7C6F8044600286AD101461C22E1
:108540000DA801F0FDFC9DF83430B5F8B403ADF88A
:10855000044043F004038DF834300223ADF80C30AE
:1085600095F8B6338DF80E3004F0F80343F00303AA
:108570008DF80630F423CDE90A4401AEADF82C3075
:108580004FF01109384B0C9403AF08AA0DA9CDE99F
:1085900008768DF80590FDF741F9A0460446C0BB6A
:1085A00001461C220DA801F0CBFC9DF83430B5F833
:1085B000B403ADF8044023F0180343F018038DF81A
:1085C00034300123ADF80C3095F8B6338DF80E3009
:1085D00008F0E8081723CDE90A4448F01308ADF87D
:1085E0002C3008AA214B0C940DA9CDE908768DF802
:1085F00005908DF80680FDF711F9044648B9FDF79E
:1086000029F9044628B9D5F8443643F00103C5F8E2
:108610004436204615B0BDE8F083D5F83826511C05
:10862000C5F8381613709BE6114801F091FC10490B
:108630004FE70024EDE700BF7C5800200050070002
:10864000B857002068F3070000F00700B069002069
:10865000746900200AA20700B8570020305C00208F
:1086600068A20700325C0020345C00203C5C0020E3
:108670007C9F070007B50A4B0A4A00930A4B9342B6
:1086800008BF00230193019B13B903B05DF804FBFD
:10869000D3E9002090476846FDF702FEF3E700BFEC
:1086A00078A20700A0A4070090A407001EF0040F02
:1086B0000CBFEFF30880EFF3098000F001B800BFB2
:1086C00070B5144B144A0C21D21AB2FBF1F2816935
:1086D00011F8025C044635B900690021914205D1C8
:1086E000012323600EE04FF0FF30F6E71E68AE4234
:1086F0000CD1461C07D19D68D4E90001D4E90223BE
:10870000A847206070BD5E688642F4D001310C330A
:10871000E4E700BF58A4070064A40700044B00224C
:1087200082B01A601B680193019B02B0704700BFC2
:108730000001014013B5294B1A6842B128498A6DDE
:1087400001328A6500221A601B680093009B254B4A
:108750001A68A2B100221A6023481B68027C0193A8
:10876000019B4FF480339340204AC2F8083381685C
:10877000044611BBC168E1B9636803B198471C4B5B
:108780001A684AB300221A6017481B6890F8202024
:108790000193019B4FF480339340144AC2F808338D
:1087A0008169044669B1143002B0BDE81040FDF79C
:1087B00037BB0430FDF734FBDEE70430FDF730FB58
:1087C000DDE7C16911B11430FDF72AFB63691BB104
:1087D00002B0BDE81040184702B010BD044102408D
:1087E0007469002040410240B85700200040024018
:1087F0004441024008B5FEF721F928B1784B794A87
:108800001B68C3F304231360FEF738F910B1764BED
:10881000764A1A60FEF712F928B1754B754A1B6843
:10882000C3F342331360FEF729F920B1724AD368CB
:1088300023F08073D360FEF701F940B14FF080431D
:108840000022C3F80C21C3F81021C3F83825FEF725
:1088500015F910B1694B03221A60FEF70FF940B108
:10886000674B05221A6001229A6700229A603F2214
:108870005A60644B1B78062B50D1634B1B68190759
:108880004CD1624B1B6803F0F003502B46D14FF0E4
:1088900080525F4BD2F80414C3F82015D2F80814A4
:1088A000C3F82415D2F80C14C3F82815D2F8101404
:1088B000C3F82C15D2F81414C3F83015D2F81814D4
:1088C000C3F83415D2F81C14C3F84015D2F820149C
:1088D000C3F84415D2F82414C3F84815D2F8281464
:1088E000C3F84C15D2F82C14C3F85015D2F8301434
:1088F000C3F85415D2F83414C3F86015D2F83814FC
:10890000C3F86415D2F83C14C3F86815D2F84014C3
:10891000C3F86C15D2F84424C3F87025FEF78EF81E
:1089200028B13C4B3C4A1B6803F04F031360FEF731
:1089300085F848B14FF08043D3F80024D20744BFF4
:108940006FF00102C3F80024344B1B68062B08D1DA
:10895000334B1B68062B01BF324A136843F4806314
:108960001360314AD2F8883043F47003C2F888307B
:10897000BFF34F8FBFF36F8F4FF01023D3F8002258
:10898000002A03DBD3F80432002B24DA274B012220
:10899000C3F80425D3F80024002AFBD04FF010229E
:1089A0001521C2F80012D3F80024002AFBD04FF0A2
:1089B00010231522C3F804221C4B1A46D3F80014C6
:1089C0000029FBD00021C3F80415D2F80034002B95
:1089D000FBD0FDF7D5FA164B164A9A6208BD00BFC8
:1089E000240300104035014074C007400DF0ADBABB
:1089F000440200103C050040F0ED00E0A0050040FE
:108A000010560040E00F00F0E40F00F0E80F00F017
:108A100000C0004058020010E40E00403001001079
:108A2000340100103C17004000ED00E000E0014080
:108A3000B85700200090D0032DE9F8434FF480513F
:108A40000020FCF72FFD08B1FDF79AFAC048B0F5F9
:108A5000FE2FF9D84FF4C041FCF724FD0146002851
:108A6000F2D1BC4FBC4CBD4BC4F8F83D3846BC4BB2
:108A70003B60FDF796FD02460028E5D1B948056840
:108A8000691C54D058210430FDF792FD2A1A554232
:108A90005541DFF8F482D8F80060731C00F02082A2
:108AA0000022582108F10400FDF782FD864240D1E2
:108AB000D8F80460012E0AD00022C32108F51870EE
:108AC000FDF776FDD8F85C32181A4642464195B358
:108AD000A449A5484FF4607201F024FA56B1A349A5
:108AE000A348542201F01EFAA249A3484FF432725F
:108AF00001F018FA656B012D2BD1A049402201F538
:108B0000E47001F00FFA9E491C2201F5E47001F0B7
:108B100009FA9C4984F8D1520023042201F28620EC
:108B200084F8903284F8123301F0FCF90FE0154616
:108B3000AFE70026CBE726B193498B484FF460722C
:108B4000D6E789484FF46072002101F0F9F9022359
:108B500063630020FEF7CCFB064600287FF474AF69
:108B6000E36DAA2B00F0CC8000F29280012B00F084
:108B70009880A52B00F0C0804FF08043D3F80054BC
:108B800015F4803500F0BF804FF48032C3F8002424
:108B90000025236D012B00F0C9804FF4701594F867
:108BA000F2330BB9FDF7B4F9784BC4F8543603F53A
:108BB0008473C4F85836002384F8513684F850364C
:108BC0001823A4F85C362023A4F85236704B1A6898
:108BD00002F0F802B02A06D11A68D20742BF1A681A
:108BE00002F04E021A60D4F88830012B07D100231E
:108BF000C4F88830FEF754FB00287FF425AFDFF877
:108C0000C881DFF8AC9198F810204FF4803393407E
:108C1000604AC2F80833FDF737F940465E4B40F82A
:108C2000043F2946FDF7FCF85C4BC4F8EC33002008
:108C3000FCF76CFE5A4D5B4BED1AED089846B542B9
:108C400040F00681584B43483B600021FDF7E8FBAC
:108C500000287FF4F9AEA36E544D002B40F0018143
:108C600085F83830524BC4F8B033524D002384F8A5
:108C7000CC33D5F800340BB1FDF7B0F894F850269A
:108C800094F851369A4240F0F980FDF777F9F0E711
:108C9000AC2B7FF471AFFEF79BFB78BBFEF7C7FAF6
:108CA0002CE0A16F656DFCF7B9FC814240F00E81AC
:108CB000FCF7B4FC00222946FDF77AFCA36D98422C
:108CC00002BF0123C4E91303A56400253A48FEF757
:108CD0004FFC0023394884F8F033FEF709FB0028E5
:108CE0007FF4B2AE002D00F0AB80236D012B40F07D
:108CF000A7804FF4A02552E7FEF76AFB0125E5E7C0
:108D0000FEF795FAE1E7D3F8202502F0F802A82A49
:108D10000AD1D3F82025D10706D5D3F8202502F0B3
:108D20005602C3F8202534E7012532E743F2040355
:108D30001A68234B9A4249D0FCF770FCA26C01469A
:108D4000002D51D01F48FEF747FA002850D124E7E4
:108D5000005007004C5800207C580020B15F0700ED
:108D600084A2070000F00700AC58002004E00700D0
:108D7000B05800205CE0070008590020085A002085
:108D8000485A0020C858002000E00700D0690020A1
:108D90001C05004000400240A17407002D7407002C
:108DA00058A4070050A40700A4A20700746900207B
:108DB0000D59070000000140D0580020135E070045
:108DC000DBE5B1514D5B0020B8570020626E1DB944
:108DD00094F89032012BAFD044484FF48051FEF705
:108DE000FBF90028A8D1D8E694F8D132012BA9D1FB
:108DF0003F4B1B6813F0B10F7FF4CFAED4F888302F
:108E0000012B3FF4CAAED4F85433D4F89423134062
:108E1000013350D100233749374884F8F333FEF744
:108E20008DF9364B4FF0FF32C3F88020C3F8802114
:108E30004FF000534FF480521A60FDF78DFE03E6A9
:108E400000232C492E4884F8F333FEF777F9FBE52D
:108E500058F836304846984700287FF4F5AD01367B
:108E6000EDE6FEF716FF85F8380000283FF4FAAE6D
:108E7000FEF77AFF01283FF4F5AEE5E594F85036A9
:108E8000D4F85426B4F85C66D4F8580602EBC30153
:108E900003FB060052F833208988904794F8502647
:108EA000B4F85216D3B2914286BF0133DBB200232D
:108EB00084F85036E2E64FF4FE20FDF715F911492B
:108EC000C9224FF4FE20FDF7EDF8A3E7236EEA1A5E
:108ED00019441844FEF71AFA00287FF4F6AEE7E6C4
:108EE000002D3FF42EAE0026F2E500BF0C5B002003
:108EF0001C05004000F007006D5F070000E100E086
:108F0000A55F0700AC5800208B1802448B4200D1AB
:108F1000704713F8010D02F8010DF7E7000000009B
:108F2000C3F10803DB0070B50133002403A500BFC3
:108F30005B1920C940CAAD1920C0184720C940CAD2
:108F4000754120C020C940CA754120C020C940CA0F
:108F5000754120C020C940CA754120C020C940CAFF
:108F6000754120C020C940CA754120C020C940CAEF
:108F7000754120C06441204670BD00BF0000000064
:108F8000C3F10803DB0070B50133002403A500BF63
:108F90005B1920C940CAAD1B20C0184720C940CA70
:108FA000B54120C020C940CAB54120C020C940CA2F
:108FB000B54120C020C940CAB54120C020C940CA1F
:108FC000B54120C020C940CAB54120C020C940CA0F
:108FD000B54120C06441B4FA84F0400970BD00BFBF
:108FE0002DE9F04F08B4F8CA04B451F8042BA3FBE0
:108FF000028940F8048B4FF0000AE4FB629A4FF0BC
:10900000000BE5FB62AB4FF0000CE6FB62BC4FF0DF
:10901000000EE7FB62CE51F8042B4FF00008E3FB93
:10902000628940F8048BE4FB629AE5FB62ABE6FBE5
:1090300062BCE7FB62CE51F8042B4FF00008E3FB63
:10904000628940F8048BE4FB629AE5FB62ABE6FBC5
:1090500062BCE7FB62CE51F8042B4FF00008E3FB43
:10906000628940F8048BE4FB629AE5FB62ABE6FBA5
:1090700062BCE7FB62CE51F8042B4FF00008E3FB23
:10908000628940F8048BE4FB629AE5FB62ABE6FB85
:1090900062BCE7FB62CE40F8049B40F804AB40F8AA
:1090A00004BB40F804CB40F804EB0CBC052B00F0EB
:1090B0001E810C68A0F11400A1F11401A2F11402A8
:1090C00052F804EB4FF0000550F8046BE4FB6E56C9
:1090D00052F804EB50F8047BE4FB6E6752F804EBA3
:1090E00050F8048BE4FB6E7852F804EB50F8049BC4
:1090F000E4FB6E8952F804EB50F804ABE4FB6E9A83
:10910000A0F1140052F8044B51F804EB4FF0000C9E
:10911000E4FB6EC540F804CB51F804EBE4FB6E565B
:1091200040F8045B51F804EBE4FB6E6740F8046B15
:1091300051F804EBE4FB6E7840F8047B51F804EB43
:10914000E4FB6E8940F8048B51F804EBE4FB6E9A63
:10915000A0E80006062B00F0CA800C68A0F11800F9
:10916000A1F11801A2F1180252F804EB4FF000052A
:1091700050F8046BE4FB6E5652F804EB50F8047B95
:10918000E4FB6E6752F804EB50F8048BE4FB6E7856
:1091900052F804EB50F8049BE4FB6E8952F804EBA0
:1091A00050F804ABE4FB6E9A52F804EB50F804BBA1
:1091B000E4FB6EABA0F1180052F8044B51F804EB3D
:1091C0004FF0000CE4FB6EC540F804CB51F804EB03
:1091D000E4FB6E5640F8045B51F804EBE4FB6E6769
:1091E00040F8046B51F804EBE4FB6E7840F8047B24
:1091F00051F804EBE4FB6E8940F8048B51F804EB62
:10920000E4FB6E9A40F8049B51F804EBE4FB6EAB70
:10921000A0E8000C072B6AD008B40C68A0F11C0071
:10922000A1F11C01A2F11C0252F804EB4FF0000561
:1092300050F8046BE4FB6E5652F804EB50F8047BD4
:10924000E4FB6E6752F804EB50F8048BE4FB6E7895
:1092500052F804EB50F8049BE4FB6E8952F804EBDF
:1092600050F804ABE4FB6E9A52F804EB50F804BBE0
:10927000E4FB6EAB52F804EB50F804CBE4FB6EBC9D
:10928000A0F11C0052F8044B51F804EB4FF000031E
:10929000E4FB6E3540F8043B51F804EBE4FB6E56FA
:1092A00040F8045B51F804EBE4FB6E6740F8046B94
:1092B00051F804EBE4FB6E7840F8047B51F804EBC2
:1092C000E4FB6E8940F8048B51F804EBE4FB6E9AE2
:1092D00040F8049B51F804EBE4FB6EAB40F804ABA0
:1092E00051F804EBE4FB6EBCA0E8001808BCBDE834
:1092F000F08F002310B51C465AB2914200DC10BD1D
:1093000040F823400133F7E710B500231A465CB25A
:10931000A14203DCB2FA82F0400910BD50F82340AC
:1093200001332243F3E74A11012350F8220001F0F0
:109330001F0103FA01F108407047013949B20A06DA
:10934000CBB205D4013900EB81025268002AF6D075
:1093500001335BB273B103F18042013A50F822202D
:10936000002022B9013B00EB431318B270475208AA
:109370000130F6E71846704710B500235CB2A242F0
:1093800000DC10BD51F8234040F823400133F5E7DD
:1093900010B5013A52B2130601D5002010BD50F8A5
:1093A000224051F822309C4205D802F1FF32F2D21D
:1093B0004FF0FF30F2E70120F0E700EB81010023DE
:1093C000884200D3704751F8042D43EA52030B60E2
:1093D000D307F5E770B59DF910401E4623460546B4
:1093E000FFF79EFD30B9224629463046FFF7D0FFF1
:1093F000012807D02346324629462846BDE870405A
:10940000FFF7BEBD70BD70B59DF910401E462346E6
:109410000546FFF7B5FD38B12346324629462846B2
:10942000BDE87040FFF77CBD70BD2DE9F04FB5B0D1
:1094300004AD9DF9F8401F46814623462846FFF7B4
:10944000CFFD24AB21463846CDE90235FFF775FF45
:10945000C0EB841005B26B4203F01F034FF02006EF
:1094600095FBF6F676B205F01F0814A858BFC3F1B5
:1094700000083146FFF73DFFB8F1000F30B22DDD97
:1094800014AB002203EB8000C8F1200C1346A3426A
:1094900019D327B27B00019314AB03EB870704F1C8
:1094A000FF3834AB012603EB8808002D53DA34ABC8
:1094B00003EB8606224656F8C81C4846FFF75CFFB9
:1094C00035B0BDE8F08F57F8236006FA08F10A437B
:1094D00040F8232026FA0CF20133D8E714AB2246D9
:1094E000394603EB8000FFF747FFD2E70FFA82FE11
:1094F0005AF8C83C53F82EB034AB03EB820252F852
:10950000803CABEB03031B1A9B4502D034BF012008
:1095100000205CF8C82C42F82E300131019B4AB281
:109520009A42E3DB331A5E42214614A85E41FFF7FC
:1095300044FF34AB03EB8403214653F8802C58F8E6
:10954000803C384643EAC273013D48F8803C2DB266
:10955000FFF733FFA9E734AB0021C6F1010C084641
:1095600003EB860A03EB8C0CD8E730B51C4691B0B0
:10957000054693F900306846FFF732FDD4F8AC3069
:1095800069462846984711B030BD13460A46FFF792
:10959000ECBF2DE9F04793F9006092B0044689468C
:1095A0001046314615469846FFF7AEFE002840F0BB
:1095B00091804246494602A8FFF7E7FF434602AAC8
:1095C00021460AA8FFF7D1FF02A908464246FFF745
:1095D000DCFF43462A4649464846FFF7C6FF08F1E6
:1095E0000407424629462846FFF7CFFF3B462A4656
:1095F000214620460096FFF7EDFE3B462A462946C7
:1096000028460096FFF7E6FE3B462A4621462846B6
:109610000096FFF7F8FE43462A4621462046FFF70C
:10962000A4FF3B462246214628460096FFF7D2FE7D
:109630003B4600962A4621462046FFF7CBFE23688C
:10964000DB074AD533463A4621462046FFF768FCF9
:10965000314682462046FFF7B0FE06F18043013BCB
:1096600054F8230040EACA7044F8230042462146D9
:109670002846FFF78AFF3B460AAA29462846009655
:10968000FFF7C1FE3B460AAA294628460096FFF787
:10969000BAFE0AA908463B462A460096FFF7B3FEE3
:1096A00043460AAA21462046FFF75FFF02AA3B462F
:1096B000104621460096FFF7A6FE32462946204670
:1096C000FFF75AFE49462846FFF756FE02A94846CC
:1096D000FFF752FE12B0BDE8F08731462046FFF793
:1096E0006CFEC3E72DE9F0438BB00446154689466E
:1096F0000AAE1C22002103A800F022FC032346F836
:10970000203D95F900802A46494620462F1DFFF747
:109710003CFF3B46324621462046CDF80080FFF70D
:1097200072FE2B464A4621462046FFF71EFFCDF823
:1097300000803B4605F1840221462046FFF74AFEA1
:109740000BB0BDE8F0830000F0B5082289B00C46EC
:109750000646FFF711FECB6A03930B6B04934B6B2A
:1097600005938B6B0693CB6B0793002708236A4600
:1097700069466846CDE901770097FFF7D1FB0823DA
:1097800005466A4631463046FFF7CAFB236B039312
:10979000636B0493A36B0593E36B0544CDE9063734
:1097A0006A46082369466846FFF7BAFB0823054462
:1097B0006A4631463046FFF7B3FB236A0093636A7B
:1097C0000193A36A0293A36B0693E36B079305448B
:1097D00008236A4631463046CDE904770397FFF700
:1097E0009FFB636A0093A36AA26B0193E36A0293EF
:1097F0000492636BE26B0393CDE90523236A07931D
:10980000054408236A4631463046FFF789FBE36A80
:109810000093236B0193636B0293236A0693A36AFD
:109820000793054408236A4631463046CDE904775C
:109830000397FFF7A5FB236B0093636B0193A36B67
:109840000293E36B0393636A0693E36A07932D1A0B
:1098500008236A4631463046CDE90477FFF790FB8E
:10986000636B0093A36B0193E36B0293236A0393EF
:10987000636A0493A36ACDE90537236B07932D1A16
:1098800008236A4631463046FFF77AFBA36B009304
:10989000E36BCDE90137636A0393A36A0493E36A38
:1098A000CDE90537636B07932D1A08236A463146C5
:1098B0003046FFF765FB2D1A0D4C0FD435B9082241
:1098C00031462046FFF764FD01280FD008232246C9
:1098D00031463046FFF754FB2D1AEFE708232246A6
:1098E00031463046FFF71CFB2D18F7D409B0F0BD08
:1098F0009CA30700F0B5154689B01C4607460E46E6
:109900001A4629466846FFF740FE23466A4639460E
:109910003846FFF72AFE23462A4669466846FFF77F
:1099200024FE23466A4631463046FFF71EFE09B044
:10993000F0BD2DE9F0438BB01446129D15F9046B70
:1099400000961F46804689462B460246214602A8BD
:10995000FFF759FD02A9129A0846FFF716FE129B5F
:1099600002AA41464046FFF700FE129B02AA21468A
:109970002046FFF7FAFD2B464A4639463846009600
:10998000FFF741FD129A394602A8FFF7FEFD02A932
:109990002B46424608460096FFF735FD02A92B46A6
:1099A000224608460096FFF72EFD2B4642462146EA
:1099B00020460096FFF727FD129B2246494648465F
:1099C000FFF7D3FD2B4602AA414620460096FFF73B
:1099D0001AFD129B224639463846FFF7C6FD2B4634
:1099E0004A46394638460096FFF70DFD324602A931
:1099F0002046FFF7C1FC0BB0BDE8F0832DE9F0472E
:109A0000B3F9024088461E4604F11F0120230734A3
:109A100091FBF3F708234FFA87F994FBF3F4944290
:109A200028BF144649460546FFF763FC22464146D7
:109A3000FFF76AFAB6F90230E4009C421FD9E41A33
:109A400005EB87010022C4F120078D420ED3243696
:109A50004A4629463046FFF79BFC01280FD04B466B
:109A600032462846BDE8F047FFF78ABA51F8040DA0
:109A700020FA04F313430B6000FA07F2E5E7BDE8B0
:109A8000F08770B5036813F001050646144605D04B
:109A900013460A460146FFF743FA0546214630467B
:109AA000FFF78BFC45B104F18042013A56F82230B1
:109AB00043F0004346F8223070BDF0B50F46A1B028
:109AC00006461946384615461C46FFF71DFC20B1D0
:109AD0003046FFF70EFC21B0F0BD224639466846FD
:109AE000FFF74AFC294608A8FFF746FC10A82146C4
:109AF000FFF7FFFB012318A81093FFF7FAFB22469C
:109B000008A96846FFF744FC28B9224610A9304648
:109B1000FFF732FCDFE7009BDA0709D421466846ED
:109B2000FFF74BFC2246294610A8FFF7AAFFE6E7FD
:109B3000089BDB0707D4214608A8FFF73EFC224616
:109B4000294618A8F1E7002823461CDD08AA694623
:109B50006846FFF715FA21466846FFF72EFC2246B5
:109B600018A910A8FFF714FC002805DA10A923464D
:109B70002A460846FFF7D4F910A9234618AA084632
:109B8000FFF7FEF9CEE708A96A460846FFF7F8F99D
:109B9000214608A8FFF711FC224610A918A8FFF7D4
:109BA000F7FB002805DA18A923462A460846FFF7DE
:109BB000B7F918A9234610AA0846FFF7E1F9BEE74E
:109BC0000048704798A307002DE9F04FEDB01F46FD
:109BD000DDF8D8810590B8F9026098F9004020239B
:109BE0001F3696FBF3F676B206F1FF3924AB00255B
:109BF00043F829506CAB03EB89034CA88A46934683
:109C0000394698F9012043F8805C43F8605CFFF71F
:109C10007BF998F9012054A8B918FFF775F9214686
:109C20004CA8FFF771FB0746002840F02E8154A88E
:109C3000FFF76AFB0290002840F0298108F1240315
:109C400032464CA918460393FFF7A2FB012840F0C7
:109C50002081324654A90398FFF79AFB0128069009
:109C600040F017811CAD0CAF3346039A54A9284627
:109C7000FFF723FF029B47F829305A4651463846E2
:109C80004346FFF7BBFE39463846039B00962A46FB
:109C9000FFF7CBFB0DF5B879039B00962A464CA93C
:109CA00014A8FFF7C2FB224648460599FFF764FB5C
:109CB000A30009EB030A0793059BA100591808F1BB
:109CC000440B5046FFF758FB594634A8FFF754FBA6
:109CD000A3000BEB03013CA8FFF74EFB08F10403C4
:109CE000494634AA284600940493FFF78CFB534658
:109CF0004A463CA934A8CDF80080FFF71AFE234657
:109D0000049A29462846FFF7D8FE2A465146484677
:109D10004346FFF7EFFD029BCDE9083B059B31462B
:109D20003846CDE90A39FFF708FB3146814614A8C9
:109D3000FFF703FB8145B8BF81461FFA89F909F196
:109D4000FF3B0FFA8BFB59463846FFF7ECFA5946B2
:109D5000071C14A818BF0127FFF7E5FA002814BF55
:109D6000022300231F430DF1200A22465AF82770D0
:109D700024A83946FFF700FB0DF1B00BA300F9183A
:109D80005846FFF7F9FA21462846FFF7B2FAA9F13B
:109D90000209069B2B600FFA89F90DF1900AB9F1BF
:109DA000000F23DA2346049A29462846FFF785FE4A
:109DB00043462A4659465046FFF79CFD32465146D7
:109DC0000398FFF7E5FA012804D03346039A50467A
:109DD000FFF7D6F8013C64B24CAA23064BD5029B90
:109DE000B3FA83F040096DB0BDE8F08F43462A46D0
:109DF000D8F8A47059465046B84749460CA8FFF712
:109E000092FA4946071C14A818BF0127FFF78BFADE
:109E1000002814BF022300231F4308AB53F8277008
:109E200027B32246394634A8FFF7A6FA079B3CA879
:109E3000F918FFF7A1FA43462A463CA934A8FFF7D0
:109E400059FD049B009434AA514644A8FFF7DBFA5D
:109E50005B4652463CA934A8CDF80080FFF769FD67
:109E6000434644AA29462846FFF77FFB09F1FF39FC
:109E70000FFA89F993E752F824105AF824304B402E
:109E8000029919430291013CA7E72846ABE73846FF
:109E9000A9E70298A7E7000008B5074B044613B1ED
:109EA0000021AFF30080054B1868836A03B198471F
:109EB000204600F055F800BF0000000048A407004D
:109EC00070B50D4D0D4C641BA4100026A64209D19F
:109ED0000B4D0C4C00F046F8641BA4100026A64263
:109EE00005D170BD55F8043B98470136EEE755F8AB
:109EF000043B98470136F2E74458002044580020BC
:109F0000445800204858002030B501390024A242AE
:109F100001D1002005E0035D01340D5DAB42F6D0B8
:109F2000581B30BD0A44914200F1FF3300D1704705
:109F300010B511F8014B03F8014F9142F9D110BD52
:109F400002440346934200D1704703F8011BF9E72E
:109F5000034613F8012B002AFBD1181A0138704769
:109F6000FEE700BFF8B500BFF8BC08BC9E467047CE
:109F7000F8B500BFF8BC08BC9E46704744667554EF
:109F80006172670000000000000000000000000097
:109F900031590700556207009D7707002000000037
:109FA0007800000000000000010011000400FCFF28
:109FB0000400000000000000020011000400FCFF8B
:109FC0000400000000000000030021000400FCFF6A
:109FD0000400100000000000040011000100FFFF59
:109FE0000100000000000000050011000200FEFF5B
:109FF0000400000000000000060011000400FCFF47
:10A000000400000000000000070011000400FCFF35
:10A010000400000000000000080017000200FEFF1E
:10A0200024000000F8A20700090010000100FFFF53
:10A0300001000000F4A207000A0027000200FEFF52
:10A0400044000300C4A2070000000000000000005C
:10A050000000000000000000000000000000000000
:10A060000338FDD87047000014604426C98BD34FD5
:10A07000813BC35ADF352F4CC42F1B3640987D904F
:10A08000C74CE8A5329DE72D44AA29F7B212C70AAA
:10A090009423084DBAEF283654334B3284690D525D
:10A0A0003B9E6983B6C9E12B480028000020400090
:10A0B000C19B0700982F8A4291443771CFFBC0B5EE
:10A0C000A5DBB5E95BC25639F111F159A4823F9283
:10A0D000D55E1CAB98AA07D8015B8312BE853124DC
:10A0E000C37D0C55745DBE72FEB1DE80A706DC9B9D
:10A0F00074F19BC1C1699BE48647BEEFC69DC10F49
:10A10000CCA10C246F2CE92DAA84744ADCA9B05C84
:10A11000DA88F97652513E986DC631A8C82703B047
:10A12000C77F59BFF30BE0C64791A7D55163CA0655
:10A1300067292914850AB72738211B2EFC6D2C4D61
:10A14000130D385354730A65BB0A6A762EC9C2814F
:10A15000852C7292A1E8BFA24B661AA8708B4BC2E5
:10A16000A3516CC719E892D1240699D685350EF40F
:10A1700070A06A1016C1A419086C371E4C774827C6
:10A18000B5BCB034B30C1C394AAAD84E4FCA9C5B3C
:10A19000F36F2E68EE828F746F63A5781478C8848D
:10A1A0000802C78CFAFFBE90EB6C50A4F7A3F9BE6F
:10A1B000F27871C6A0A40700A8A407000800000058
:10A1C00078A4070080A407000800000088A4070006
:10A1D00090A407000800000080A4070088A40700DE
:10A1E0000800000000100000040000000100000052
:10A1F000001000000400000001000000000000004A
:10A200000338FDD87047010000070C000C00000067
:10A2100058020000F75A07009B5A0700295A070006
:10A22000EF5C0700D55C0700955C0700555C0700F4
:10A23000E981070000000000010017000400FCFF96
:10A240006801000068A30700020017000400FCFF7B
:10A25000AC01000028A3070000000000000000007F
:10A26000000000000000000050EADA308883B89F48
:10A27000604F15F30000C98E90A40700A0A407004A
:10A2800008000000A365070099650700ED6F07004F
:10A2900039650700D16407001964070011640700DD
:10A2A000BF64070021640700ED820700FB6F070011
:10A2B00089820700278207001D64070015640700D4
:10A2C000FD63070001000100000000000100000024
:10A2D0000000000002000500010000004200000034
:10A2E000000000000000000000000000000000006E
:10A2F000000000000000000001000100000000005C
:10A300000100000000000000020005000100000044
:10A31000220000000000000000000000000000001B
:10A320000000000000000000010007000000000025
:10A330006801000068A3070002000100000000009F
:10A340000100000000000000030005000100000003
:10A3500042000000000000000000000000000000BB
:10A360000000000000000000010011000100FFFFDC
:10A370000100000000000000020017000200FEFFC4
:10A3800064010000A89F070000000000000000001A
:10A39000000000000000000008200001FFFFFFFF98
:10A3A000FFFFFFFFFFFFFFFF0000000000000000B5
:10A3B0000000000001000000FFFFFFFF512563FCCB
:10A3C000C2CAB9F3849E17A7ADFAE6BCFFFFFFFF30
:10A3D000FFFFFFFF00000000FFFFFFFF96C298D8BD
:10A3E0004539A1F4A033EB2D817D0377F240A463BE
:10A3F000E5E6BCF847422CE1F2D1176BF551BF37C7
:10A400006840B6CBCE5E316B5733CE2B169E0F7C99
:10A410004AEBE78E9B7F1AFEE242E34F4B60D22766
:10A420003E3CCE3BF6B053CCB0061D65BC8698765C
:10A4300055BDEBB3E7933AAAD835C65A93950700B2
:10A44000E596070049970700E45700200000000048
:08A450004183070029670700A2
:0CA4580000000000030000002D5507006C
:10A46400B45E0020E05E0020F15E0020F06D00206C
:04A47400F4000000F0
:08A478004D6C0700000000001C
:08A48000E56307000000000085
:08A48800E96907000000000073
:10A490005D63070000000000B962070000000000D3
:08A4A000316807000000000014
:08A4A80098ADFF7F01000000E8
:10A4B000FFFFFF000000000000000000000000009F
:10A4C000000000000000000000000000000000008C
:10A4D00001000000010000000090D0030000000017
:10A4E000000000000000000000000000000000006C
:10A4F000000000000000000000000000000000005C
:10A50000000000000000000000000000000000004B
:10A51000000000000000000000000000000000003B
:10A52000000000000000000000000000000000002B
:10A53000000000000000000000000000255207009D
:04A5400001520700BD
:10A544000000000000000000B156070000100000E9
:04A5540000000800FB
:04000003700052B582
:00000001FF
