:0200000270008C
:10500000807F0020F9990700219A0700239A070062
:10501000259A0700279A0700299A07000000000038
:105020000000000000000000000000002B9A0700B4
:105030002D9A0700000000002F9A0700319A070000
:10504000339A0700339A0700339A0700339A070010
:10505000339A0700339A0700339A0700339A070000
:10506000339A0700339A0700339A0700339A0700F0
:10507000339A0700715B0700339A0700339A0700E1
:10508000339A070079600700339A0700339A0700C4
:105090000D5D0700339A0700C57A0700339A0700B1
:1050A000339A0700339A0700339A0700339A0700B0
:1050B000339A0700339A0700000000000000000048
:1050C000339A0700339A0700339A0700339A070090
:1050D000339A0700339A0700339A07000000000054
:1050E00000000000000000000000000000000000C0
:1050F00000000000000000000000000000000000B0
:10510000000000000000000000000000000000009F
:10511000000000000000000000000000000000008F
:10512000000000000000000000000000000000007F
:10513000000000000000000000000000000000006F
:10514000000000000000000000000000000000005F
:10515000000000000000000000000000000000004F
:10516000000000000000000000000000000000003F
:10517000000000000000000000000000000000002F
:10518000000000000000000000000000000000001F
:10519000000000000000000000000000000000000F
:1051A00000000000000000000000000000000000FF
:1051B00000000000000000000000000000000000EF
:1051C00000000000000000000000000000000000DF
:1051D00000000000000000000000000000000000CF
:1051E00000000000000000000000000000000000BF
:1051F00000000000000000000000000000000000AF
:1052000010B5054C237833B9044B13B10448AFF300
:1052100000800123237010BD202E0020000000001C
:1052200074D70700084B10B51BB108490848AFF305
:1052300000800848036803B910BD074B002BFBD062
:10524000BDE81040184700BF00000000242E0020D9
:1052500074D70700042E002000000000154B002B1F
:1052600008BF134B9D46A3F5803A00218B460F469D
:105270001348144A121A00F065F80F4B002B00D0A7
:1052800098470E4B002B00D09847002000210400C7
:105290000D000D48002802D00C48AFF3008000F04C
:1052A0002BF82000290003F06FFC00F011F800BF7C
:1052B00000000800807F00200000000000000000C7
:1052C000202E0020D03D0020000000000000000043
:1052D00008B5074B044613B10021AFF30080054B1E
:1052E0001868836A03B19847204600F033F800BF7E
:1052F00000000000B0B6070070B50E4B0E4CE41A6B
:10530000A41000251E46A54204D056F82530984723
:105310000135F8E706F0C0F9084C094BE41AA4106F
:1053200000251E46A54204D056F825309847013581
:10533000F8E770BDFC2D0020FC2D0020002E002081
:10534000FC2D002002440346934202D003F8011BC7
:10535000FAE77047FEE700BF024A1368013B13609B
:10536000704700BF40300020084B5A6E013A5A6621
:1053700022B907490A7822F002020A701B6E034A1A
:105380000133042B08BF0023136670472C3500201F
:10539000BE35002028DF704729DF704730B504464E
:1053A00085B00D46102200216846FFF7CBFF237A17
:1053B000012B0CD0022B12D10123A2898DF80030D1
:1053C000E389ADF80A20D31AADF8083007E00023CE
:1053D0008DF8003023690293A38AADF80C3063681E
:1053E0000193236829469B686846984705B030BDFD
:1053F00038B51B4B5A6E1C4682B3196E182202FB3D
:1054000001331A7A012A05D0022A22D19889FFF79E
:10541000C1FF13E01825D88A9A8A05FB0144121AA5
:10542000E1682469B2F5806F4FEA80000144B4BF9F
:1054300092B24FF480622044FFF7AEFF112807D1EB
:10544000084A137823F0020343F00403137038BDB5
:1054500020B118460921BDE838409FE738BD00BF9C
:105460002C350020BE35002038B5294A1378014676
:1054700098073FD5274B1C6E1820022900FB0430EB
:105480001A4602D0032927D03FE0234B0021197090
:10549000037A012B02D0022B13D036E0C58A818A11
:1054A0004B1BB3F5806FB4BF9BB24FF480632B44AA
:1054B00018259BB205FB04229942D38225D10021F5
:1054C00013E08389028A01338381C38901339BB24C
:1054D0009A42C38119D108E00F4A13780133DBB235
:1054E000032B11D9002313700821FFF757FFFFF793
:1054F0003BFF0AE0590708D50649496E03F0FB0354
:10550000137011B143F002031370BDE838406FE728
:10551000BE3500202C3500203C2E0020082910B577
:1055200002D0002003F026FB03684068BDE810406D
:1055300018472DE9F04F374F85B00A23029088466F
:1055400001934FF0000BB946029B03EB0B0AFB6A79
:10555000012B17D005D3022B4CD17E6A4346002481
:1055600021E0BA6A7B6A9A429CBF396A5218013AB2
:10557000D31A98453ED842465146274801F0D8FBF9
:10558000444638E0BC6A7B6A23489C429CBF3A6A26
:10559000A418013CE41A444528BF4446224651461B
:1055A00001F0C6FB27E0D9F82850D9F81C00039376
:1055B000B5429CBF396A6D18013DAA1BD9F820502D
:1055C000AD1B9D4228BF1D46954228BF15462A4661
:1055D0005146304405F0A3FBD9F82020039B2E440C
:1055E000964208BF00265B1B2C44AA44C9F82460DD
:1055F000D9D100E00024A344C4EB08081CB9019BE6
:10560000013B019302D0B8F1000F9DD1012005B0FC
:10561000BDE8F08F343700204C3700202DE9F04FE3
:10562000C5B01C464F9F519B9046FE18002940F084
:105630008280002C7CD12546404605F0B5FBC2286F
:1056400028BFC22004AB814602464146181905F026
:1056500066FB09EB040000244FF0200904AB291875
:1056600001F1310B18449B444319984202D000F8D1
:10567000019BFAE703F1330003F103080BF1010288
:105680000090A64208D808F8039C08F8029C08F885
:10569000019C02F8019C32E0A7428ABF4E985098C4
:1056A00010F804A008F8019C98BFC7EB040E039300
:1056B00098BF10F80EA002924FEA2A1E5FFA8EF0F1
:1056C000BEF1090FD4BF3030373008F8030C0AF0B0
:1056D0000F00092894BF3030373008F8020C0191D0
:1056E00005F0F2FA5044029A4078039B019910F0B9
:1056F000970F08BF4FF02E0A02F801AC0134009852
:1057000008F10308404502F10102BAD10D228BF8DD
:1057100010200A228BF81120433183F8309004A81E
:10572000FFF707FFB8B1B4424FF0000096D312E084
:105730000D46084690E75CB90B68094A4FF4807142
:1057400004A805F0F7FA002805DB04460A2573E7EC
:105750000A25002080E7204645B0BDE8F08F00BF55
:10576000F0B80700F0B5C7B016461D464C9F00299B
:1057700000F08B800B684F4A4FF4807106A805F04B
:10578000D9FA002801DA002092E00446062F71D8E9
:10579000DFE807F005141E2A38485A000024304676
:1057A00005F002FB0319FF2B054660D806AB024645
:1057B0003146181905F0B3FA59E0002406A82B6801
:1057C0003246C4F58071204405F0B4FA4EE000245E
:1057D0006B68009306A82B683246C4F5807120449C
:1057E00005F0A8FA42E00024AB6801936B680093CF
:1057F00006A82B683246C4F58071204405F09AFA59
:1058000034E00024EB680293AB6801936B6800936B
:1058100006A82B683246C4F58071204405F08AFA48
:1058200024E000242B690393EB680293AB68019397
:105830006B68009306A82B683246C4F5807120443B
:1058400005F078FA12E000246B6904932B69039346
:10585000EB680293AB6801936B68009306A82B6812
:105860003246C4F58071204405F064FA0546002DE7
:1058700001DA88E700252919B1F5807F83D800E097
:10588000002106A8FFF755FE12E0062FF8D801A365
:1058900053F827F09D570700BB570700CF57070065
:1058A000E757070003580700235807004758070029
:1058B00047B0F0BDF0B8070008B503F022F928B1F1
:1058C0006B4B6C4A1B68C3F30423136003F038F975
:1058D00010B1694B694A1A6003F013F928B1684B9B
:1058E000684A1B68C3F34233136003F029F920B1FF
:1058F000654AD36823F08073D36003F002F940B1A6
:105900004FF080430022C3F80C21C3F81021C3F8E4
:10591000382503F015F910B15C4B03221A6003F02F
:105920000FF940B15A4B05221A6001229A670022F2
:105930009A603F225A60574B1B78062B09D1564B71
:105940001B681B0705D1554B1B6803F0F003502B58
:1059500046D003F0D6F828B1514B524A1B6803F0E9
:105960004F031360504AD2F8883043F47003C2F8F2
:105970008830BFF34F8FBFF36F8F4FF01023D3F8F2
:105980000022002A03DBD3F80432002B24DA474B31
:105990000122C3F80425D3F80024002AFBD04FF0DD
:1059A00010221521C2F80012D3F80024002AFBD0DF
:1059B0004FF0102315223D49C3F80422D1F80024EA
:1059C0003A4B002AFAD00022C3F80425D3F8002469
:1059D000002AFBD003F058F8354B364A1A6008BD50
:1059E0004FF08052344BD2F80414C3F82015D2F88B
:1059F0000814C3F82415D2F80C14C3F82815D2F8EB
:105A00001014C3F82C15D2F81414C3F83015D2F8BA
:105A10001814C3F83415D2F81C14C3F84015D2F882
:105A20002014C3F84415D2F82414C3F84815D2F84A
:105A30002814C3F84C15D2F82C14C3F85015D2F81A
:105A40003014C3F85415D2F83414C3F86015D2F8E2
:105A50003814C3F86415D2F83C14C3F86815D2F8AA
:105A60004014C3F86C15D2F84424C3F8702570E7CD
:105A7000240300104035014074C007400DF0ADBA5A
:105A8000440200103C050040F0ED00E0A00500409D
:105A900010560040E00F00F0E40F00F0E80F00F0B7
:105AA00058020010E40E004000ED00E000E001406C
:105AB0008C2C00200090D00300C0004038B50C4C66
:105AC000616E0429054610D0226E8B18032B88BF07
:105AD000043B18220131616602FB03440021204689
:105AE000FFF730FC2C60012038BD002038BD00BF1E
:105AF0002C350020044A137813F0060F03D143F02D
:105B00000203137074E47047BE35002030B512B143
:105B10001368DB4301E04FF0FF33094D014481423C
:105B20000CD010F8012B5340082213F0010418BFC9
:105B30002C46013A84EA5303F7D1F0E7D84330BD4D
:105B40002083B8ED10B5084B9A685AB150B9EFF3FD
:105B5000108272B605491C680C605C684C609860E5
:105B600002B962B6002010BD483B002000E100E011
:105B700073B502A8002300F8063D03F0B7FD2A4BD9
:105B80001B7803F0FF05002B47D1284B1A68002A29
:105B900043D0274AD2F80813C9073ED51D601B68B9
:105BA000244C019302A8019BD2F8086500F8055D1A
:105BB00003F09CFD6168A368A2681F2B98BF5D1C61
:105BC000A3681F2B94BF01330023A942A36006D111
:105BD000184B5B681F2B94BF013300236360A3182D
:105BE00062681E74A3689DF803009A4288BF21333F
:105BF0009B1AE2689A423CBF0E4AD360FFF7A2FFAD
:105C00006268A3681F2B94BF013300239A4201BF2F
:105C1000074A0123C2F8083353609DF80200FFF7DA
:105C200091FF02B070BD00BF2C37002000D10040B2
:105C300000D000403C2E0020094A5378917801336F
:105C4000DBB2994208BF0023117899421FBF03704D
:105C50005378182000FB032014BF04300020704745
:105C6000543B002073B5154EB378054613B308B303
:105C70004369FBB10024047402A800F8014D03F04D
:105C800035FD0DF10600FFF7D7FF30B10223037099
:105C90009DF806304560737000E004249DF807000D
:105CA000FFF750FF24B9064B4FF48012C3F80021D0
:105CB000204600E0082002B070BD00BF543B002029
:105CC00000E100E038B50D4B0D4C4FF40032C3F845
:105CD000802001254FF48033C4F84833C4F80833DA
:105CE000656003F029FD074BA56000241C6003F0EC
:105CF00023FD054B83F8314038BD00BF00E100E0D3
:105D000000100140E03900203C2E00202DE9F74F23
:105D1000A14AA24913780978A14E994233D00133A0
:105D2000DBB2022B08BF0023137012789D4B9E49F3
:105D3000DFF86CE20C6803EB82030846596B6318CA
:105D4000002523F07F430360AC4628463368BBB18F
:105D50001A688A4202D9521A1A6011E0DF68C3F841
:105D600000C0891A1044DA69CEF80020002FEDD067
:105D7000221822F07F42DD615A609F601D46E5E7F0
:105D80004FF0010A01E00025AA463368DFF81C82C3
:105D900000934FF0000B55B12C46ED6934E0D6F876
:105DA00000904F464846002F6BD10023237498F88B
:105DB000003098F80100984271D0581C98F80240C1
:105DC0007A4AC0B2844288F800004FF0180000FB05
:105DD000032008BF88F8005003798468022BDED0C6
:105DE000032B4AD0012BE2D1277C002FDFD1C368DF
:105DF00063600369A3604369E3608369A361694BDE
:105E000093F83C3003B16760674863680068684A8C
:105E10001F1A27F07F479742A26802D817442760CD
:105E200007E0C01A20F07F43934234BFD31A002307
:105E30002360012020743068594A00236360A36006
:105E4000E36130B1276803689F4204D8DF1B076015
:105E5000E06114609FE703461A68974205D9BF1AAC
:105E6000DA6918462AB11346F6E7D21B1A601A46B9
:105E700003462760E261DC618DE700203368044659
:105E800004E0BC4268D03846FF698CE71BB11C7443
:105E90000120DB69FAE7002889D0336087E7414DAC
:105EA000BBF1000F06D13368009A9A4202D1BAF1D1
:105EB000000F4BD03368002B46D0D3F800A03D4EE6
:105EC000394BD6F804851C6895F83130C4EB0807C7
:105ED00027F07F470337A3B94FF48032C6F8442335
:105EE000C6F80423344A4FF400314FF00109C2F8D8
:105EF00080111160C6F8009003F01EFC294B83F856
:105F00003190BA452CBF04EB0A03E31923F07F4418
:105F1000C6F84045D6F80435264AC8EB030323F0FB
:105F20007F43C8EB0404033324F07F44A3420DD91C
:105F3000D2F80435C2F8403503F0FEFB1E4B4FF497
:105F40000032C3F8002101E0FFF7BCFE002385F812
:105F50003C3003B0BDE8F08F84420FD1D9F81C303B
:105F600033605BB91349019001228A600E490B60CE
:105F70000C4B83F83C2003F0DFFB01983B68FF6982
:105F8000C76117B13A6813443B603368994518BF3D
:105F90004FF0010B09E700BFDC390020DD3900209C
:105FA000D83900203C2E0020E0390020543B00204E
:105FB000FEFF7F000010014000E100E02DE9F74303
:105FC000064602A8002400F8014D0D46174603F0CE
:105FD0008DFB234B234A18781178CBB222490988CC
:105FE0008B4238BF0133C0B238BFDCB2A04209D007
:105FF00014781378DBB2994286BF0133DBB20023F9
:10600000137001E04FF6FF749DF80700FFF79AFD4B
:106010004FF6FF739C421FD0DFF85890D9F800303C
:106020004FEAC40803EB080243F834708EB185B11F
:106030000E4B18880E4B1B682A4604FB0030314675
:1060400004F06DFED9F8003098440020A8F8045000
:1060500003E00020908000E0042003B0BDE8F0835E
:106060003D3B00203C3B00203E3B00202E370020E3
:10607000383B0020E43900202DE9F34129492A4B1F
:106080000022C1F84021C1F84421C1F84821C1F8DB
:106090004C21C1F80021C1F804211B68002B3ED01F
:1060A0002248D1F804150468DFF898800C1B24F00E
:1060B0007F44154617461A68A2421AD8A41A1544F6
:1060C0001A7CDE6992B15A691F749B690193B8F812
:1060D00000300092072B06D9154A08216846FFF7C1
:1060E0006DFF18B100E0092002F044FD0EB1334607
:1060F000E1E7104B104A197813788B4205D1013330
:10610000DBB2022B08BF0023137012780B4B03EB9A
:1061100082034FF480125D63094BC3F8002102B083
:10612000BDE8F08100100140D8390020E03900209E
:106130001D550700DC390020DD3900203C2E0020F1
:1061400000E100E02E370020F8B5124C124D264633
:1061500022782B789A421CD023781048104A07885E
:1061600012681048DBB219B202EBC10E006852F897
:106170003120BEF8041003FB070090470A4A237839
:106180001288DBB29A4286BF0133DBB20023337040
:10619000DEE7F8BD3D3B00203C3B00202E370020D1
:1061A000E4390020383B00203E3B002013B500932B
:1061B000034B5C6913460A460021A04702B010BD9C
:1061C000BC3900201FB50293069B0192039301AADC
:1061D0000323FFF7EBFF05B05DF804FB07B58DE87F
:1061E0000C0002236A46FFF7E1FF03B05DF804FBF1
:1061F00013B502AC012344F8042D2246FFF7D6FF65
:1062000002B010BD5B689A68064B9A4209D1436898
:1062100082680549013A01330B604A600320034953
:10622000E6E77047B4B707002C300020F7B8070046
:1062300000231A46BAE710B5104B114C9A6B11495E
:1062400021645C336364104BE364104BA264104917
:10625000104800221A605A6001F0A1FE04F14000CB
:106260000B4A0C4901F0CAFD044628B90A4901202D
:10627000FFF7DEFF204610BD012010BD603C00206E
:106280003C2E00205D640700056207002C300020D2
:10629000002F00202CB807001CB90700104E114C2D
:1062A000114908B50320A41BFFF7C2FFE4080F49FA
:1062B0000420FFF7BDFF22460D490420FFF798FF99
:1062C0000025AC4204D006EBC5035B68984728B1B3
:1062D00008490420FFF7ACFF02F0D6FB0135F0E7D8
:1062E000182E0020202E00204DB9070068B90700A5
:1062F0008DB90700A9B9070008B5044B02221A702E
:10630000034B1B780BB1FFF7C9FF08BD44340020D5
:10631000403B00202DE9F04F0022CBB00C468D5CB5
:10632000E37843EA0563657843EA0543A57843EAE1
:1063300005230AAD0434AB500432402AEFD12B467A
:1063400010269D6B19685A684FEAF54484EA754433
:1063500084EA95255C6A21446C184FEAB24181EACF
:10636000F21181EAD20201362244402E1A6403F16E
:106370000403E6D1036D0193436D0293836D039390
:10638000C36D0493036E0593436E0693836E079368
:10639000C36E08939B46079FDDF818E0059BDDF868
:1063A0001080039D029E0199DFF8AC904FF0000C25
:1063B0004FEAF32282EAB31282EA736A0AAA52F817
:1063C0002C40224659F82C4014440AEB040203EAFC
:1063D0000E0A27EA030484EA0A0414445C444FEAE0
:1063E000713A85EA060B0BEA010B8AEAB10A06EA62
:1063F00005028BEA02028AEAB15A0CF1010C9244BE
:10640000BCF1400F04EB080209925444A846BB4675
:1064100006D0774635469E460E46099B2146C7E77D
:10642000019A22440265029A0A444265039A099934
:1064300032448265049A2A44C265059A0A44026677
:10644000069A1A44079B426673448366089B3B4442
:10645000C3664BB0BDE8F08FB4B6070043681A447A
:10646000426039B10139934204D013F8010B01F8AD
:10647000010FF8E701207047042010B51149FFF71C
:10648000D7FE114B18884FF6FF73984204D01321A2
:1064900001F07EFC88B110BD0C4C23689B070CD525
:1064A00002F00EFB68B94FF0A0434FF00042C3F872
:1064B0000825236843F0020323600548FFF7D2FB59
:1064C000002010BD08BA0700882C00209435002059
:1064D000FC3400202DE9F0434FF0A0430322C3F821
:1064E0007C27C3F87C274FF00042C3F80825C3F887
:1064F0000825B64B95B01868049001F013FF0028EA
:1065000044D1B34AB3490420FFF772FEB04802F009
:106510002BFA044600283AD1AD4AAE490420FFF7D1
:1065200067FE2246AC490420FFF762FEAB49042017
:10653000FFF77EFEAA4BAB4A1A60AB4B50221A8083
:10654000AA4BAB4A1A60AB4B1C68C4F340341CB175
:106550004FF40052C3F88020A74904A801F0CAFAFA
:10656000A44A20B184B14FF4005313600CE0A34B54
:106570000121197092F816335B098B4202D9042B62
:1065800040F01A8142F2020002F0F4FA0446002CB4
:1065900040F0B4819A4B9B4A1A609DF810300D94DC
:1065A000012262F3030362F3071308A80E948DF827
:1065B000103002F08BFA38B99DF8213008A8013369
:1065C0008DF8213002F084FA0446002840F09681CC
:1065D0008D4804F0E9FB8C4982B204A802F06EFAFF
:1065E00070B90C23ADF834301823ADF836300DA84F
:1065F0004FF4C873ADF83840ADF83A3001F0C6FB3F
:106600000446002840F07A81804B4FF6FF7214A9AF
:106610001A804FF65963012021F8483D7C4A8DF8D5
:106620000A0003F061F8002840F08E80794B04AC3A
:1066300003F1100518685968224603C20833AB42BB
:106640001446F7D1744F04A8394603F047F80446BE
:1066500000287AD101461C224FF014090DA8FEF73C
:1066600071FE21464A4608A8FEF76CFE9DF83430BC
:10667000ADF800403E4643F004038DF8343016F880
:1066800002398DF80E3002234FF00108ADF80C30BE
:10669000230A68F3030368F3420468F30713E4B2C0
:1066A0008DF8013044EA080403AD331D08AA0DA992
:1066B00037F8020C8DF802400895CDF824D0ADF8DB
:1066C0002C9003F00FF80446002840F01781014693
:1066D0001C220DA8FEF736FE21464A4608A8FEF702
:1066E00031FE9DF83430ADF8004043F018038DF8CA
:1066F0003430B3788DF80E30230A68F3030368F35F
:10670000071368F342048DF80130E4B2172344F014
:106710001104ADF82C3008AA06F10C030DA937F8C6
:10672000020C8DF80240ADF80C800895CDF824D00D
:1067300002F0D8FF0446002840F0E080374A136892
:1067400043EA0803136003E00446002C40F0D680BF
:106750001C2200210DA8FEF7F5FD40F6CD430E9357
:106760004FF480430F9303238DF840302C4B139349
:106770000DAD0FCD2B4E0FC695E807002A4B86E8CE
:1067800007002A481C7001F0FFFA88B9284B4FF621
:10679000FF721A80274B1C70274B9B7853B1274BF5
:1067A0001A7C3AB9264A1C745C745A6102F0ECFCFB
:1067B0000446A3E00824A1E0224B9968002943D0B5
:1067C0001A6842F480021A6041E000BFD0B90700A5
:1067D000005007001FBA07003DBA07007FBA070044
:1067E000283700208C2E002026370020C8340020B7
:1067F0006D81070000E100E0978007002C37002042
:10680000203700205D92070000BC0700882C002084
:10681000AA350020D4B90700AC35002094350020FB
:1068200049910700DC3400201C350020D4340020BE
:106830001E350020F8340020543B0020FC3400209A
:10684000957D0700483B00204FF4800313602D49DD
:106850000420FFF7EDFC2C4B0193019D0C2200213D
:106860000DA8FEF76FFD012600232A460DA9402042
:106870008DF834608DF835308DF8363002F030FF09
:10688000024600287FF480AE14AC20490320FFF7B5
:10689000AFFC1F490420FFF7CBFC44F8305D2A46CB
:1068A0001C490420FFF7A4FC204601F021F9089AB6
:1068B000954204460FD018490220FFF799FC4FF08B
:1068C00080531649D3F80C21089BC3EB822202F1B6
:1068D0000052022003E058B1114902463046FFF74A
:1068E00087FC2CB122460F490120FFF781FC4EE6C0
:1068F0000D490420FFF79CFC00244BE6204615B010
:10690000BDE8F08308BC0700002C0020ADBA0700EA
:10691000D9BA0700F7BA070016BB07004ABB070041
:106920007DBB0700BABB0700E4BB070010B50B68CE
:106930004C689B680360002243608260C4609A7860
:106940002244026193F90340224442614A68026191
:1069500001F10C0242615B7803F0C003802B04BF9D
:106960000431016110BD2DE9F34704460F464FF095
:1069700000084FF000090025A3680BB3236801222B
:106980000DF10701204698470646C8B1A3689DF857
:1069900007A0013B2A46A3600AF07F00002104F013
:1069A0006FFE1AF0800F48EA000849EA010905F174
:1069B000070502D0462DDFD102E0C7E9008900E0DB
:1069C0000026304602B0BDE8F0872DE9F341836828
:1069D0000446884663B3036801220DF10701984716
:1069E000074628B3A3689DF80750013B2A06A36019
:1069F0001BD505F07F050726A368CBB123680122CC
:106A00000DF107012046984790B1A3689DF8072033
:106A1000013BA36002F07F03B3401D43130606F160
:106A2000070602D5232EE7D102E0C8F8005000E0A7
:106A30000027384602B0BDE8F08173B50D4601A9C4
:106A40000446FFF7C2FF064608B900260AE094E8AC
:106A50000F0085E80F0001998A42F6D3A960A36868
:106A60005B1AA360304602B070BD30B5044685B0F5
:106A7000154699B90268114B9A420FD0102D07D9CB
:106A8000102269462046FFF7F0FFA8B1103DF5E758
:106A90002A4669462046FFF7E8FF0DE0A3689D42BD
:106AA00001D9002008E023682A462046984700289C
:106AB000F7D0A3685D1BA56005B030BD5D6407001D
:106AC00013B5044605291ED8DFE801F0070F111D94
:106AD0001D1B9DF90430002B16DA012201A9204666
:106AE000FFF7C3FF0028F4D10EE0082204E001A95B
:106AF000FFF76BFF40B1019A00212046FFF7B5FF79
:106B000002E00422F8E7002002B010BD2DE9F043B6
:106B100057687B7813F0C00C89B006468E46144641
:106B200003D0BCF1400F67D0B2E05B4903F00F0225
:106B300001EB820103F03003102B4D690BD005D817
:106B4000002B40F0A5802269394609E0202B09D0AE
:106B5000302B3DD09CE0636901221A702269616884
:106B6000A84796E0BEF1020FD4F8148023D1042A7E
:106B700021D804A9FFF761FF002800F08980069B57
:106B800093B1616898F800304A799A420CD9087933
:106B9000226900FB032204A8A84730B198F800300E
:106BA000013388F80030EAE70120059B7360069BFB
:106BB000002B6ED06CE098F800307A799A4267D951
:106BC00022693979581C88F8000001FB032210E083
:106BD000636939781970072A0AD1636820691A79BC
:106BE0006146FEF7AFFB63682169986801F0D7F949
:106BF000226961683046B3E717693B6807F1040909
:106C000013B9FFF75DFF44E0022911D104A9FFF792
:106C100014FF00283CD03B6861684A4604A89847A6
:106C2000002835D0069B002BF5D1059B736030E022
:106C300001291AD008D305292AD104220DEB02011B
:106C4000FFF713FF042515E000250DF104080135B9
:106C50000B2D1DD0012241463046FFF706FFB8B18B
:106C600018F9013B002BF2DB05E0082201A9FFF730
:106C7000FCFE082568B1094B049301AB0593002382
:106C8000069507933B6861684A4604A8984700E068
:106C9000002009B0BDE8F083D0B907005D640700AB
:106CA00010B542681378002B40D002F10C0343600A
:106CB000137B5BB90168416083608A78C4682244B1
:106CC000026191F903100A4442612FE0517813796F
:106CD00001F03004302C0AD1547B04F03004302C05
:106CE00005D1917803695B1A036100230CE001F080
:106CF000F004202C03D1517913FB01F304E001F0DF
:106D0000C001802908BF0423517811F0300F02BF61
:106D1000816801318160917B0B4401690B440361FF
:106D200092F90F2013444361012010BD184610BD95
:106D30002DE9F041C7688668F61B964205468846ED
:106D40001446406804D9384403F0E9FF3C440AE0A3
:106D500032463844A41B03F0E2FF224608EB06014A
:106D6000686803F0DCFFEC60BDE8F0812DE9F047D6
:106D700090F80080B8F1010F86B005460E4602D0AB
:106D8000B8F1060F07D12B79012B02D0022B40F06E
:106D90005285AF4A1370AE4F3C78012C04D0022CC0
:106DA00000F0228200F042BD08F1FF33052B00F213
:106DB0001582DFE813F0060032005F00290013029D
:106DC0000602A4490320FFF733FAAB68002B36D044
:106DD000B3F5807F00F231829F4EA0490320FFF778
:106DE00027FA3046FEF73EFF044608B101F0C2FE26
:106DF00086F82000202201469948FEF7A3FA994B15
:106E00001C63AA689A6369E297490320FFF710FAA6
:106E1000944BDA6B72601B6C29E0924F934903200C
:106E2000FFF706FAAA68F86BBB6B1118994209D9EB
:106E300070603B6C8E49B3600120FFF7F9F90324C1
:106E400000F032BD384469685C3003F068FFAB681D
:106E5000FA6B02EB0308C7F83C80A968686807F181
:106E60004002FEF753FE3864C6F804803B6CB36002
:106E700000F01ABD7F490320FFF7DAF9794BD96B8F
:106E80009A6B9142984601D07B49DEE1724E7B4974
:106E90000320FFF7CDF996F820303546002B40F05F
:106EA0004B8377490320FFF7C3F9FFF7C4F90128A3
:106EB00040F0EF8496F89830002B00F0748171490F
:106EC0000320FFF7B5F996F89E30002B00F0E1841F
:106ED000D6F85091D6F854A1B9F1000F00F0138103
:106EE000BAF1000F00F00F8196F8FF3013B196F859
:106EF00000317BBB95F8A830574E0BB96249DCE0F6
:106F0000D6F8AC30342B05D116F8B02F002343F25D
:106F10000C010EE05D490120FFF78AF9062386F88F
:106F20005831F3E0088856F804EF864500F08D8468
:106F300001339342F6DB00F082BC95F8A030002BC1
:106F400000F0E180D8F80830D5F8A420504903209B
:106F5000FFF744F995F80C31DFF8FC80002B64D181
:106F60004C493B4E0320FFF763F94B4B187893F8DD
:106F700001E05246331D494640EA0E2000F0BEFDB6
:106F8000002840F08084326998F80D319A4240F030
:106F90007A8408F58771F06803F0C1FE3F49032049
:106FA000FFF746F903F01EFD7169814639B3736836
:106FB0002BB3F2681AB30B439B0720D112F00308DE
:106FC0001DD12023039305A9402305200293049398
:106FD00001F080FD98B9B269029B9A420FD1BA685C
:106FE000059B9A420BD13169049B994207D1CDF898
:106FF0000090F3687168706903F0F8FC30B92849B3
:107000000120FFF715F9052400F03EBC25490320B7
:10701000FFF70EF995F8C530C5F85C81032B00F237
:107020008980DFE803F00B5A45651F4903200B24D4
:10703000FFF7FEF888F8584100F026BC95F8D430E8
:10704000054E0BB9194938E0D6F8D8304DE000BFED
:10705000642C002080BC0700DC2E0020A1BC0700AF
:10706000983C0020603C0020BEBC0700D8BC070054
:10707000F8BC07002CBD07004EBD070072BD07001D
:1070800090BD070099BD0700B9BD0700D0BD07003E
:107090000ABE070030BE070038BC070055BE070017
:1070A0006EBE070088BE07009FBE0700BEBE070079
:1070B00095F8CC30984E2BB998490120FFF7B8F8D5
:1070C00004232CE7964BD6F8D020C6F85C21C3F5F4
:1070D000FC239A4230D9934947E095F8C6308E4E4A
:1070E0000BB99149E9E7D6F8C830C6F85C3123E01E
:1070F00095F8CC20884B12B193F8C62042B98B4941
:107100000120FFF795F8042385F858310B24BBE3E1
:10711000D3F8C810D3F8D0208818C3F85C0101B1A7
:107120000AB9834917E07E4BC3F5FC239A4203D981
:1071300080491AE08049E3E7774E80490320FFF752
:1071400077F8202206F1DF01F86903F0E8FDD5F8B1
:107150005C0128B97A490120FFF76AF8032493E318
:1071600002F0AEFB054628B176490120FFF760F832
:10717000042489E3744B75491A680320FFF738F833
:1071800073490320FFF754F872490320FFF750F8C2
:1071900003207149FFF74CF8284601F03FFA002818
:1071A00040F0798379E396F8243043B16B490320AA
:1071B000FFF73EF8032386F858310B2474E368493F
:1071C00036E368490320FFF733F8674B1A6CB26067
:1071D000DB6B73604FF48073336065E363490120B8
:1071E000FFF726F802245FE308F1FF33052B00F2D6
:1071F0001B83DFE813F006007500AD01A30119033E
:107200000C035B490320FFF713F8AA68002A3FF438
:1072100016AEC2F30B034BB1534B3F495B6DD1F834
:107220005C1113448B4201D0524905E6B2F5805FF0
:1072300005D951490120FEF7FBFF042434E3364908
:1072400091F820300E4623B94C490120FEF7F0FF9B
:10725000F3E2454CD1F85C11636DD018884205D932
:10726000009101204649FEF7ADFFE6E203204549C3
:10727000FEF7DEFFE36CA364AB6863646369606D73
:107280002065206303B9236296F86031A9683E4AFD
:10729000214F013303F0030386F860310023A6F881
:1072A0006231D6F864310133C6F86431264B1B686D
:1072B00001F6FF71090B184401F042F830B1D7F81C
:1072C00064313249013BC7F86431B0E2A36C0093EA
:1072D000236D626C2E490320FEF774FF4446E3E2FF
:1072E000214B0D4C1A6D72609A6CB26094F820209C
:1072F0001F46002A00F0A182A968B1F5807F9CD8C2
:10730000D3F850805A6D5B6C01EB0800821A9A42E8
:1073100042D9204990E500BFDC2E0020D9BE0700ED
:1073200000500700F3BE070009BF070023BF070096
:107330003ABF070050BF07006EBF07008EBF0700AF
:10734000A9BF0700BDBF0700BC3D0020E1BF07008B
:1073500005C0070029C0070041C0070060C0070042
:1073600082C00700B3C00700603C0020E3C00700F4
:1073700006C107001FC1070068C1070095C10700CB
:10738000D6C1070038C207005953070052C2070090
:1073900072C20700B5C20700686807F14802FEF72D
:1073A000B5FBB864AB68B4F8620194F8601143446B
:1073B0003B657360BB6CB360AA688318FF2B04F550
:1073C000B4780CD800EB01204044696803F0A7FCB6
:1073D000B4F86231AA681344A4F8623163E0C0F5DE
:1073E00080731FFA83F900EB01204A466968404424
:1073F00003F095FCAB68B4F86221C9EB0303AB6002
:107400006B684B446B60A74B396B1B684A4401EBBC
:107410000309D4F8643194F8601192B2A4F862219F
:1074200001330332C4F8643192109F4B08EB012101
:10743000484601F03FF8B4F8622150B94B469B49E9
:107440000320FEF7CBFE3A6BB4F8623113443B6382
:1074500010E0D4F864319649013BC4F8643101204E
:107460004B46FEF7BBFEFB6CBB647B6D3B657360FC
:10747000FB6CB36094F86001AA68DFF84C920130AD
:1074800000F00300002384F86001A4F8623152B1D7
:10749000696808EB002003F042FCB9F86231AA6881
:1074A0001344A9F86231B4F86221DFF81C92002A73
:1074B00042D0796D3B6B786C7E4D511A19448142F4
:1074C0003AD378490F6899F860111F44D9F86431AC
:1074D00003320133C9F864319210734B08EB012178
:1074E000384600F0E7FFB9F8622150B93B466F49D2
:1074F0000320FEF773FE2A6BB9F8623113442B6345
:1075000010E0D9F864316A49013BC9F864310120BF
:107510003B46FEF763FEEB6CAB646B6D2B657360F3
:10752000EB6CB36094F86031013303F0030384F82B
:1075300060310023A4F862310124B5E15E490320E3
:10754000FEF776FE5B4B1A6D72609B6CB360F3E7DF
:10755000584D5A490320FEF76BFE2B6D696D6A6C1E
:107560005B1A9A4204D056490120FEF737FE64E1C7
:1075700003205449FEF75CFE2B6D6B650020AB6C5D
:107580006864EB6401F04AF8002840F084814E4EB4
:107590002A6DD6F85C319A42CED1D6F864214B4997
:1075A0000320FEF725FED6F86441DFF81C8124B1E4
:1075B00001F0CCF9FEF7C8FDF5E745490320FEF7D9
:1075C00037FE98F8DD30032B21D1424A3549137834
:1075D00092F801E00968D8F85C21200C43EA0E2EED
:1075E00000043D4B40EA0E0000F088FA20220028FB
:1075F00008F1DF01F8690CBF01240A2403F080FBC5
:1076000048B136490120FEF713FE0C2300E00923A0
:1076100088F858310B246B692BB93149314F03205D
:10762000FEF706FE0CE0012B05D12F492F4F03205A
:10763000FEF7FEFD04E02E490120FEF7F9FD2AE1E8
:107640002C490320FEF7F4FD96F8C530032B00F219
:10765000C380DFE803F07D027D554FF440531B7873
:10766000142B81BF43F21403234A1B68B3FBF2F2CD
:107670000C4B1B6803F5005198BF002209781429B0
:1076800089BF42F2140100235B581B4988BFB3FB3A
:10769000F1F39A425CD019490320FEF79FFD0524BF
:1076A0009BE000BFBC3D002059530700D5C2070036
:1076B000F5C20700603C002029C307003FC3070054
:1076C00059C3070086C30700DC2E0020A1C30700B2
:1076D000ECC3070038BC0700802C002007C407005B
:1076E0001DC40700783C00203CC40700843C0020F7
:1076F0005BC4070089C4070040420F00BAC40700FA
:107700004FF440531B78142B81BF43F21403684A93
:107710001B68B3FBF2F2674B1B6803F5005198BF7F
:1077200000220978142989BF42F2140100235B5812
:107730005F4988BFB3FBF1F39A4209D05E49032049
:10774000FEF74CFD6B69012B02BF5C4B00221A62F5
:10775000012C42D15A490320FEF76AFD96F8C53044
:10776000032B1BD8DFE803F0020F11140123BB60C9
:107770006B69012B16D153490320FEF759FD4F4B7E
:1077800000221A620EE0A52303E0AA23BB6009E0F1
:10779000AC23BB60D6F8C8306B6303E0042386F8E3
:1077A00058310B2496F8FF301BB1474B93F800314A
:1077B0006BB996F8C530444A33B1023B012B06D869
:1077C000D2F8A430EB6002E0D2F8A430AB60AB6C2E
:1077D0007B60D6F85C3103E00A240023BB607B6049
:1077E0003B60202200213948FDF7ACFDB222FF2189
:1077F0003748FDF7A7FD00232B633648012386F8A1
:10780000683500F00BFF002818BF0A244CE032490D
:107810000320FEF70DFD294B9A6CB2601B6D73605F
:107820004FF48053336087E62C492EE02C49012029
:10783000FEF7FEFC2DE0072436E0082434E0294959
:107840000120FEF7F5FC07235EE495F8C530032B15
:1078500013D801A252F823F03B6F0700817807008C
:10786000697807006978070095F8A030002B3FF48D
:107870004AACD8F80C30FFF767BB1B49032040E443
:107880000023FFF761BB0A2418490120FEF7D0FC52
:107890000AE0052408E00A2406E015490320FEF763
:1078A000C7FC012386F82030204606B0BDE8F087EB
:1078B00040420F00BC3D00200FC50700603C002087
:1078C00075C50700A8C50700DC2E0020983C0020E5
:1078D000BC3C0020F9620700D8C50700F5C50700C9
:1078E00015C6070033C60700EBBD07004BC60700EF
:1078F00068C6070075DF704713B51446694608224D
:10790000FFF7B3F818B1DDE90023C4E9002302B0A2
:1079100010BD13B5144604220DEB0201FFF7A5F8C4
:1079200008B1019B236002B010BD73B50D4601A9DB
:1079300006461446FFF749F898B1019A511C0FD238
:107940006B7803F0C003802B0AD02B79994207D8BB
:1079500021463046FFF789F8019B0022E25400E0FF
:10796000002002B070BD73B50D4601A9064614464D
:10797000FFF72BF8A0B1019AFF2A10D8511C0ED2A4
:107980006B7803F0C003802B09D02B79994206D87D
:107990002146304601F8012BFFF767F800E0002090
:1079A00002B070BDF7B50F4669461646FEF7DBFF1D
:1079B00050B3DDE90045002304F001026D084FEAF1
:1079C000340413431CBFE443ED43E8B13B79082B77
:1079D00002D1C6E9004517E0042B02D134602246EB
:1079E0000AE0022B03D123B233801AB204E0012B48
:1079F00009D163B233705AB2D317AB4206BFA24269
:107A00000120002000E0002003B0F0BD37B50D4696
:107A100069461446FEF7A7FF20B32B79082B04D143
:107A2000DDE90001C4E9000113E0042B03D1DDE925
:107A3000000120600CE0022B03D10098208080B26E
:107A400006E0012B0DD1DDE90001207000F0FF0000
:107A50000021DDE900238B4206BF82420120002085
:107A600000E0002003B030BD37B50D46694614462E
:107A7000FEF779FF20B32A79082A04D1DDE9002333
:107A8000C4E900231CE0009B042A18464FEAE37176
:107A900003D123601A460B460BE0022A03D11BB226
:107AA00023801AB204E0012A09D15BB223705AB2D2
:107AB000D3178B4206BF82420120002000E0002045
:107AC00003B030BD08B5074B1B681BB1984740B1E8
:107AD00001F050F8044B1B781BB1BDE8084000F0E2
:107AE0007BBF08BDC83400202C37002061DF704701
:107AF00060DF704710DF704748DF7047F0B5A1B016
:107B00000D46ADF8040017461E46002B00F0E68037
:107B1000002900F0E3801B68002B00F0E1809DF855
:107B20000400052840F0DE8002A900F0D3FF002801
:107B300040F0DB807268029B9A4240F0D5800023BF
:107B40000022CDE916236A4B18936A4B19936A4BAE
:107B50001A936A4B1B936A4B1C936A4B1D936A4B97
:107B60001E9303F17453A3F52303A3F692431490D9
:107B70001F932F440446BD4218D0149B15F8011BD7
:107B800020AA1A440133402B02F8701C1493F2D13E
:107B900004A90846FEF7BEFBDDE9162312F50072C4
:107BA00043F10003CDE916231494E4E703A905206B
:107BB0009DF8055000F08EFF002840F09680726816
:107BC000039B9A4240F090803468002C00F086803D
:107BD000149B20AA1A44372B04AE4FF0800103F106
:107BE000010302F8701C334405D89A1B382A11D0BF
:107BF00003F8010BF9E79A1B3F2A02D803F8010B9F
:107C0000F9E731463046FEF785FB38220021304641
:107C1000FDF798FBDDE9162314980821E1FB00230A
:107C200022FA01F1CDE916238DF84F208DF84E1080
:107C3000110C120E8DF84C201A0A8DF84D108DF88B
:107C40004B308DF84A2031461A0C30461B0E8DF809
:107C500049208DF84830FEF75DFBF5B91F9BEB40DE
:107C600023701E9BEB4023711D9BEB4023721C9BDA
:107C7000EB4023731B9BEB4023741A9BEB40237553
:107C8000199BEB402376189BEB400835202D23777A
:107C900004F10104E2D1002027E003221899D30067
:107CA000D94021701999D94021711A99D94021726E
:107CB0001B99D94021731C99D94021741D99D94031
:107CC00021751E99D94021761F99013A21FA03F3B3
:107CD0002377531C04F10104E0D1DCE70E2004E01B
:107CE000102002E0062000E0092021B0F0BD00BF16
:107CF00067E6096A85AE67BB72F36E3C3AF54FA53D
:107D00007F520E518C68059BABD9831F13B51C4C59
:107D1000E388A2899A420ED8E2899A420BD3A36AD9
:107D200023B102A8012200F8042D9847002384F80B
:107D3000543002B010BD94F8543011482BB1836A0E
:107D4000002BF3D002A80022EDE7C369816990F807
:107D50003020002A18BF19460A4B9B7873B10429BA
:107D60000AD9A36C53B1343001F02CFD0028DDD0CA
:107D7000E36A002BD9D1D9E70720F9E70820F7E714
:107D8000C8340020543B00207BDF70477ADF704707
:107D900076DF704713B5184BB3F856004FF6FF72F5
:107DA00090421C4625D093F8302093F820100132E1
:107DB000D2B2914283F8302007D303F10C01FFF7D0
:107DC00099FDB0B1DB6A9BB913E0002384F8303031
:107DD00094F8243033B13B21FFF7DAFF10B1E36AA6
:107DE00003B19847A36A23B102A8002200F8042D2A
:107DF000984702B010BD00BFC83400202DE9F04FF5
:107E00008FB08B7805921A4491F9033006920025C1
:107E10001A44044600950195029103910495079236
:107E2000A368002B46D008A92046FEF7CEFD18B95E
:107E3000A368002B3ED035E0089E002E3AD0039F69
:107E40004FEAD60806F00706039B1A7890452BD018
:107E500002A8FEF725FF039B9F42F5D1454500F29E
:107E60008480039A537803F00F03082B71D115789F
:107E700045457AD8069BD4F808901F684FF0010A50
:107E8000A368002F6ED099456CD13B68D3F800B041
:107E9000BBF1000F6ED03346424639462046D847E4
:107EA000002877D1002077E05B7803F00F02082AE2
:107EB000CED02AE0039B049C5D7802A8FEF7F0FE7A
:107EC0000028F7D115F0300F03D1039B1B7803B1C5
:107ED0000134C4B162090023934205D05DF8231038
:107EE0000131DFD10133F7E70EAA02EB830304F07F
:107EF0001F04C4F120044FF0FF3253F8383C22FA3B
:107F000004F4A342CED1012046E013F0300F10D18B
:107F1000049B3F2B0DD85A090EA901EB820203F0F6
:107F20001F03012101FA03F352F8381C194342F8E8
:107F3000381CE76827B102AB324641462046B847B5
:107F400002AA31462046FEF7E1FD00287FF468AF23
:107F5000A8E702A8FEF7A4FE039B9F4281D14FF041
:107F6000FF3502E099457FF45BAF31462046FEF7CE
:107F7000A7FDEAE79B681B7898450BD1394608A80E
:107F8000FEF7D4FC87F80CA008AA31462046FEF77D
:107F9000BDFD85E7BF6873E70FB0BDE8F08F7FB523
:107FA0000023029383780391194490F903300491DC
:107FB000194403780090019005913BB1684600F0A8
:107FC00026F86846FEF76CFE0028F7D107B05DF88A
:107FD00004FBF0B585B00F468C6869460646154629
:107FE000FEF72BFD88B1B86878B17B7803F03003D9
:107FF000202B03D129462046FFF7D1FF2A462146F0
:108000006846FFF7FBFE019B736005B0F0BD30B51D
:1080100043685B7803F00F02082A87B00ED103692A
:108020001C680025002C34D0214625736846FEF7D5
:108030007DFC6846FFF7EBFFA468F3E713F0C0028E
:1080400009D103F03001102902D143691A700CE004
:1080500099060AD506E0802A1BD1016900229B06F9
:108060000A6016D543691A7013E043685A7802F023
:108070000F02072A04D101699868FFF790FF08E012
:1080800099681A79006911B102F049FE01E0FDF723
:1080900059F907B030BD08B502460B460120024928
:1080A000FEF79CF800F0F0FC90C60700034B01B906
:1080B00019705B6803B11847704700BF2035002076
:1080C000F0B50346186880F308885868FF2464B246
:1080D000EFF30585002D08D1EFF31481022221EA88
:1080E000020181F31488A64600472546064621274B
:1080F0003FBAF0B40024002500260027F0B4F92090
:1081000040B20047F0BD70B50D4CA36823F00102EA
:108110000546A2600E4611B923F0030306E00949A3
:108120000120FEF785F8A36843F00203A3606B68A3
:1081300023B131462846BDE87040184770BD00BFE6
:1081400020350020C2C6070010B5064C206F042859
:1081500007D10549FEF76CF801F06AFBFDF7F4FF63
:10816000F4E710BD20350020DEC607000021024ADA
:108170000846FDF723BF00BF698A070070B50B46AC
:10818000024606460D4604201A49FEF727F81A4B08
:1081900018884FF6FF73984229D0184C636FDB079D
:1081A00025D5602384F87830032384F879300123BF
:1081B00084F87A30330A84F87C30330C84F87D30CC
:1081C0002B0A84F87B6084F87F50360E84F8803068
:1081D0002B0C2D0E84F87E6084F8813084F8825058
:1081E000B4F896100B22BDE8704000F0B0BF082034
:1081F00070BD00BF13C70700882C00202035002069
:1082000038B502460B4605460C4604201449FDF7D6
:10821000E5FF144B18884FF6FF7398421DD0124BA0
:108220005A6FD20719D50B2C4FF0600283F87820D3
:1082300008BF0E4A83F87A4001BF117883F87B109B
:108240000024147083F87950B3F896100CBF042200
:108250000322BDE8384000F07ABF082038BD00BFD7
:1082600051C70700882C0020203500203430002022
:1082700010B510490420FDF7DBFF0F4B1A6A012AE5
:1082800001D00E490BE0DC6974B1996943F208032F
:1082900000221868FDF73AFC844205D00849042002
:1082A000FDF7C6FF002010BD06490420FDF7C0FF02
:1082B000012010BD7DC70700603C0020A1C707005A
:1082C000CAC70700E7C7070008B5FFF7D1FF90B19D
:1082D00009490420FDF7ACFF084B9B7843B10848DF
:1082E00043692BB14FF4A02101F06CFA18B100E002
:1082F000082000F03FFC08BD0BC80700543B0020DD
:10830000DC2E002008B50C220021FDF71BF8034BE2
:1083100000221A635A631A615A6108BD603C00204A
:1083200018DF70471FB5102200216846FDF70AF8D4
:10833000022368460093FFF7F3FF05B05DF804FBE6
:108340002DE9FF41524E0B4605460F461446514952
:1083500002460420FDF742FFB368590722D59A0769
:1083600005D54D490120FDF763FF0A248CE043F059
:108370000103B36096F89E30DB0740F18380474BE2
:10838000474A9342984602D3464A93424BD302242B
:10839000224645490120FDF72BFFB36823F0010376
:1083A000B36071E0C5F30B022AB140490120FDF72B
:1083B0003FFF062468E03E48C5F30F383E46294695
:1083C0004FF0020E0346C0F804E5D3F800C4BCF138
:1083D000000FFAD0C3F80815D3F800C4BCF1000FA1
:1083E000FAD0C3F80425D0F800C4BCF1000FFAD0CD
:1083F000013E01F58051E6D105EB0735002C43D055
:10840000102231466846FCF79DFF2D0B0123019495
:108410008DF80030ADF80880ADF80A503146684656
:10842000A047344630E05DB3C5F30B0303BBD8F877
:1084300000309D421ED3BFB2D8F8042005EB0733AD
:108440009A4217D3C7B16846FDF738FBB0B1009B1D
:108450005C60C3F80080009B02222D0B1A729D8184
:108460001F82FDF747FBB368002443F0010397E741
:1084700006248DE705248BE7042489E7072487E792
:10848000032485E7012483E7204604B0BDE8F0819A
:10849000203500202FC8070051C80700082E0020F3
:1084A000082E0020182E002074C807008EC8070070
:1084B00000E001402DE9F0430E4650491C468B6810
:1084C00013F0040F85B0054688461DD09F0705D5DB
:1084D0004B490120FDF7ACFE0A248AE043F001037A
:1084E0008B6091F89E30D80779D5464B46498B4230
:1084F0001F4602D345498B4244D3022422464449B5
:108500000120FDF775FE74E0002E37D0002835D02D
:1085100046EA00039B0733D12AB93E490120FDF703
:1085200087FE042465E03C4B0121C3F80415D3F811
:1085300000140029FBD03848002356F8231045F8D2
:108540002310D0F800743449002FFAD001339A4236
:10855000F3D10023C1F80435D1F80034002BFBD04F
:108560000026002C45D001948DF800600295ADF8EE
:108570000C2031466846A04734463AE0032438E0F0
:10858000062436E06EB365B346EA050399072AD19F
:108590003B689D4229D31FFA82F97A6805EB89036B
:1085A0009A4222D3B9F1000F21D06846FDF786FA2E
:1085B00098B1009B5C601F60009B01221A72DE6014
:1085C0001D61A3F81490FDF795FAD8F8083043F030
:1085D00001030024C8F808300BE007248EE70124CB
:1085E0008CE703248AE7062488E7052486E7042429
:1085F00084E7204605B0BDE8F08300BF20350020A9
:10860000A7C80700082E0020082E0020182E0020E2
:10861000CAC80700E4C8070000E0014070B52B4A53
:108620002B492C4E05460420FDF7E2FD3378294CFA
:1086300043B129490420FDF7FBFD01F0F9F8FDF7EE
:1086400083FDF3E7012323706560FFF77DFD0022C2
:1086500001211E48FFF774FE07280246F5D030B10D
:108660001E490120FDF7E4FD0023237025E01C4C8A
:1086700058212046FDF74AFA572244F8040C1949BC
:108680000420FDF7B5FD4FF4AE72211F164802F02D
:1086900046FB104DFFF758FD144B0C48572205F1CF
:1086A000A001FFF707FF07280446F2D038B11049B0
:1086B0000120FDF7BDFD00232B70032070BD0D4987
:1086C0000420FDF7B5FD204670BD00BF00F0070097
:1086D0000AC907002035002033C9070069C907000F
:1086E000643C002094C90700C0350020AD8007001D
:1086F000B2C90700DBC907002DE9F04F5D4E5E49A6
:10870000736B356B03F6FF7305F580585D1B25F41D
:108710007F6525F00F0507468BB0AC080420FDF7F8
:1087200087FD04F6FF74336B726B24F47F6424F0CE
:108730000F041F44B3463AB1934205D104204F4978
:10874000FDF776FD002091E0002B3FD14FF4405221
:1087500004201278142A81BF43F214024849126897
:10876000B2FBF1F207F5005198BF1A4609781429B7
:1087700081BF42F21403F958414BB1FBF3F3414975
:10878000FDF72CFD22E0052305AA3F4905970420AB
:10879000CDF81890CDF81C80CDF820A00994FDF7F5
:1087A00005FDA5424FF0040038492CBF2D1B35466E
:1087B000FDF73EFDDBF8343000205B1BCBF830309A
:1087C000FFF72CFF002D51D0D0464F46A5423EBFAB
:1087D00005F6FF7424F47F6424F00F04052305AA32
:1087E0002B490597042007EB040904EB080ACDF890
:1087F0001890CDF81C80CDF820A00994FDF7D6FC88
:10880000A30803930123059305A8A3080697CDF8B1
:108810001C800893FFF784FD064620B100943B4678
:1088200042461C491EE0052305AA1B490597042062
:10883000CDF81890CDF81C80CDF820A00994FDF754
:10884000B5FC0323059305A8A308CDF81880079766
:108850000893FFF765FD0646002894D00F49009461
:108860003B4642460120FDF7ADFC30460BB0BDE86B
:10887000F08F00BF603C0020F8C9070026CA07003F
:10888000A086010041CA07008BCB0700CBCB0700B5
:1088900073CA0700B4CA0700F9CA070043CB070030
:1088A000F0B5224B0D685C6B87B02D1B43F20802BC
:1088B00004440095234604200F4612681C49FDF726
:1088C00081FC0323AE08029302A81A4B039304947D
:1088D0000596FFF725FD78B917490420FDF7A8FC98
:1088E0003846FFF70FFD15490420FDF7A1FC144899
:1088F000FFF794FE044615E02B462246114904205A
:10890000FDF76CFC1022002102A8FCF71BFD02A859
:1089100003940496FFF704FD044618B10A490120A8
:10892000FDF786FC204607B0F0BD00BF603C00208C
:10893000F1CB0700005007002FCC070050CC0700F8
:10894000C98207007FCC0700C3CC07003EDF704719
:1089500008B504490420FDF76BFC00F069FF00F046
:1089600093F800BFE6CC070013DF704710B502464E
:10897000044613490420FDF73BFCFFF7D3FC08B184
:10898000104912E010490420FDF752FC0F4B10492A
:108990004FF0FF32C3F8802004202246FDF728FC68
:1089A0002046FFF7E1FF28B10A490120BDE8104049
:1089B000FDF73EBC2046BDE81040FFF781BB00BF7D
:1089C00015CD070054CD070080CD070000E100E081
:1089D0009ECD0700CCCD07002DE9F341214ED6F8FE
:1089E000FC51D6F80042B5FA85F5B4FA84F46D0965
:1089F000640937468DBB96F8043283BB01A8FFF7A4
:108A00007BF8052806D0C0B9D7F8FC311BB1019816
:108A1000984700E00125ECB996F80432FBB9D7F885
:108A20000882B7F80632ADF8043001A94046FFF7D6
:108A30005DF80528044607D008B100F09BF8D7F888
:108A400000324046984700E00124002DD3D0002C8E
:108A5000D0D004E0002DCED001E0002CDCD002B05C
:108A6000BDE8F0812035002008B511B1002000F0EC
:108A700081F8044B93F80C3213B1BDE80840ABE722
:108A800008BD00BF20350020BFF34F8F0549064BBE
:108A9000CA6802F4E0621343CB60BFF34F8F00BF9C
:108AA000FDE700BF00ED00E00400FA058FDF70472E
:108AB00086DF70477FDF70477DDF70477CDF704760
:108AC00074DF704773DF704772DF70476DDF704788
:108AD0006CDF70470138062811D8DFE800F0041079
:108AE0000406080A0C00142306E01C2304E02023DB
:108AF00002E0302300E040230B6000207047062096
:108B000070470C4B1B78062B10D10B4B1B681A07B8
:108B10000CD10A4B186800F0F003302B08D000F09D
:108B2000E000A0F1400358425841704700207047D0
:108B300001207047E00F00F0E40F00F0E80F00F0B4
:108B4000094B1B78062B0CD1084B1B681A0708D160
:108B5000074B186800F0F000A0F13003584258416C
:108B600070470020704700BFE00F00F0E40F00F0F6
:108B7000E80F00F0024608B502490120FDF738FB76
:108B8000FFF782FF08CE07002DE9F04FB74D2B7895
:108B900085B00BB16B783BBB2B79B44C0BBB02227D
:108BA0006261A261B24AE26104F17C01E26404F50F
:108BB0001F72216222654FF400711022E362236369
:108BC000A3622366E3656162A3656265A94904F156
:108BD0000B0002F0E1F8A849201D02F0DDF8202387
:108BE000A37201232B706B70A44BC5F8A032A4496B
:108BF000A44BC5F8A4320320FDF71AFB4FF0A043A5
:108C00000322C3F87C274FF00042C3F80C259E498D
:108C1000C3F808250420FDF70BFB9C499C4E04205B
:108C2000FDF706FB9B490420FDF702FB9A4B9B498D
:108C300000274FF4AE7230461F7002F070F83468AF
:108C4000631C06D03A465821301DFCF75FFF844272
:108C500011D093490420FDF7EBFA4FF4AE720021D6
:108C60008B48FCF76FFB012300207360FFF7D6FCF5
:108C7000002840F00382FDF725F88A4A0B21917005
:108C8000894900234FF48010E02413705370C5F815
:108C9000A83285F8AC3285F8AD32C1F8800181F890
:108CA0001443086000F18040A0F56F20C0F808353B
:108CB00081F81143D0F80435C5F8B0329378002B11
:108CC00000F0DB81794B1A7C002A40F0D6811A74BF
:108CD0005A74774A5A6143F2080376491F680420A0
:108CE000FDF7A6FA32696A4B012A0CD05A6952B1D3
:108CF0009A6902F6FF7222F47F6222F00F02174493
:108D000003F1240801E003F11808D8F80830A52B76
:108D100000F0898002D8012B07D0FFE0AA2B00F0D9
:108D20009A80AC2B00F0E080F8E063490420FDF766
:108D30007FFA7269564B012A40F0A28143F2080281
:108D4000D3F824B012681B6B5C49042003EB0209C2
:108D5000C3EB0B08FDF76CFAB8F5805F4FF000022B
:108D60004FF001014846C24628BF4FF4805AFFF732
:108D7000E7FA0446002840F0D780034652463946B9
:108D80004846FFF797FB0446002840F0CD800323B8
:108D90008DE8080268464FEA9A0302970393FFF7AB
:108DA000BFFA044630B13B464A4645490120FDF72B
:108DB00015FAB9E0024601213846FFF7C1FA044628
:108DC00028B13A463F490120FDF712FAACE0336B77
:108DD0002F4C53443363FFF721FCB8EB0A08D1440E
:108DE0005744B9D143F20803424659461868FCF784
:108DF0008DFEA26A9042074609D133490420FDF74F
:108E000017FA01232362E761C4F818B004E00346AF
:108E10002E490120FDF7E2F92D48FFF773FA0020F3
:108E2000FFF7FCFB1FE02B490420FDF701FA384651
:108E3000FFF762FC044608B127496BE04046FFF7A4
:108E400061FA26490420FDF7F3F92548FFF7E6FB10
:108E50000123044667E023490420FDF7E9F9414670
:108E60003846FFF71DFD044600235CE03037002044
:108E70002CCE070035CE070039CE07006557070016
:108E800040CE07001D56070054CE070074CE0700E1
:108E9000603C002092CE07002035002000F0070043
:108EA000B9CE0700543B002000E100E0DC2E00209A
:108EB00051890700FCCE07001CCF07002FCF070009
:108EC00053CF070095CF0700CFCF0700EDCF0700A6
:108ED000843C00203ED0070050D0070050CC070053
:108EE000C982070077D0070071490420FDF7A0F977
:108EF00070490420FDF79CF93846FFF7FDFB044656
:108F000008B16D4906E041463846FFF7C9FC044602
:108F100078B16A490120FDF78BF905E06849012025
:108F2000FDF786F9ACE02CB1224666490420FDF736
:108F30005FF901234FF08042D2F81C25B12A0AD0F4
:108F4000B26D012A0CD1604B00209865FFF766FBDB
:108F5000002840F093805D490420FDF769F9012362
:108F60004FF080420021C2F81C150BB3584BC5F8D6
:108F7000B432DFF8B881574F5749A833C5F80834E1
:108F8000564B0822C8EB070700241A80042014233C
:108F9000FF0885F80C44A5F80E3485F80D44FDF75C
:108FA00047F93A464E490420FDF722F925460AE0E2
:108FB000FFF75EF90028D9D051E058F835309847CE
:108FC000044618B90135AF42F7D1002445490420C1
:108FD000FDF72EF934B1012022464349FDF708F987
:108FE00020464BE041490420FDF722F9404A13781E
:108FF00043F0010313703F4B3F4A1A603F4B04227A
:109000001A603F4B1C603F4B1C703F4B1C70B36B96
:109010002D4CC3B1FDF70FF9A8B1236A23B9A36999
:1090200013B13A4A136007E0F26A274B72B99A69A2
:1090300062B15A6A354B1A60344B186800F040FC34
:10904000334B01221A70334B00221A70324904202C
:10905000FDF7EEF8FFF77AFCFDF776F8FAE7FFF791
:1090600007F978B143F208042C4922680420FDF77F
:10907000BFF82068FFF77AFC04E00820FFF77AFDCC
:10908000002357E726490320FDF7D2F8254904209D
:10909000FDF7CEF843F208031868FFF767FC224992
:1090A0000320FDF7C5F8002005B0BDE8F08F00BF34
:1090B00089D00700A0D00700C6D00700E5D0070080
:1090C00004D1070022D10700603C002064D20700D1
:1090D000E8390020202E002054D107002E37002030
:1090E0008DB90700A9B9070078D10700ABD10700F7
:1090F000BE3500201C3700206954070028350020A9
:1091000040300020403B0020443400203830002014
:10911000FC2E002034300020D6D10700F2D1070009
:109120000ED207002ED2070051D20700182E0020C1
:1091300066DF7047ADDF7047A9DF7047A8DF704773
:10914000A6DF7047A5DF704708B5FFF713FD30B500
:1091500087B004460D46ADF806200021102202A873
:10916000FCF7F0F801238DF80A300DF106030493A3
:1091700002A9044BADF8085020460593FFF7E0FF25
:1091800007B030BD9835002030B5334D296811F057
:1091900002018BB059D1102201A8FCF7D3F80B23A0
:1091A0000122ADF8023002238DF814308DF815201D
:1091B0008DF81830062259238DF816208DF81930B5
:1091C0000322FE230DF102010DF11D008DF8172081
:1091D0008DF81A30FFF770FCC8B9BDF802100B29E2
:1091E00008D84B1C8DF81B30092319448DF81C300E
:1091F00089B206E00C238DF81B3008238DF81C3053
:10920000142100231A46C9B205A8FFF75DFC0446E5
:10921000F0B98DF8040002908DF80C002823ADF809
:109220001000014601A8ADF80E30FFF74BFC70B9F5
:109230004FF0A0434FF00042C3F80C25C3F80825B7
:109240002B6843F002032B6002E0002400E0044698
:1092500020460BB030BD00BF943500202DE9F0470B
:109260000388112B8AB0044618D002D8102B05D0E1
:109270003FE0122B35D0502B1ED03AE0A34B828812
:109280001A8000F1100303CBA14AA24B1060516079
:1092900000221A70A04BDB895BBB28E09B4B9F48E8
:1092A0004FF6FF721A809B4B00221A70FCF7DAFC13
:1092B000F8B1994B9B6911E0974DC288EB899A42AE
:1092C00040F0BC81038A022B40F0B881837CD9072F
:1092D0000DD49248FCF7C6FC58B1AB694BB1984726
:1092E00007E000F1080303CB894A10605160FEF7E4
:1092F0000DFD2388212B00F0D08124D8112B38D0EC
:1093000015D8012B5DD0102B40F0D1814FF0A04338
:109310004FF00042C3F80C25C3F80825804BA28803
:109320001A80804A136823F002031360BFE1132BF5
:1093300035D0142B40F0BB8100231A461946A08873
:10934000FFF7B6FBB0E1522B00F0718105D8502B2E
:1093500000F07481512B3AD0A9E1562B27D0572B1E
:1093600011D0552B40F0A3811721A088FFF7E2FE12
:109370009AE1FFF709FF002840F09781684B4FF60C
:10938000FF721A8093E1684B1B78012B02D1674A68
:1093900013708CE1022B40F08A81FCF77FFF60485C
:1093A00000231A4685210088FFF784FB7CE1A3791E
:1093B000002B40F07C815A4B13211888FEF7E8FC03
:1093C00072E1574B00211888FFF7B2FE6CE1A579D6
:1093D000002D00F06C811022002106A8FBF7B2FFDF
:1093E000022D40F06481524F2289BB899A4240F09D
:1093F0005E81A37B043B022B40F259819DF81E3015
:10940000398A43F001038DF81E30238AADF82030ED
:10941000638AADF8223004F1140309930023039307
:1094200002AB04933E4B02228DF81820ADF80C20BD
:10943000188803AAFFF786FE984660B99DF80820B1
:10944000D20708D440F2FD1206A91888ADF81C20F6
:10945000FFF774FE2BE1002306A9B8F80000ADF871
:109460001C30FFF76BFE002840F021810C221946CA
:109470000DEB0200069307930893FBF763FF237D30
:10948000013B052B00F2C080DFE803F0032D5A1FDB
:10949000BE6F638A062B02D003210120BAE0254962
:1094A0000420FCF7C5FE214B9A885A80637D049303
:1094B00006A9D4F816300593012403A88DF80C40B2
:1094C000FDF754FC01462046A4E01B490420FCF7AC
:1094D000AFFE032306A903A88DF80C30FDF746FC68
:1094E0000146042096E015490420FCF7A1FE638A9A
:1094F000032B01BFA27D637D43EA02230B4A11BF08
:109500000321938053800121022083E01E35002037
:10951000CC340020F8340020DC340020FC3400205F
:10952000882C00209435002044340020403B00204B
:10953000AA35002090D20700B0D20700D1D2070090
:109540005C490420FCF774FE042306A903A88DF8E7
:109550000C30FDF70BFC0128014604D1089907984F
:10956000FEF70CFE5BE0032054E053490420FCF7B7
:109570005FFE638A022B02D0032106204AE0637D4E
:1095800004934FF0060906A903A88DF80C90FDF787
:10959000EDFB0128824634D1069E079D089C00946D
:1095A0002B46042032464549FCF70CFEB8F8000073
:1095B0004FF6FF73984230D0414B1B68DB072CD528
:1095C000404960230B70330A0B71330C4B712B0A2B
:1095D0000B722B0C4B72230ACE70CD71360E2D0EF2
:1095E000CC720B73230C240E81F8019081F802A039
:1095F0008E718D724B738C730F22B989FFF7A7FDA3
:109600000DE00146484605E02F490220FCF710FE18
:10961000207D0321FEF7F4FD01E0082001E0002891
:1096200045D0024629490120FCF7E2FD3FE0002336
:109630001A461946A088FFF77FFD35E0244BE288E3
:109640009B889A4233D10C2200210DEB0200069137
:1096500007910891FBF776FE02238DF80C3004F198
:109660001203049306A9238A059303A8FDF77EFB42
:10967000012803D017490120FCF7DAFD164CA38816
:10968000ABB16388013B9BB2638083B908990798AB
:10969000FEF774FDA388638009E0002206A9A08874
:1096A00006920792FFF702FA08B1FFF763FA0AB0D1
:1096B000BDE8F087ECD207000CD307002CD30700DD
:1096C00094350020983500207ED30700A6D30700EC
:1096D000AA350020E3D30700403B002062DF70473B
:1096E00069DF7047A2DF7047A0DF704770B5EFF306
:1096F000108572B60D4A9468012394B993600C4B9F
:109700000C49D3F88060314011600A49C3F88010D9
:10971000D3F8841051604FF0FF32C3F884200470F6
:1097200000E0037005B962B6002070BD483B002020
:1097300000E100E0FC06FFBD204B21491A682F2301
:1097400000BF00BF00BF00BF00BF00BF00BF00BF21
:109750008A422FD000BF00BF00BF00BF00BF00BFC4
:1097600000BF00BF00BF00BF00BF00BF00BF00BF01
:1097700000BF00BF00BF00BF00BF00BF00BF00BFF1
:1097800000BF00BF00BF00BF00BF00BF00BF00BFE1
:1097900000BF00BF00BF00BF00BF00BF00BF00BFD1
:1097A00000BF00BF00BF00BF00BF00BF00BF00BFC1
:1097B00000BF00BF013BC3D1704700BF8C2C00200D
:1097C0000024F400F7B50646437C02A80024012BD0
:1097D00000F8014D0CBF0F4627460D46FFF786FFE8
:1097E0000DF10600FCF728FA70B1012303700D4B50
:1097F0004660D3F8043583600B4B9DF80620C560A6
:10980000076144615A7300E004249DF80700FCF7E7
:1098100099F924B9054B4FF48012C3F80021204672
:1098200003B0F0BD00100140483B002000E100E023
:10983000204B21491A68214B00BF00BF00BF00BF69
:1098400000BF00BF00BF00BF8A422FD000BF00BFD3
:1098500000BF00BF00BF00BF00BF00BF00BF00BF10
:1098600000BF00BF00BF00BF00BF00BF00BF00BF00
:1098700000BF00BF00BF00BF00BF00BF00BF00BFF0
:1098800000BF00BF00BF00BF00BF00BF00BF00BFE0
:1098900000BF00BF00BF00BF00BF00BF00BF00BFD0
:1098A00000BF00BF00BF00BF00BF00BF013BC3D16E
:1098B000704700BF8C2C00200024F400A08601001B
:1098C000F8B5404B40491D6843F20807A5F54053E1
:1098D0003D6806465D1B0420FCF7AAFCB54205D294
:1098E0003A490420FCF7A4FC0420F8BD384C39495F
:1098F0000420FCF79DFCD4F8282137490420FCF70C
:1099000077FCD4F83031D4F8382134490420FCF7FE
:1099100065FCD4F83C31D4F8442131490420FCF7EB
:109920005DFC3B68D4F83871C4F87432012F35D12E
:109930002A462C490420FCF75BFCD4F830212A4944
:1099400002F6FF7222F47F6222F00F02AD1A334654
:109950002A460420FCF742FCAE424FF0000305D932
:10996000C4F82871C4F82C3120491DE0C4F828310E
:10997000D4F83031D4F874221D49C4F82C7103F6A0
:10998000FF7323F47F6323F00F0313440420C4F810
:109990007432FCF74DFC04F59E740AE0002315496F
:1099A000C4F82831C4F82C310420FCF741FC04F53C
:1099B00098740C2200212046FBF7C4FC266000208E
:1099C000F8BD00BF1410001008D407002AD4070007
:1099D000483B00205CD4070072D4070089D40700FC
:1099E000B0D40700D7D4070001D5070026D507005B
:1099F00045D5070060D507000649074A074B9B1A63
:109A000003DD043BC858D050FBDCFBF755FFFBF7E8
:109A100025FC000080D70700002C0020202E00200D
:109A2000FEE7FEE7FEE7FEE7FEE7FEE7FEE7FEE70E
:109A3000FEE7FEE78B1802448B4204D013F8010DB9
:109A400002F8010DF8E7704710B5013A52B2002A4A
:109A50000ADB13B250F8234051F823309C4205D85A
:109A6000F3D24FF0FF3010BD002010BD012010BD1B
:109A7000C3F10803DB0070B50133002403A500BF68
:109A80005B1920C940CAAD1920C0184720C940CA77
:109A9000754120C020C940CA754120C020C940CAB4
:109AA000754120C020C940CA754120C020C940CAA4
:109AB000754120C020C940CA754120C020C940CA94
:109AC000754120C06441204670BD00BF0000000009
:109AD000C3F10803DB0070B50133002403A500BF08
:109AE0005B1920C940CAAD1B20C0184720C940CA15
:109AF000B54120C020C940CAB54120C020C940CAD4
:109B0000B54120C020C940CAB54120C020C940CAC3
:109B1000B54120C020C940CAB54120C020C940CAB3
:109B2000B54120C06441B4FA84F0400970BD00BF63
:109B30002DE9F04F08B4F8CA04B451F8042BA3FB84
:109B4000028940F8048B4FF0000AE4FB629A4FF060
:109B5000000BE5FB62AB4FF0000CE6FB62BC4FF084
:109B6000000EE7FB62CE51F8042B4FF00008E3FB38
:109B7000628940F8048BE4FB629AE5FB62ABE6FB8A
:109B800062BCE7FB62CE51F8042B4FF00008E3FB08
:109B9000628940F8048BE4FB629AE5FB62ABE6FB6A
:109BA00062BCE7FB62CE51F8042B4FF00008E3FBE8
:109BB000628940F8048BE4FB629AE5FB62ABE6FB4A
:109BC00062BCE7FB62CE51F8042B4FF00008E3FBC8
:109BD000628940F8048BE4FB629AE5FB62ABE6FB2A
:109BE00062BCE7FB62CE40F8049B40F804AB40F84F
:109BF00004BB40F804CB40F804EB0CBC052B00F090
:109C00001E810C68A0F11400A1F11401A2F114024C
:109C100052F804EB4FF0000550F8046BE4FB6E566D
:109C200052F804EB50F8047BE4FB6E6752F804EB47
:109C300050F8048BE4FB6E7852F804EB50F8049B68
:109C4000E4FB6E8952F804EB50F804ABE4FB6E9A27
:109C5000A0F1140052F8044B51F804EB4FF0000C43
:109C6000E4FB6EC540F804CB51F804EBE4FB6E5600
:109C700040F8045B51F804EBE4FB6E6740F8046BBA
:109C800051F804EBE4FB6E7840F8047B51F804EBE8
:109C9000E4FB6E8940F8048B51F804EBE4FB6E9A08
:109CA000A0E80006062B00F0CA800C68A0F118009E
:109CB000A1F11801A2F1180252F804EB4FF00005CF
:109CC00050F8046BE4FB6E5652F804EB50F8047B3A
:109CD000E4FB6E6752F804EB50F8048BE4FB6E78FB
:109CE00052F804EB50F8049BE4FB6E8952F804EB45
:109CF00050F804ABE4FB6E9A52F804EB50F804BB46
:109D0000E4FB6EABA0F1180052F8044B51F804EBE1
:109D10004FF0000CE4FB6EC540F804CB51F804EBA7
:109D2000E4FB6E5640F8045B51F804EBE4FB6E670D
:109D300040F8046B51F804EBE4FB6E7840F8047BC8
:109D400051F804EBE4FB6E8940F8048B51F804EB06
:109D5000E4FB6E9A40F8049B51F804EBE4FB6EAB15
:109D6000A0E8000C072B6AD008B40C68A0F11C0016
:109D7000A1F11C01A2F11C0252F804EB4FF0000506
:109D800050F8046BE4FB6E5652F804EB50F8047B79
:109D9000E4FB6E6752F804EB50F8048BE4FB6E783A
:109DA00052F804EB50F8049BE4FB6E8952F804EB84
:109DB00050F804ABE4FB6E9A52F804EB50F804BB85
:109DC000E4FB6EAB52F804EB50F804CBE4FB6EBC42
:109DD000A0F11C0052F8044B51F804EB4FF00003C3
:109DE000E4FB6E3540F8043B51F804EBE4FB6E569F
:109DF00040F8045B51F804EBE4FB6E6740F8046B39
:109E000051F804EBE4FB6E7840F8047B51F804EB66
:109E1000E4FB6E8940F8048B51F804EBE4FB6E9A86
:109E200040F8049B51F804EBE4FB6EAB40F804AB44
:109E300051F804EBE4FB6EBCA0E8001808BCBDE8D8
:109E4000F08F2DE9F04FB1E8005E06B4AAFB0912CD
:109E50004FF00003EBFB69234FF00004ECFB693487
:109E60004FF00005EEFB69454FF00006EBFB6A631F
:109E7000ECFB6A344918524176415B41A9FB0978F1
:109E80004FF0000949F1000918EB0108A0E8800132
:109E9000AAFB0A78574158EB0608A0E88001EEFBC0
:109EA0006A454FF0000A4AF1000A4FF00001ECFB4E
:109EB0006B14EEFB6B454FF00002EEFB6C255FEA86
:109EC00059094941644152416D4149F10009EBFB97
:109ED0006B3A1AEB010AA0E80804ACFB0C6A664175
:109EE0005AEB020AA0E84004AEFB0E6A6E415AEB40
:109EF000090AA0E8400406BC052A00F0E680A0F1AB
:109F00001400A1F11401B1E8E043A5FB0E344FF0B9
:109F10000005E6FB6E454FF00006E7FB6E564FF07E
:109F20000007E8FB6E674FF00008E9FB6E784FF022
:109F30000009DB1864416D4176417F4158EB080808
:109F400059F1000950F804CB13EB0C0350F804CB83
:109F500054EB0C0450F804CB55EB0C0550F804CB33
:109F600056EB0C0650F804CB57EB0C0758F10008E1
:109F700059F10009A0F11400EEFB0E89A0E8F803E6
:109F8000062A00F0A280A0F11800A1F11801B1E8A2
:109F9000E047A5FB0E344FF00005E6FB6E454FF0A1
:109FA0000006E7FB6E564FF00007E8FB6E674FF0C8
:109FB0000008E9FB6E784FF00009EAFB6E894FF06C
:109FC000000ADB1864416D4176417F4158EB080877
:109FD00059EB09095AF1000A50F804CB13EB0C03B2
:109FE00050F804CB54EB0C0450F804CB55EB0C05A3
:109FF00050F804CB56EB0C0650F804CB57EB0C078B
:10A0000050F804CB58EB0C0859F100095AF1000A3A
:10A01000A0F11800EEFB0E9AA0E8F807072A54D02A
:10A02000A0F11C00A1F11C01B1E8E04FA5FB0E342A
:10A030004FF00005E6FB6E454FF00006E7FB6E565D
:10A040004FF00007E8FB6E674FF00008E9FB6E7801
:10A050004FF00009EAFB6E894FF0000AEBFB6E9AA5
:10A060004FF0000BDB1864416D4176417F4158EBA6
:10A07000080859EB09095AEB0A0A5BF1000B50F882
:10A0800004CB13EB0C0350F804CB54EB0C0450F846
:10A0900004CB55EB0C0550F804CB56EB0C0650F8EE
:10A0A00004CB57EB0C0750F804CB58EB0C0850F8D6
:10A0B00004CB59EB0C095AF1000A5BF1000BA0F13B
:10A0C0001C00EEFB0EABA0E8F80FBDE8F08F0022FD
:10A0D00010B5144653B28B4204DA1BB2013240F879
:10A0E0002340F7E710BD2DE9F047B3F90250894648
:10A0F0000824E91D1F3591FBF4F42021944295FBBF
:10A10000F1F54FFA85F828BF14461F46414606462A
:10A11000FFF7DDFF22464946FFF78CFCB7F9023016
:10A12000E4009C4220D9E41A06EB85010023C4F127
:10A1300020008E4208D251F8042D22FA04F52B4358
:10A140000B6002FA00F3F4E7243742463146384602
:10A15000FFF77AFC012807D043463A46314630469D
:10A16000BDE8F047FFF7B4BCBDE8F08710B50023A9
:10A170001A465CB28C4204DA50F824400133224380
:10A18000F7E7B2FA82F0400910BD4A11012350F8F6
:10A19000220001F01F0103FA01F108407047013964
:10A1A00049B2002909DA013149B2A1B101F1804374
:10A1B000013B50F82330002004E050F82130002B00
:10A1C000EDD0F0E713B15B080130FBE7013900EB9C
:10A1D000411108B270470846704730B5002463B299
:10A1E000934206DA1BB2013451F8235040F8235051
:10A1F000F5E730BDF0B5082289B00C460646FFF7FA
:10A20000ECFFCB6A03930B6B04934B6B05938B6B47
:10A210000693CB6B0793002708236A466946684676
:10A22000029701970097FFF723FC082305466A462B
:10A2300031463046FFF71CFC236B0393636B04939A
:10A24000A36B0593E36B0693054408236A466946AE
:10A2500068460797FFF70CFC082305446A46314619
:10A260003046FFF705FC236A0093636A0193A36AF3
:10A270000293A36B0693E36B0793054408236A4696
:10A2800031463046059704970397FFF7F1FB636A61
:10A290000093A36A0193E36AA26B0293636B039337
:10A2A00004920693E26B236A0592054407936A467B
:10A2B000082331463046FFF7DBFBE36A0093236B4C
:10A2C0000193636B0293236A0693A36A0793054481
:10A2D00008236A4631463046059704970397FFF7EF
:10A2E000F7FB236B0093636B0193A36B0293E36B08
:10A2F0000393636A0693E36A07932D1A08236A4659
:10A300003146304605970497FFF7E2FB636B0093F5
:10A31000A36B0193E36B0293236A0393636A049331
:10A32000A36A0593236B07932D1A08236A463146C7
:10A3300030460697FFF7CCFBA36B0093E36B0193CA
:10A34000636A0393A36A0493E36A0593636B0793B9
:10A350002D1A08236A463146304602970697FFF7C2
:10A36000B7FB2D1A16D508230D4A31463046FFF7A4
:10A370007FFB2D18F7D410E0082231460848FFF77C
:10A3800063FB012809D00823054A31463046FFF710
:10A390009FFB2D1A002DEFD0F5E709B0F0BD00BFEF
:10A3A00088D5070070B5013A52B20023002A09DBB4
:10A3B00015B2013A50F8256051F825407440234306
:10A3C00052B2F3E7B3FA83F0400970BD00EB8101AC
:10A3D0000023884206D251F8042D43EA52030B6051
:10A3E000D307F6E7704770B5036813F0010506461A
:10A3F000144605D013460A460146FFF739FB0546C9
:10A4000021463046FFF7E2FF45B104F18042013AB0
:10A4100056F8223043F0004346F8223070BD70B544
:10A420009DF910401E4623460546FFF721FB30B933
:10A43000224629463046FFF707FB012807D023466E
:10A44000324629462846BDE87040FFF741BB70BD43
:10A4500070B59DF910401E4623460546FFF738FBB0
:10A4600038B12346324629462846BDE87040FFF7FA
:10A47000FFBA70BD2DE9F04FA5B01C46039114AB97
:10A4800021468046104617460293FFF788FE494B47
:10A49000C0EB841005B22B40002BBEBF03F1FF338D
:10A4A00063F01F030133202695FBF6F676B20FFA10
:10A4B00083F904A83146FFF70AFEB9F1000F30B264
:10A4C00014DD04AB002203EB8000C9F12006134623
:10A4D000A34212D257F8231001FA09FE4EEA0202F3
:10A4E00040F8232021FA06F20133F1E704AB2246BB
:10A4F000394603EB8000FFF770FE27B27B00019323
:10A5000004AB03EB870704F1FF3924AB012603EB0F
:10A510008909002D42DB24AB0022C6F101009646DA
:10A5200003EB860A03EB8000019B51B299421BDAD0
:10A530000FFA81FC5AF8883C53F82CB024AB03EB9B
:10A54000810151F8803CC3EB0B03CEEB03039B4529
:10A5500004D034BF4FF0010E4FF0000E50F8881CAD
:10A56000013241F82C30DFE7CEEB06035E42214694
:10A5700004A85E41FFF72AFF24AB03EB84032146C6
:10A5800053F8802C59F8803C384643EAC273013DA9
:10A5900049F8803C2DB2FFF719FFBAE724AB03EB73
:10A5A0008606224656F8881C4046FFF716FE25B060
:10A5B000BDE8F08F1F00008070B590B005469DF992
:10A5C00050401E4668462346FFF7B2FA23463246FD
:10A5D00069462846FFF74EFF10B070BD30B51C46E7
:10A5E00091B0054693F900306846FFF7A1FAD4F818
:10A5F000AC3069462846984711B030BD30B5144696
:10A6000091B0054692F900206846FFF71AFCD4F88D
:10A61000AC3069462846984711B030BD2DE9F0416D
:10A6200015468AB0044688462022002102A8FAF77F
:10A6300089FE2E1D95F9007003232A4641462046C7
:10A640000293FFF7DBFF334602AA2146204600971C
:10A65000FFF7FEFE2B46424621462046FFF7BEFF8F
:10A660000097334605F1840221462046FFF7D7FEC6
:10A670000AB0BDE8F0812DE9F04793F9006092B08F
:10A68000044689461046314615469846FFF76EFD4A
:10A69000002840F098804246494602A8FFF7AEFFE6
:10A6A000434602AA21460AA8FFF798FF02A90846D6
:10A6B0004246FFF7A3FF43462A4649464846FFF76E
:10A6C0008DFF08F10407424629462846FFF796FF0A
:10A6D0003B462A46214620460096FFF7A0FE3B4611
:10A6E0002A46294628460096FFF799FE3B462A4609
:10A6F000214628460096FFF7ABFE43462A462146F0
:10A700002046FFF76BFF3B4622462146284600962F
:10A71000FFF785FE3B4600962A4621462046FFF776
:10A720007EFE2368DB0714D533463A462146204691
:10A73000FFF79EF9314682462046FFF747FE06F1B5
:10A740008043013B54F8230040EACA7044F82300D8
:10A7500003E031462046FFF739FE424621462846AF
:10A76000FFF74CFF3B460AAA294628460096FFF70A
:10A770006FFE3B460AAA294628460096FFF768FE68
:10A780000AA908463B462A460096FFF761FE434663
:10A790000AAA21462046FFF721FF02AA3B4610469F
:10A7A00021460096FFF754FE324629462046FFF721
:10A7B00014FD324649462846FFF70FFD324602A9EE
:10A7C0004846FFF70AFD12B0BDE8F0872DE9F043D7
:10A7D0008BB01446129D15F9046B00961F468046F7
:10A7E00089462B460246214602A8FFF731FE02A900
:10A7F000129A0846FFF702FF129B02AA4146404602
:10A80000FFF7ECFE129B02AA21462046FFF7E6FE68
:10A810002B464A46394638460096FFF719FE129AEB
:10A82000394602A8FFF7EAFE02A92B46424608462F
:10A830000096FFF70DFE02A92B4622460846009619
:10A84000FFF706FE2B464246214620460096FFF7BC
:10A85000FFFD129B224649464846FFF7BFFE2B46A6
:10A8600002AA414620460096FFF7F2FD129B2246BF
:10A8700039463846FFF7B2FE2B464A463946384637
:10A880000096FFF7E5FD324602A92046FFF7A5FC3A
:10A890000BB0BDE8F083F0B5154689B01C460746FD
:10A8A0000E461A4629466846FFF7A8FE23466A4622
:10A8B00039463846FFF792FE23462A4669466846DF
:10A8C000FFF78CFE23466A4631463046FFF786FE88
:10A8D00009B0F0BDF0B50F46A1B00646194638469E
:10A8E00015461C46FFF742FC20B121463046FFF7D3
:10A8F000EEFB74E0224639466846FFF76EFC2246BE
:10A90000294608A8FFF769FC214610A8FFF7DFFBDE
:10A910000123214618A81093FFF7D9FB224608A966
:10A920006846FFF791F8002854D0009BDA0704D45A
:10A9300021466846FFF74AFD26E0089BDB0704D462
:10A94000214608A8FFF742FD3EE0002823461FDD10
:10A9500008AA69466846FFF7BBF821466846FFF734
:10A9600035FD224618A910A8FFF76EF8002805DA71
:10A9700010A923462A460846FFF77AF810A923466D
:10A9800018AA0846FFF7A4F82246294610A81EE098
:10A9900008A96A460846FFF79BF8214608A8FFF772
:10A9A00015FD224610A918A8FFF74EF8002805DA71
:10A9B00018A923462A460846FFF75AF818A923463D
:10A9C00010AA0846FFF784F82246294618A8FFF780
:10A9D0000AFDA3E7224610A93046FFF7FEFB21B08F
:10A9E000F0BD00000048704784D507002DE9F04F06
:10A9F000EDB01F46DDF8D8810590B8F9026098F9EE
:10AA0000005020231F3696FBF3F676B206F1FF398D
:10AA100024AB002443F829406CAB03EB89034CA81A
:10AA20008A469346394698F9012043F8804C43F80A
:10AA3000604CFEF7FFFF98F9012054A8B918FEF703
:10AA4000F9FF29464CA8FFF791FB0746002840F084
:10AA50002781294654A8FFF789FB0390002840F07E
:10AA6000218108F1240332464CA918460293FEF7CF
:10AA7000EBFF012840F01881324654A90298FEF7F6
:10AA8000E3FF0128069040F00F811CAC0CAF334669
:10AA9000029A54A92046FFF71DFF039B47F829306F
:10AAA0005A46514638464346FFF71DFB394638465D
:10AAB000029B00962246FFF77FFD0DF5B879029BB9
:10AAC000009622464CA914A8FFF776FD48462A4670
:10AAD0000599FFF782FBAB0009EB030A0793059B7F
