:0200000270008C
:10500000807F002095980700BD980700BF98070093
:10501000C1980700C3980700C5980700000000006A
:10502000000000000000000000000000C79807001A
:10503000C998070000000000CB980700CD98070032
:10504000CF980700CF980700CF980700CF980700A8
:10505000CF980700CF980700CF980700CF98070098
:10506000CF980700CF980700CF980700CF98070088
:10507000CF980700CD760700CF980700CF9807009C
:10508000CF980700C9600700CF980700CF980700A6
:10509000FD610700CF980700117E0700CF98070039
:1050A000CF980700CF980700CF980700CF98070048
:1050B000CF980700CF980700000000000000000014
:1050C000CF980700CF980700CF980700CF98070028
:1050D000CF980700CF980700CF9807000000000086
:1050E00000000000000000000000000000000000C0
:1050F00000000000000000000000000000000000B0
:10510000000000000000000000000000000000009F
:10511000000000000000000000000000000000008F
:1054000010B5054C237833B9044B13B10448AFF3FE
:1054100000800123237010BDFC2D0020000000003F
:1054200064D10700084B10B51BB108490848AFF319
:1054300000800848036803B910BD074B002BFBD060
:10544000BDE81040184700BF00000000002E0020FB
:1054500064D10700E02D002000000000154B002B58
:1054600008BF134B9D46A3F5803A00218B460F469B
:105470001348144A121A00F065F80F4B002B00D0A5
:1054800098470E4B002B00D09847002000210400C5
:105490000D000D48002802D00C48AFF3008000F04A
:1054A0002BF82000290002F0C1FE00F011F800BF27
:1054B00000000800807F00200000000000000000C5
:1054C000FC2D0020E03C0020000000000000000057
:1054D00008B5074B044613B10021AFF30080054B1C
:1054E0001868836A03B19847204600F033F800BF7C
:1054F0000000000060B5070070B50E4B0E4CE41ABA
:10550000A41000251E46A54204D056F82530984721
:105510000135F8E706F018F8084C094BE41AA41016
:1055200000251E46A54204D056F82530984701357F
:10553000F8E770BDD82D0020D82D0020DC2D0020EC
:10554000D82D002002440346934202D003F8011BE9
:10555000FAE77047FEE700BF43681A44426039B17A
:105560000139934204D013F8010B01F8010FF8E759
:1055700001207047084B5A6E013A5A6622B9074912
:105580000A7822F002020A701B6E034A0133042BD0
:1055900008BF00231366704738390020A039002067
:1055A00028DF704729DF704730B5044685B00D46C7
:1055B000102200216846FFF7C5FF237A012B0CD08B
:1055C000022B12D10123A2898DF80030E389ADF8B6
:1055D0000A20D31AADF8083007E000238DF8003018
:1055E00023690293A38AADF80C30636801932368A2
:1055F00029469B686846984705B030BD38B51B4BB7
:105600005A6E1C4682B3196E182202FB01331A7AB5
:10561000012A05D0022A22D19889FFF7C1FF13E0A1
:105620001825D88A9A8A05FB0144121AE168246970
:10563000B2F5806F4FEA80000144B4BF92B24FF4DC
:1056400080622044FFF7AEFF112807D1084A137883
:1056500023F0020343F00403137038BD20B1184651
:105660000921BDE838409FE738BD00BF3839002028
:10567000A039002038B5294A1378014698073FD54C
:10568000274B1C6E1820022900FB04301A4602D05A
:10569000032927D03FE0234B00211970037A012B07
:1056A00002D0022B13D036E0C58A818A4B1BB3F59A
:1056B000806FB4BF9BB24FF480632B4418259BB21C
:1056C00005FB04229942D38225D1002113E083896E
:1056D000028A01338381C38901339BB29A42C38119
:1056E00019D108E00F4A13780133DBB2032B11D92B
:1056F000002313700821FFF757FFFFF73BFF0AE075
:10570000590708D50649496E03F0FB03137011B120
:1057100043F002031370BDE838406FE7A039002062
:1057200038390020182E0020082910B502D000209A
:1057300002F0C6FC03684068BDE8104018472DE938
:10574000F04F374F85B00A230290884601934FF0FF
:10575000000BB946029B03EB0B0AFB6A012B17D027
:1057600005D3022B4CD17E6A4346002421E0BA6A5D
:105770007B6A9A429CBF396A5218013AD31A9845FB
:105780003ED842465146274802F048FC444638E09D
:10579000BC6A7B6A23489C429CBF3A6AA418013CBD
:1057A000E41A444528BF44462246514602F036FCDE
:1057B00027E0D9F82850D9F81C000393B5429CBFC4
:1057C000396A6D18013DAA1BD9F82050AD1B9D42C6
:1057D00028BF1D46954228BF15462A4651463044EB
:1057E00005F0F5F9D9F82020039B2E44964208BF16
:1057F00000265B1B2C44AA44C9F82460D9D100E0E0
:105800000024A344C4EB08081CB9019B013B01938D
:1058100002D0B8F1000F9DD1012005B0BDE8F08F96
:10582000C0340020D83400202DE9F04FC5B01C460C
:105830004F9F519B9046FE18002940F08280002C1B
:105840007CD12546404605F007FAC22828BFC22071
:1058500004AB814602464146181905F0B8F909EB38
:10586000040000244FF0200904AB291801F1310B8A
:1058700018449B444319984202D000F8019BFAE770
:1058800003F1330003F103080BF101020090A6427B
:1058900008D808F8039C08F8029C08F8019C02F854
:1058A000019C32E0A7428ABF4E98509810F804A09D
:1058B00008F8019C98BFC7EB040E039398BF10F83B
:1058C0000EA002924FEA2A1E5FFA8EF0BEF1090F77
:1058D000D4BF3030373008F8030C0AF00F00092825
:1058E00094BF3030373008F8020C019105F044F9CC
:1058F0005044029A4078039B019910F0970F08BF1B
:105900004FF02E0A02F801AC0134009808F10308A8
:10591000404502F10102BAD10D228BF810200A2273
:105920008BF81120433183F8309004A8FFF707FF6C
:10593000B8B1B4424FF0000096D312E00D460846CD
:1059400090E75CB90B68094A4FF4807104A805F030
:1059500049F9002805DB04460A2573E70A250020DB
:1059600080E7204645B0BDE8F08F00BF88B607004D
:10597000F0B5C7B016461D464C9F002900F08B803D
:105980000B684F4A4FF4807106A805F02BF90028E8
:1059900001DA002092E00446062F71D8DFE807F014
:1059A00005141E2A38485A000024304605F054F9E0
:1059B0000319FF2B054660D806AB0246314618197D
:1059C00005F005F959E0002406A82B683246C4F515
:1059D0008071204405F006F94EE000246B680093C6
:1059E00006A82B683246C4F58071204405F0FAF809
:1059F00042E00024AB6801936B68009306A82B6813
:105A00003246C4F58071204405F0ECF834E00024FF
:105A1000EB680293AB6801936B68009306A82B6850
:105A20003246C4F58071204405F0DCF824E00024FF
:105A30002B690393EB680293AB6801936B68009347
:105A400006A82B683246C4F58071204405F0CAF8D8
:105A500012E000246B6904932B690393EB680293B3
:105A6000AB6801936B68009306A82B683246C4F5B7
:105A70008071204405F0B6F80546002D01DA88E76C
:105A800000252919B1F5807F83D800E0002106A800
:105A9000FFF755FE12E0062FF8D801A353F827F0C0
:105AA000A9590700C7590700DB590700F359070038
:105AB0000F5A07002F5A0700535A070047B0F0BD8E
:105AC00088B6070010B50B684C689B68036000221D
:105AD00043608260C4609A782244026193F9034073
:105AE000224442614A68026101F10C0242615B7822
:105AF00003F0C003802B04BF0431016110BD2DE908
:105B0000F34704460F464FF000084FF00009002508
:105B1000A3680BB3236801220DF1070120469847C3
:105B20000646C8B1A3689DF807A0013B2A46A360BA
:105B30000AF07F00002105F0FBFC1AF0800F48EA14
:105B4000000849EA010905F1070502D0462DDFD119
:105B500002E0C7E9008900E00026304602B0BDE857
:105B6000F0872DE9F34183680446884663B30368F0
:105B700001220DF107019847074628B3A3689DF855
:105B80000750013B2A06A3601BD505F07F050726B9
:105B9000A368CBB1236801220DF107012046984785
:105BA00090B1A3689DF80720013BA36002F07F033A
:105BB000B3401D43130606F1070602D5232EE7D195
:105BC00002E0C8F8005000E00027384602B0BDE807
:105BD000F08173B50D4601A90446FFF7C2FF0646E2
:105BE00008B900260AE094E80F0085E80F00019943
:105BF0008A42F6D3A960A3685B1AA360304602B05C
:105C000070BD30B5044685B0154699B90268114B90
:105C10009A420FD0102D07D9102269462046FFF76F
:105C2000F0FFA8B1103DF5E72A4669462046FFF788
:105C3000E8FF0DE0A3689D4201D9002008E0236839
:105C40002A46204698470028F7D0A3685D1BA56028
:105C500005B030BD5955070013B5044605291ED8B7
:105C6000DFE801F0070F111D1D1B9DF90430002B0B
:105C700016DA012201A92046FFF7C3FF0028F4D15C
:105C80000EE0082204E001A9FFF76BFF40B1019A82
:105C900000212046FFF7B5FF02E00422F8E70020CC
:105CA00002B010BD2DE9F04357687B7813F0C00CAB
:105CB00089B006468E46144603D0BCF1400F66D02C
:105CC000B1E003F00F025A4903F03003102B51F8F2
:105CD00022500BD005D8002B40F0A5802269394610
:105CE00009E0202B09D0302B3DD09CE063690122D4
:105CF0001A7022696168A84796E0BEF1020FD4F8D5
:105D0000148023D1042A21D804A9FFF762FF0028B8
:105D100000F08980069B93B1616898F800304A7959
:105D20009A420CD90879226900FB032204A8A847EB
:105D300030B198F80030013388F80030EAE70120EC
:105D4000059B7360069B002B6ED06CE098F80030CA
:105D50007A799A4267D922693979581C88F8000003
:105D600001FB032210E0636939781970072A0AD110
:105D7000636820691A796146FFF7E4FB636821696B
:105D8000986801F0D4FD226961683046B3E717696D
:105D90003B6807F1040913B9FFF75EFF44E00229ED
:105DA00011D104A9FFF715FF00283CD03B686168BA
:105DB0004A4604A89847002835D0069B002BF5D109
:105DC000059B736030E001291AD008D305292AD138
:105DD00004220DEB0201FFF714FF042515E0002556
:105DE0000DF1040801350B2D1DD00122414630462E
:105DF000FFF707FFB8B118F9013B002BF2DB05E014
:105E0000082201A9FFF7FDFE082568B1094B04939C
:105E100001AB05930023069507933B6861684A46EA
:105E200004A8984700E0002009B0BDE8F08300BF57
:105E300064B507005955070010B542681378002B68
:105E400040D002F10C034360137B5BB901684160F1
:105E500083608A78C4682244026191F903100A447D
:105E600042612FE05178137901F03004302C0AD1CF
:105E7000547B04F03004302C05D1917803695B1A0F
:105E8000036100230CE001F0F004202C03D15179D0
:105E900013FB01F304E001F0C001802908BF0423D3
:105EA000517811F0300F02BF816801318160917B20
:105EB0000B4401690B44036192F90F2013444361C1
:105EC000012010BD184610BD2DE9F04F0022CBB0C7
:105ED0000C468D5CE37843EA0563657843EA054345
:105EE000A57843EA05230AAD0434AB500432402AB6
:105EF000EFD12B4610269D6B19685A684FEAF5447E
:105F000084EA754484EA95255C6A21446C184FEA5A
:105F1000B24181EAF21181EAD20201362244402ED6
:105F20001A6403F10403E6D1036D0193436D0293F8
:105F3000836D0393C36D0493036E0593436E0693C1
:105F4000836E0793C36E08939B46079FDDF818E0A6
:105F5000059BDDF81080039D029E0199DFF8AC904F
:105F60004FF0000C4FEAF32282EAB31282EA736A1E
:105F70000AAA52F82C40224659F82C4014440AEB45
:105F8000040203EA0E0A27EA030484EA0A0414441A
:105F90005C444FEA713A85EA060B0BEA010B8AEA88
:105FA000B10A06EA05028BEA02028AEAB15A0CF14A
:105FB000010C9244BCF1400F04EB080209925444D6
:105FC000A846BB4606D0774635469E460E46099BF8
:105FD0002146C7E7019A22440265029A0A444265B3
:105FE000039A099932448265049A2A44C265059A43
:105FF0000A440266069A1A44079B42667344836603
:10600000089B3B44C3664BB0BDE8F08F88B50700E2
:1060100038B50C4C616E0429054610D0226E8B18E1
:10602000032B88BF043B18220131616602FB034445
:1060300000212046FFF786FA2C60012038BD0020A1
:1060400038BD00BF38390020054A137813F0060F19
:1060500004D143F002031370FFF7D0BA704700BFBA
:10606000A039002030B512B11368DB4301E04FF0D6
:10607000FF33094D014481420CD010F8012B5340ED
:10608000082213F0010418BF2C46013A84EA530396
:10609000F7D1F0E7D84330BD2083B8ED10B5084BF9
:1060A0009A685AB150B9EFF3108272B605491C686C
:1060B0000C605C684C60986002B962B6002010BD4C
:1060C000343B002000E100E02DE9F0412649274B58
:1060D0000022C1F84021C1F84421C1F84821C1F88B
:1060E0004C21C1F80021C1F804211B68002B38D0D5
:1060F0001F48D1F804150468DFF888800C1B24F0D1
:106100007F44154617461A68A24214D8A41A1544AB
:106110001A7CDE6962B1D8F800201F742AB199692F
:106120005869904720B101F0CBFF5A6998699047B0
:106130000EB13346E7E70F4B0F4A197813788B42BD
:1061400005D10133DBB2022B08BF00231370127894
:106150000A4B03EB82034FF480125D60084BC3F8D7
:106160000021BDE8F08100BF00100140C4370020CD
:10617000CC370020C8370020C9370020182E002057
:1061800000E100E04837002010B50A494A788C78D1
:10619000531CDBB29C4208BF00230C789C421FBFFB
:1061A0000370486802EB420200EBC20008BF002007
:1061B00010BD00BF403B002038B50C4B0C4C4FF4D9
:1061C0000032C3F8802001254FF48033C4F84833EF
:1061D000C4F80833656003F09DF9064BA560002400
:1061E0001C6003F097F9044B1C7338BD00E100E01C
:1061F00000100140CC370020182E00202DE9F04F70
:10620000AF4AB04813780078AF49B04ED1F800805B
:1062100085B09842009111D00133DBB2022B08BF48
:10622000002313701378009A06EB83035C6808EB75
:10623000040323F07F431360012301E0002423467D
:10624000A348A44D0278296896F80D900291002782
:106250000190824601994978914232D002EB420E78
:10626000DAF804109AF802B001EBCE0C013211F802
:106270003E10D2B2934508BF0022022905D003295F
:10628000E8D129684FF0000E0DE0D5F800E0DCF809
:1062900004C07146F3460029DCD08C4500F029810A
:1062A0008B46C969F7E731B14FF0000008744FF031
:1062B000010EC969F7E7BEF1000FCBD08548016038
:1062C000C8E70FB186F80D90824D23B100231F4619
:1062D000AE469C461AE02F68029ABF1A18BF0127E3
:1062E0001CE0D1F80C90C1F800C0A41A1744CA6988
:1062F000CEF80020B9F1000F08D008EB070222F019
:106300007F42CB614A60C1F808900B46296821B1F1
:106310000A68A242E5D9141B0C6001272A68029280
:10632000DFF8ACE1727BDFF8AC8103924FF0000C38
:106330004FF0010B13B11A46DB6928E0019A01996D
:106340001278497891426DD002EB42099EF802A082
:10635000DEF804400132D2B292458EF8002008BF28
:106360008EF8003014F83920012A04EBC901E5D178
:106370004A68147C002CE1D188685060C86890603D
:106380000869D06049699161039901B1546000992D
:10639000D2F804A009685048D2F80890C1EB0A046A
:1063A00024F07F44844202D84C4414600AE0CAEBD3
:1063B000010121F07F4149453ABFC1EB090111605C
:1063C000C2F800C02968C2F804C0C2F808C082F848
:1063D00010B0C2F81CC041B11468D1F800904C450F
:1063E00006D8C4EB09040C60D161C8F80020A1E70D
:1063F0008A46D1F80090A14509D2C9EB0404D1F82E
:106400001C908A46B9F1000F07D04946F1E7C4EB6A
:106410000909C1F80090894651461460C2F81C90E1
:10642000CA6187E72B68029A9A4201D1002F5BD09C
:10643000002B57D0D3F800A0284D009BD5F8048539
:106440001C68337BC4EB080727F07F470337A3B9E9
:10645000234A4FF480334FF400314FF00109C5F85F
:106460004433C5F80433C2F880111160C5F80090B8
:1064700003F050F8154B83F80C90BA452CBF04EB91
:106480000A03E31923F07F44C5F84045D5F80435E5
:10649000124AC8EB030323F07F43C8EB0404033321
:1064A00024F07F44A3421FD9D2F80435C2F8403506
:1064B00003F030F80A4B4FF40032C3F8002113E028
:1064C000C8370020C9370020CC370020182E002004
:1064D000403B0020C4370020FEFF7F000010014039
:1064E00000E100E0FFF768FE0023737305B0BDE82C
:1064F000F08F59450ED1DEF81CE0C5F800E0BEF182
:10650000000F07D10B4F0120B86000980127C0F899
:1065100000E0B946D1F81CE0D1F800C0CBF81CE08F
:10652000BEF1000F3FF496AEDEF800106144CEF8E5
:1065300000108FE6001001402DE9F743064602A83F
:10654000002400F8014D0D46174602F0BDFF234B15
:10655000234A18781178CBB2224909888B4238BF78
:106560000133C0B238BFDCB2A04209D0147813782E
:10657000DBB2994286BF0133DBB20023137001E026
:106580004FF6FF749DF80700FFF788FD4FF6FF7385
:106590009C421FD0DFF85890D9F800304FEAC40869
:1065A00003EB080243F834708EB185B10E4B1888A6
:1065B0000E4B1B682A4604FB0030314604F007FBF3
:1065C000D9F8003098440020A8F8045003E00020D7
:1065D000908000E0042003B0BDE8F083293900205A
:1065E000283900202A390020123B002024390020BD
:1065F000D037002007B5084B1B88072B8DE8030018
:1066000005D9064A08216846FFF796FF00E00920F1
:1066100003B05DF804FB00BF123B002029570700C0
:10662000F8B5124C124D264622782B789A421CD08F
:1066300023781048104A078812681048DBB219B254
:1066400002EBC10E006852F83120BEF8041003FBC3
:10665000070090470A4A23781288DBB29A4286BF25
:106660000133DBB200233370DEE7F8BD29390020A7
:1066700028390020123B0020D03700202439002088
:106680002A39002013B50093034B5C6913460A4670
:106690000021A04702B010BD183B002007B58DE8CF
:1066A0000C0002236A46FFF7EDFF03B05DF804FB20
:1066B00013B502AC012344F8042D2246FFF7E2FF94
:1066C00002B010BD00231A46DCE700BF2DE9F74FEA
:1066D0000778012F05460E4601D0062F07D12B79EA
:1066E000012B02D0022B40F00384BE4A1370BD4B35
:1066F0001C78012C03D0022C00F06781F3E37B1E91
:10670000052B00F25C81DFE813F006002B00580037
:1067100022005A014D01B4490320FFF7D3FFAB68B3
:10672000002B2FD0B3F5807F00F2AD81AF4903205D
:10673000FFF7C8FF0024AE4BAE481C702022214654
:10674000FEF700FFAC4B1C63AA689A63E2E1AB4919
:106750000320FFF7B7FFA84BDA6B72601B6C29E0D0
:10676000A54FA7490320FFF7ADFFAA68F86BBB6BE5
:106770001118994209D970603B6CA249B36003209B
:10678000FFF7A0FF032400F096BC384469685C3032
:1067900004F01DFAAB68FA6B02EB0308C7F83C8003
:1067A000A968686807F14002FFF75CFC3864C6F826
:1067B00004803B6CB36000F07EBC8F4F9249032095
:1067C000FFF780FFFA6BBB6B9A4201D08F4960E103
:1067D000874E8F490320FFF775FF33783546002B2E
:1067E00040F07A83398F07F15C0002F050FE89494E
:1067F0000320FFF767FF01F09BFC012840F04E8467
:1068000096F87830002B00F0C78083490320FFF70B
:1068100059FF96F87E30002B00F040847F4B93E8C0
:1068200000069846B9F1000F00F04384BAF1000F5A
:1068300000F03F8496F8DF3013B196F8E03093BB58
:1068400095F888206A4B002A00F03384D3F88C2016
:10685000342A40F02E8413F8901F002243F20C00DB
:106860008A4280F22684068853F804EFB64500F089
:1068700043830132F4E795F88030002B00F019844F
:10688000BE68D5F884206649DFF864B1334603203A
:10689000FFF704FF95F8A530002B00F04683023B7C
:1068A000012B40F2488395F8EC30514E002B40F01C
:1068B000008406F59873C8F800305A49DFF85CB1D7
:1068C00020230320C8F80430FFF7FCFE398F564818
:1068D00002F0DDFD4F490320FFF7F4FE534903208A
:1068E000FFF7F0FE1FFA8AF1484602F0D0FD494951
:1068F0000320FFF7E7FED8F80430202B40F0D983BF
:106900005146484602F07EFE002840F0D28306F54C
:10691000A87796F8ED2006F1EE01384604F057F915
:1069200043490320FFF7CEFE96F8ED1006F1EE0086
:1069300002F0ADFD37490320FFF7C4FE96F8ED20C5
:106940003C49C6F890710320C6F89421FFF7B0FEC9
:10695000D6F89431402B40F0F9829BE80005D6F838
:106960009091B8F1000F00F0F182B9F1000F00F042
:10697000ED8248EA090010F0030740F0E78203F0D7
:1069800081FF4B460090524641462B4803F07EFF64
:10699000002800F0DB82DCE233790BB1274941E2C9
:1069A0002749A1E227490320FFF78CFE124B1A6CFE
:1069B000B260DB6B73604FF4807333607BE322491A
:1069C0000320FFF77FFE022475E37B1E052B00F2F8
:1069D0008582DFE813F03B00A100B9018E0183023C
:1069E000750200BF642C0020D0B60700F1B6070086
:1069F000282E0020A83B0020703B00200EB7070087
:106A000028B7070048B707007BB707009DB7070006
:106A1000C0B70700DEB70700E7B70700683B0020F4
:106A200026B807004BB80700CC3B002061B8070030
:106A300079B807008BB8070090B6070040B9070087
:106A400062B9070092B90700C2B90700AE49032036
:106A5000FFF738FEA96800293FF494AEC1F30B0399
:106A600053B1AA4BAA4A5B6DD2F898210B449342CA
:106A700002D0A849012083E6B1F5805F05D9A64977
:106A80000320FFF71FFE042415E3A14E337823B93A
:106A9000A2490320FFF716FE2CE29C4CD6F8983151
:106AA000626D8818984203D99D4802F0E3FC21E208
:106AB0009C490320FFF706FEE36CA364AB686364A4
:106AC00096F89C31606D2065013303F0030386F86E
:106AD0009C310023A6F89E31D6F8A0312063013303
:106AE000C6F8A031904BA9681B68904A01F6FF7167
:106AF000090B184401F038FF30B1D6F8A0318C49A9
:106B0000013BC6F8A031EFE1A36C226D616C8948AE
:106B100002F0B0FC3C46CEE27C4B7D4C1A6D7260BC
:106B20009A6CB26022781F46002A00F0E381A968BF
:106B3000B1F5807FA7D8D3F850805A6D5B6C01EB1C
:106B40000800821A9A4201D97B4918E6686807F161
:106B50004802FFF787FAB864AB68B4F89E0194F86E
:106B60009C1143443B657360BB6CB360AA68831897
:106B7000FF2B04F5D2780CD800EB01204044696863
:106B800004F025F8B4F89E31AA681344A4F89E31A5
:106B900063E0C0F580731FFA83F900EB01204A46D9
:106BA0006968404404F013F8AB68B4F89E21C9EB5F
:106BB0000303AB606B684B446B605B4B396B1B68CA
:106BC0004A4401EB0309D4F8A03194F89C1192B225
:106BD000A4F89E2101330332C4F8A0319210534B24
:106BE00008EB0121484601F079FFB4F89E2150B925
:106BF0004B4652490320FFF751FD3A6BB4F89E31E2
:106C000013443B6310E0D4F8A0314D49013BC4F874
:106C1000A03103204B46FFF741FDFB6CBB647B6D4D
:106C20003B657360FB6CB36094F89C01AA68DFF865
:106C3000E090013000F00300002384F89C01A4F8E8
:106C40009E3152B1696808EB002003F0C0FFB9F82B
:106C50009E31AA681344A9F89E31B4F89E21DFF84A
:106C6000B090002A00F03881796D3B6B786C274D2D
:106C7000511A19448142C0F02F812B490F6899F8AD
:106C80009C111F44D9F8A03103320133C9F8A03157
:106C90009210264B08EB0121384601F01FFFB9F88E
:106CA0009E2150B93B4625490320FFF7F7FC2A6B8C
:106CB000B9F89E3113442B6310E0D9F8A031204974
:106CC000013BC9F8A03103203B46FFF7E7FCEB6C22
:106CD000AB646B6D2B657360EB6CB36094F89C31A7
:106CE000013303F0030384F89C310023A4F89E31A0
:106CF000F2E014490320FFF7E5FC044B1A6D7260C3
:106D00009B6CB360E8E000BFE4B90700703B002073
:106D1000282E0020FDB9070046BA070072BA070006
:106D2000B2BA070013BB0700CC3C002071800700FB
:106D30002DBB07004CBB07008FBB0700AEBB070095
:106D4000CEBB070001BC0700A64DA7490320FFF7F3
:106D5000B9FC2B6D696D6A6C5B1A9A4204D0A34929
:106D60000320FFF79BFCC5E00320A149FFF7AAFC25
:106D70002B6D6B650020AB6C6864EB6401F062FF07
:106D8000002840F08D819B4E2A6DD6F898319A42AA
:106D900040F0A280D6F8A02197490320FFF788FC95
:106DA000D6F8A031DFF84C8213B1FFF739FCF7E7D2
:106DB00092490320FFF786FC98F8BD90B9F1030FC4
:106DC0001ED18F4FD8F8981108F598733B608D4B02
:106DD0004FF0200A1868C7F804A002F013FC5246CE
:106DE000002808F1BF0138680CBF01240A2403F011
:106DF000DFFE30B184494846FFF764FC052400E01B
:106E00000A246B692BB98149814F0320FFF75AFC93
:106E10000CE0012B05D17F497F4F0320FFF752FC87
:106E200004E07E490320FFF74DFC39E1012C30D10D
:106E30007B490320FFF746FC96F8A530032B10D8BA
:106E4000DFE803F002040609012202E0A52203E0C4
:106E5000AA22BA6006E0AC22BA60D6F8A8206A631B
:106E600000E00A2496F8DF201AB1624A92F8E02086
:106E700052B933B1023B012B06D8D6F88430EB600F
:106E800002E0D6F88430AB60AB6C7B60D6F898310A
:106E900002E00023BB607B603B6020220021614850
:106EA000FEF750FBB222FF215F48FEF74BFB0023A9
:106EB0005E482B6301F0C6FE002818BF0A24FAE0E2
:106EC0005B490320FFF7FEFB464B9A6CB2601B6DDB
:106ED00073604FF4805333600124ECE05549032084
:106EE000FFF7F0FBE7E054490320FFF7EBFBD5E0A9
:106EF0000724E0E00824DEE095F8A530032B20D835
:106F000001A252F823F000BF77680700276F07003F
:106F1000196F0700196F070095F88030002B00F0FB
:106F2000C880FE68ADE40026ABE4DBF884309E4206
:106F300000F2BF80B7E4DBF884309E4280F0B98075
:106F4000B1E43E490320FFF7BDFBB2E005243C4914
:106F5000C5E73C490320FFF7B5FB96F8A530C6F816
:106F60009871032BEDD8DFE803F0021C0B2795F88E
:106F7000B420204B002A00F09C80D3F8B82018E001
:106F800095F8AC201B4B002A00F09380D3F8B0207A
:106F9000C3F898212C4BC3F5FC239A4256D90424FC
:106FA000D5E795F8A620134B002A00F08280D3F88D
:106FB000A820C3F8982149E095F8AC200D4B002A91
:106FC00077D093F8A620002A73D0D3F8A810D3F86E
:106FD000B0208818C3F8980109B90324B7E7002A3C
:106FE000FBD0D7E7703B002017BC070031BC07007F
:106FF0005DBC0700282E002078BC0700C3BC07003A
:10700000683B0020CC3C0020DEBC0700F3BC07003E
:10701000883B002012BD0700943B002031BD0700D3
:107020005EBD0700A83B0020CC3B0020D5800700B8
:1070300091BD0700AEBD0700CDBD070007B8070032
:1070400024B90700EABD0700005007001C4E2022AB
:1070500006F1BF0106F5987003F0B9FDD5F8980167
:107060000028BAD002F08AFB0546002897D1154BBC
:1070700015491A680320FFF71BFB14490320FFF78B
:1070800021FB13490320FFF71DFB03201149FFF7E4
:1070900019FB284601F0D6FD10B903E005240AE0EB
:1070A0000A2408E00C490320FFF70CFB012333708E
:1070B00001E00A244BE7204603B0BDE8F08F00BF93
:1070C000282E0020CC3C0020A5B80700C9B8070036
:1070D000EDB8070005B9070001BE070038B5024644
:1070E0000B4605460C4603200E49FFF7D7FA0E4B18
:1070F00058884FF6FF73984212D00C4BD3F8A42552
:10710000D2070DD5602283F8A82583F8A95583F806
:10711000AA45B3F8C4150322BDE8384001F0F5BE16
:10712000082038BD29BE0700642C0020282E00202E
:1071300070B50B46024606460D4603201A49FFF776
:10714000ADFA1A4B58884FF6FF7398422AD0184C64
:10715000D4F8A435DB0725D5602384F8A8350323AC
:1071600084F8A935012384F8AA35330A84F8AC35AC
:10717000330C84F8AD352B0A84F8AB6584F8AF5531
:10718000360E84F8B0352B0C2D0E84F8AE6584F8DD
:10719000B13584F8B255B4F8C4150B22BDE870407F
:1071A00001F0B3BE082070BD54BE0700642C00205F
:1071B000282E00202DE9F04F4C4E4D49736B356B56
:1071C00003F6FF7305F580585D1B25F47F6525F0F8
:1071D0000F05074689B0AC080320FFF773FA04F6E1
:1071E000FF74326B736B24F47F6424F00F04174434
:1071F000B1463BB19A4205D103203E49FFF762FAFE
:10720000002070E043F20C033B491A880320FFF78B
:107210004FFAA3080193052303AA384903970320D3
:1072200004EB070B04EB080ACDF810B0CDF814807E
:10723000CDF818A00794FFF725FA0123039303A8BC
:10724000019B0497CDF81480069301F07DFB064660
:1072500020B123463A46414629481DE0052303AAAA
:10726000284903970320CDF810B0CDF81480CDF84D
:1072700018A00794FFF706FA0323039303A8019BC2
:10728000CDF810800597069301F05EFB064638B1F5
:107290001D4823463A46414602F0ECF8304622E0CB
:1072A000052303AA194903970320CDF81480CDF8CC
:1072B00010B0CDF818A00794FFF7E4F9AC421449D8
:1072C0004FF0030094BF2D1B3546FFF7FBF9D9F8AB
:1072D000343000205B1BC9F830305F4601F0B2FC4F
:1072E000D046002D97D109B0BDE8F08F703B00204B
:1072F00091BE0700BEBE0700D8BE070000BF070052
:1073000040BF070084BF0700CDBF070014C00700BF
:1073100053C0070013B5144669460822FEF771FCF6
:1073200018B1DDE90023C4E9002302B010BD13B594
:10733000144604220DEB0201FEF763FC08B1019B29
:10734000236002B010BD73B50D4601A90646144670
:10735000FEF707FC98B1019A511C0FD26B7803F02D
:10736000C003802B0AD02B79994207D8214630469A
:10737000FEF747FC019B0022E25400E0002002B02F
:1073800070BD73B50D4601A906461446FEF7E9FB2C
:10739000A0B1019AFF2A10D8511C0ED26B7803F0CD
:1073A000C003802B09D02B79994206D8214630465C
:1073B00001F8012BFEF725FC00E0002002B070BDB3
:1073C000F7B50F4669461646FEF799FB50B3DDE95F
:1073D0000045002304F001026D084FEA3404134312
:1073E0001CBFE443ED43E8B13B79082B02D1C6E969
:1073F000004517E0042B02D1346022460AE0022B3C
:1074000003D123B233801AB204E0012B09D163B255
:1074100033705AB2D317AB4206BFA24201200020FC
:1074200000E0002003B0F0BD37B50D4669461446B4
:10743000FEF765FB20B32B79082B04D1DDE90001B1
:10744000C4E9000113E0042B03D1DDE90001206051
:107450000CE0022B03D10098208080B206E0012BC3
:107460000DD1DDE90001207000F0FF000021DDE911
:1074700000238B4206BF82420120002000E0002052
:1074800003B030BD37B50D4669461446FEF737FBED
:1074900020B32A79082A04D1DDE90023C4E90023B6
:1074A0001CE0009B042A18464FEAE37103D12360D5
:1074B0001A460B460BE0022A03D11BB223801AB2F4
:1074C00004E0012A09D15BB223705AB2D3178B4270
:1074D00006BF82420120002000E0002003B030BD42
:1074E00008B500F077FE10B1674B684A1A6000F0EB
:1074F00051FE28B1664B674A1B68C3F342331360E1
:1075000000F068FE20B1644AD36823F08073D36032
:1075100000F040FE40B14FF080430022C3F80C2140
:10752000C3F81021C3F8382500F054FE10B15B4BAE
:1075300003221A6000F04EFE40B1594B05221A603A
:1075400001229A6700229A603F225A60554B1B78AD
:10755000062B09D1544B1B681B0705D1534B1B68E5
:1075600003F0F003502B46D000F014FE28B1504B2E
:10757000504A1B6803F04F0313604F4AD2F888301B
:1075800043F47003C2F88830BFF34F8FBFF36F8F9F
:107590004FF01023D3F80022002A03DBD3F8043283
:1075A000002B24DA454B0122C3F80425D3F800242C
:1075B000002AFBD04FF010221521C2F80012D3F898
:1075C0000024002AFBD04FF0102315223B49C3F8BA
:1075D0000422D1F80024394B002AFAD00022C3F843
:1075E0000425D3F80024002AFBD000F00DFE344B14
:1075F000344A1A6008BD4FF08052334BD2F804145D
:10760000C3F82015D2F80814C3F82415D2F80C14C6
:10761000C3F82815D2F81014C3F82C15D2F8141496
:10762000C3F83015D2F81814C3F83415D2F81C1466
:10763000C3F84015D2F82014C3F84415D2F8241426
:10764000C3F84815D2F82814C3F84C15D2F82C14F6
:10765000C3F85015D2F83014C3F85415D2F83414C6
:10766000C3F86015D2F83814C3F86415D2F83C1486
:10767000C3F86815D2F84014C3F86C15D2F8442446
:10768000C3F8702570E700BF74C007400DF0ADBAB5
:10769000440200103C050040F0ED00E0A005004071
:1076A00010560040E00F00F0E40F00F0E80F00F08B
:1076B00058020010E40E004000ED00E000E0014040
:1076C000682C00200090D00300C0004073B502A8D1
:1076D000002300F8063D01F0F7FE284B1B7803F06D
:1076E000FF04002B43D1264B1A68002A3FD0254ABD
:1076F000D2F80813C9073AD51C601B68019302A889
:10770000214D019BD2F8086500F8054D01F0DCFE23
:10771000696828681F2994BF4B1C234683421A4678
:107720006B6004D1202B14BF013300232B602B6826
:107730009DF803009A423ABFC3F12103D218D21A2E
:10774000AB682944934238BF0F4B0E7338BF9A6021
:10775000FEF7A4FC6B682A681F2B94BF013300233B
:107760009A4201BF074A0123C2F8083353609DF8CB
:107770000200FEF793FC02B070BD00BF103B00207A
:1077800000D1004000D00040F43300202DE9F04F3C
:107790008FB08B7805921A4491F903300692002538
:1077A0001A440446009501950291039104950792AD
:1077B000A368002B46D008A92046FEF7D2F918B9D5
:1077C000A368002B3ED035E0089E002E3AD0039FE0
:1077D0004FEAD60806F00706039B1A7890452BD08F
:1077E00002A8FEF729FB039B9F42F5D1454500F215
:1077F0008480039A537803F00F03082B71D1157816
:1078000045457AD8069BD4F808901F684FF0010AC6
:10781000A368002F6ED099456CD13B68D3F800B0B7
:10782000BBF1000F6ED03346424639462046D8475A
:10783000002877D1002077E05B7803F00F02082A58
:10784000CED02AE0039B049C5D7802A8FEF7F4FAF0
:107850000028F7D115F0300F03D1039B1B7803B13B
:107860000134C4B162090023934205D05DF82310AE
:107870000131DFD10133F7E70EAA02EB830304F0F5
:107880001F04C4F120044FF0FF3253F8383C22FAB1
:1078900004F4A342CED1012046E013F0300F10D102
:1078A000049B3F2B0DD85A090EA901EB820203F06D
:1078B0001F03012101FA03F352F8381C194342F85F
:1078C000381CE76827B102AB324641462046B8472C
:1078D00002AA31462046FEF7E5F900287FF468AF9A
:1078E000A8E702A8FEF7A8FA039B9F4281D14FF0B8
:1078F000FF3502E099457FF45BAF31462046FEF745
:10790000ABF9EAE79B681B7898450BD1394608A884
:10791000FEF7D8F887F80CA008AA31462046FEF7F3
:10792000C1F985E7BF6873E70FB0BDE8F08F7FB599
:107930000023029383780391194490F90330049152
:10794000194403780090019005913BB1684600F01E
:1079500026F86846FEF770FA0028F7D107B05DF800
:1079600004FBF0B585B00F468C686946064615469F
:10797000FEF72FF988B1B86878B17B7803F030034F
:10798000202B03D129462046FFF7D1FF2A46214666
:107990006846FFF7FBFE019B736005B0F0BD30B594
:1079A00043685B7803F00F02082A87B00ED10369A1
:1079B0001C680025002C34D0214625736846FEF74C
:1079C00081F86846FFF7EBFFA468F3E713F0C00205
:1079D00009D103F03001102902D143691A700CE07B
:1079E00099060AD506E0802A1BD1016900229B0670
:1079F0000A6016D543691A7013E043685A7802F09A
:107A00000F02072A04D101699868FFF790FF08E088
:107A100099681A79006911B103F0D9F801E0FDF70E
:107A200091FD07B030BD00BF60DF704710DF7047C9
:107A30007BDF70477ADF704775DF70472DE9F043D1
:107A40004FF0A04303254FF00042C3F87C57C3F822
:107A50007C57C3F80825C3F80825AE4B95B01868C5
:107A6000049000F073FF002832D12846AA4AAB499F
:107A7000FEF71EFEA84801F0A5F948BBA84AA94B8D
:107A80001360A94A50211180A84A1A65A84A1368B0
:107A9000C3F340331BB14FF40051C2F88010A54925
:107AA00004A8FFF7C3FFA24A20B17BB14FF40053F3
:107AB00013600BE0A04B0121197092F81633C3F349
:107AC00041138B4200F21E8142F2020000F0F8FAEC
:107AD0000446002C40F08F81984B994A1A609DF81B
:107AE00010300D94012262F3030362F3071308A818
:107AF0000E948DF8103000F0DFFA38B99DF821307F
:107B000008A801338DF8213000F0D8FA0446002887
:107B100040F071818B4803F09FF88A4982B204A833
:107B200001F0A4FC70B90C23ADF834301823ADF883
:107B300036300DA84FF4C873ADF83840ADF83A3080
:107B4000FFF778FF0446002840F055817E4B4FF642
:107B5000FF7214A91A804FF65963012021F8483D9D
:107B60007A4A8DF80A0001F07FFC002840F08F80EF
:107B7000774B04AC03F1100518685968224603C21C
:107B80000833AB421446F7D1724F04A8394601F0CE
:107B900067FC044600287BD101461C224FF01409E3
:107BA0000DA8FDF7CFFC21464A4608A8FDF7CAFC00
:107BB0009DF83430ADF800403E4643F004038DF8A4
:107BC000343016F802398DF80E3002234FF00108D8
:107BD000ADF80C30230A68F3030368F3420468F33A
:107BE0000713E4B28DF8013044EA080403AD331DF5
:107BF00008AA0DA937F8020C8DF802400895CDF8B7
:107C000024D0ADF82C9001F02DFC0446002840F063
:107C1000F28001461C220DA8FDF794FC21464A463D
:107C200008A8FDF78FFC9DF83430ADF8004043F014
:107C300018038DF83430B3788DF80E30230A2046BF
:107C400068F3030368F3071368F342008DF801300B
:107C5000C4B2172344F01104ADF82C3008AA06F181
:107C60000C030DA937F8020C8DF80240ADF80C801A
:107C70000895CDF824D001F0F5FB0446002840F02B
:107C8000BA80354A136843EA0803136003E00446E8
:107C9000002C40F0B0801C2200210DA8FDF752FC02
:107CA00040F6CD430E934FF480430F9303238DF89A
:107CB00040302A4B13930DAD0FCD1A4F07F15406E8
:107CC0000FC695E8070086E8070007F1720087F8FD
:107CD0007040FFF7ADFE88B94FF6FF73A7F87A3012
:107CE0001F4B87F87C405B6853B11E4B1A7C3AB936
:107CF0001D4A1C745C745A6101F024F904467AE050
:107D0000082478E0194B996891B31A6842F480020C
:107D10001A6030E078C00700005007008CC00700F0
:107D20000C3B0020243400200A3B00200D88070073
:107D300000E100E059800700103B0020043B0020D8
:107D40001590070044C10700662C0020E033002096
:107D50007CC00700E2330020CC330020058F0700F1
:107D6000403B0020483B0020317F0700343B00208F
:107D70004FF4800313601C2200210DA8FDF7E2FBE5
:107D80009DF84820002161F300028DF84820172259
:107D9000ADF844201A4A1391019214A9019A41F8AE
:107DA000302D01230DA8ADF834308DF83C308DF81E
:107DB0003D308DF83E30FFF737FE089A01998A4230
:107DC00004460FD00F490220FEF772FC4FF080539B
:107DD0000D49D3F80C21089BC3EB822202F100521B
:107DE000022005E0002C3FF474AE084922461846F4
:107DF000FEF75EFC6DE6204615B0BDE8F08300BFDF
:107E0000002C0020A9C00700EBC007001EC107001E
:107E100008B5074B1B6D1BB1984740B100F050F9F6
:107E2000044B1B781BB1BDE8084001F001B808BD48
:107E300024340020103B002061DF704748DF70478A
:107E40002DE9F743344DB5F88030B5F872209A42E9
:107E500010D8B5F874209A420CD3AB6E23B102A8A7
:107E6000012200F8042D9847002385F8703003B0F4
:107E7000BDE8F08395F87040274B2CB19B6E002B2A
:107E8000F2D002A80022ECE79E6DDA6DDFF8988050
:107E900093F87C30002B18BF1646D8F80430002B1E
:107EA00037D0042E33D91D4F7B6993B37B7C02A856
:107EB000012B00F8044D0CBFB1464FF0000901F052
:107EC00003FB0DF10300FEF75FF978B101230370A6
:107ED000134B4760D3F8043583609DF80330C660C8
:107EE000C0F81090446188F8013000E004249DF847
:107EF0000400FEF7D3F82CB90A4B4FF48012C3F8F4
:107F00000021B1E72046EB6E002BACD1ACE7072097
:107F1000F9E70820F7E700BF24340020483B0020A1
:107F20000010014000E100E0403B002076DF704798
:107F300013B5184BB3F87A004FF6FF7290421C4607
:107F400025D093F87C2093F860100132D2B2914290
:107F500083F87C2007D303F17201FFF76DFDB0B108
:107F6000DB6E9BB913E0002384F87C3094F8643016
:107F700033B13B21FFF7DAFF10B1E36E03B198474D
:107F8000A36E23B102A8002200F8042D984702B086
:107F900010BD00BF2434002038B51B4C236813F0FB
:107FA00004052BD143F00403184923600320FEF796
:107FB00089FB174800F06CFC03201649FEF782FB92
:107FC000154B18884FF6FF73984204D01321FFF722
:107FD000ADFF80B114E023689B070CD501F048FA8F
:107FE00070B94FF0A0434FF00042C3F80825236852
:107FF00043F00203236001F0D3FA02E0002500E021
:108000000546284638BD00BFCC3300204CC10700D0
:10801000C0D4010088C10700662C00202DE9F04182
:10802000C7688668F61B964205468846144640682F
:1080300004D9384402F0CBFD3C440AE032463844CF
:10804000A41B02F0C4FD224608EB0601686802F09A
:10805000BEFDEC60BDE8F08108B502460B4601208C
:108060000249FEF71BFB00F0CFF800BF9EC10700DE
:10807000024A1368013B1360704700BFC82F0020FD
:108080005B689A68074B9A420AD14368826806493E
:10809000013A01330B604A6003200449FEF708BB34
:1080A000704700BFD0C10700683B00200CC3070029
:1080B00073DF704772DF70476DDF70476CDF7047AA
:1080C000024608B502490120FEF7F2FA00F09CF8DA
:1080D0002AC30700104E114C114908B50320A41BF8
:1080E000FEF7F0FAE4080F490320FEF7EBFA224608
:1080F0000D490320FEF7DCFA0025AC4204D006EB64
:10810000C5035B68984728B108490320FEF7DAFAEF
:1081100000F07AF80135F0E7F42D0020FC2D002066
:108120004EC3070069C307008DC30700A8C307003B
:1081300010B5104B104C9A6B104921605C33636092
:108140000F4BE3600F4BA2600F49104800221A60EA
:108150005A60FFF7ECFB20460B4A0C49FFF716FB71
:10816000044628B90A490320FEF7ACFA204610BDA0
:10817000012010BD703B0020AC3400205955070091
:1081800081800700683B00202C2E002048C2070099
:10819000CEC307000C4B1B78062B10D10B4B1B6872
:1081A0001A070CD10A4B186800F0F003302B08D0E6
:1081B00000F0E000A0F14003584258417047002011
:1081C00070470120704700BFE00F00F0E40F00F09F
:1081D000E80F00F0094B1B78062B0CD1084B1B68ED
:1081E0001A0708D1074B186800F0F000A0F130031F
:1081F0005842584170470020704700BFE00F00F020
:10820000E40F00F0E80F00F0BFF34F8F0549064B75
:10821000CA6802F4E0621343CB60BFF34F8F00BF24
:10822000FDE700BF00ED00E00400FA052DE9F04F86
:10823000B34C237C87B00BB1637C43BB237DB04D33
:1082400013BB02226A62AA62AE4AEA6205F18C019D
:10825000EA6505F5237229632A664FF4007110223E
:10826000EB632B64AB632B67EB666963AB666A6693
:10827000A54905F11B0002F0E7FCA44905F1140033
:1082800002F0E2FC2023AB76012323746374A04B3D
:10829000A04A5A61A049A14A9A610320FEF712FA46
:1082A0004FF0A0434FF000420325C3F87C57284607
:1082B000C3F808259A49C3F80C25FEF703FA2846A7
:1082C0009849FEF7FFF928469749984DFEF7FAF9C5
:1082D000974B984900274FF4AE7228461F7002F062
:1082E00076FC2E68731C06D03A465821281DFDF7EF
:1082F000B9FE864211D090490320FEF7E3F94FF40E
:10830000AE7200218948FDF71DF9012300206B6042
:1083100000F098FC002840F0938143F2080387495D
:108320001E68824F0320FEF7CDF92B69012B0BD07D
:108330007B694BB1BB6903F6FF7323F47F6323F0C2
:108340000F031E44243700E01837BB68A52B00F04C
:108350008C8002D8012B07D0BEE0AA2B00F09880B9
:10836000AC2B00F09F80B7E075490320FEF7AAF917
:108370006A696E4B012A40F0AC815A6A1F6B019208
:1083800043F208036F491B68032007EB0308D71B60
:10839000FEF798F9B7F5805F4FF000024FF001014A
:1083A0004046B94628BF4FF4805900F0DDFA034635
:1083B000002840F089814A463146404600F08EFB55
:1083C000002840F081814FEA99034FF0030A02A888
:1083D000CDF808A0CDF80C800496059300F0B4FA0F
:1083E000024630B13346424657495046FEF756F9E9
:1083F0006AE10121304600F0B7FA28B1324653490C
:108400005046FEF755F95FE12B6BDFF820B14B4486
:108410002B6300F017FCB7EB0907C8444E44B9D1F1
:1084200043F208033A4601991868FDF71BFEDBF892
:108430002820904206460CD145495046FEF742F9A5
:108440000123CBF82030019BCBF81C60CBF818300F
:1084500004E003463F495046FEF720F93E4800F04D
:1084600009FA002000F0EEFB1AE03C490320FEF779
:1084700029F93046FEF79EFE064608B1384927E046
:10848000384600F0F7F9304600F0DCFB012328E025
:1084900034490320FEF716F93946304600F042FC15
:1084A00000231EE030490320FEF70CF903202F497A
:1084B000FEF708F93046FEF77DFE08B12C4907E0CB
:1084C0003946304600F02EFC002800F0048129498E
:1084D0000320FEF7F7F8F7E027490320FEF7F2F84C
:1084E000F7E0002840F0F080AA6D012A46D10F4B3A
:1084F0000020986500F0A6FB002800F0EE809FE0C9
:10850000AC340020FEC3070007C407000BC40700FB
:10851000183B00207159070012C4070029580700B2
:1085200026C4070045C4070062C40700703B002052
:108530002C39002000F0070088C40700CAC40700D7
:10854000E9C40700FBC407001EC507005FC507009C
:1085500098C50700B5C50700943B002004C6070076
:1085600015C607003BC607004CC607006AC60700D1
:108570008FC60700ADC60700CBC6070023B900F0C1
:108580004DF9002840F09280FDF716FE604A614BDD
:10859000C4F89C320523002693705F4B167056700A
:1085A00053605E4AC4F818634FF48011E02084F8E9
:1085B0001C6384F81D63C2F8801182F814031160F3
:1085C00001F18041A1F56F21554FC1F8086582F88E
:1085D0001103D1F80425C4F8202303F1880203F520
:1085E0009873C4F878344F4BC4F8242308221A80B7
:1085F000142384F87C64A4F87E3484F87D644A4CA7
:108600004A49E41B0320E408FEF75CF82246484987
:108610000320FEF74DF8B846B44206D058F836307D
:108620009847074610B90136F6E70027414903206D
:10863000FEF748F837B103203F49FEF743F83846C4
:10864000FFF73EFD3D493E4C0320FEF73BF83D4A17
:10865000137843F0010313703B4B3C4A1A603C4BC8
:1086600004221A603B4B1F60AB6BC3B1FFF760FD88
:10867000A8B1236A23B9A36913B1374A136007E08D
:10868000EA6A2F4B5AB99A694AB15A6A324B1A6050
:10869000314B186801F072F8304B01221A703049E2
:1086A0000320FEF70FF8FDF7BBFFFCE700F0B6F87C
:1086B000C0B143F208042B4922680320FDF7F8FFFC
:1086C000206800F081FB0DE027490320FDF7FAFF49
:1086D00001E0002308E7012306E724490320FDF712
:1086E000F1FF51E722490320FDF7ECFF2149032068
:1086F000FDF7E8FF43F20803186800F065FB1E4928
:108700000320FDF7DFFF002007B0BDE8F08F00BFBA
:10871000403B0020F56507004C37002000E100E0F9
:10872000F42D0020123B0020FC2D0020E8C607009D
:108730008DC30700A8C307000BC707003DC707008C
:10874000703B0020A0390020003B00207556070038
:1087500034390020C82F0020C02F0020282E0020F0
:1087600067C7070082C70700F2C7070023C80700D2
:108770009DC70700BDC70700DFC70700034B01B94E
:1087800019705B6803B11847704700BF2C3900208F
:10879000F0B50346186880F308885868FF2464B26F
:1087A000EFF30585002D01D1A64600472546064674
:1087B00021273FBAF0B40024002500260027F0B49A
:1087C000F92040B2004700BFF0BD70B50D4CA36862
:1087D00023F001020546A2600E4611B923F00303FF
:1087E00006E009490320FDF76DFFA36843F002038B
:1087F000A3606B6823B131462846BDE87040184736
:1088000070BD00BF2C3900204EC807000021024A6D
:108810000846FDF791BE00BFC18E070010B5104994
:108820000320FDF74FFF0F4B1A6A012A01D00E49B2
:108830000BE0DC6974B1996943F2080300221868FF
:10884000FDF710FC844205D008490320FDF73AFFEC
:10885000002010BD06490320FDF734FF012010BDA4
:1088600069C80700703B00208CC80700B4C8070027
:10887000D0C8070008B50C220021FCF763FE034BAB
:1088800000221A635A631A615A6108BD703B0020C6
:1088900000283ED01F4B204A1B6800BF00BF00BF0E
:1088A00000BF00BF00BF00BF00BF93422FD000BF7A
:1088B00000BF00BF00BF00BF00BF00BF00BF00BFC0
:1088C00000BF00BF00BF00BF00BF00BF00BF00BFB0
:1088D00000BF00BF00BF00BF00BF00BF00BF00BFA0
:1088E00000BF00BF00BF00BF00BF00BF00BF00BF90
:1088F00000BF00BF00BF00BF00BF00BF00BF00BF80
:1089000000BF00BF00BF00BF00BF00BF00BF0138F5
:10891000C3D17047682C00200024F40010B5074C28
:10892000236F042B09D106490320FDF7CBFE054830
:10893000FFF7AEFFFDF774FEF2E710BD2C39002003
:10894000F3C80700A086010018DF70471FB510228A
:1089500000216846FCF7F6FD022368460093FFF706
:10896000F3FF05B05DF804FB2DE9FF41524E0B46C5
:1089700005460F461446514902460320FDF78EFE78
:10898000B368590722D59A0705D54D490320FDF74D
:1089900099FE0A248CE043F00103B36096F874302A
:1089A000DB0740F18380474B474A9342984602D306
:1089B000464A93424BD30224224645490320FDF701
:1089C00077FEB36823F00103B36071E0C5F30B02D7
:1089D0002AB140490320FDF775FE062468E03E48B1
:1089E000C5F30F383E4629464FF0020E0346C0F845
:1089F00004E5D3F800C4BCF1000FFAD0C3F80815A1
:108A0000D3F800C4BCF1000FFAD0C3F80425D0F8A5
:108A100000C4BCF1000FFAD0013E01F58051E6D14F
:108A200005EB0735002C43D0102231466846FCF791
:108A300089FD2D0B012301948DF80030ADF80880DD
:108A4000ADF80A5031466846A047344630E05DB381
:108A5000C5F30B0303BBD8F800309D421ED3BFB251
:108A6000D8F8042005EB07339A4217D3C7B16846FC
:108A7000FDF7CEFAB0B1009B5C60C3F80080009BAC
:108A800002222D0B1A729D811F82FDF7DDFAB36859
:108A9000002443F0010397E706248DE705248BE7C4
:108AA000042489E7072487E7032485E7012483E773
:108AB000204604B0BDE8F0812C39002027C907000A
:108AC00048C90700E42D0020E42D0020F42D0020EB
:108AD0006AC9070083C9070000E001402DE9F0439F
:108AE0000E4650491C468B6813F0040F85B00546AE
:108AF00088461DD09F0705D54B490320FDF7E2FDB1
:108B00000A248AE043F001038B6091F87430D8079F
:108B100079D5464B46498B421F4602D345498B4285
:108B200044D30224224644490320FDF7C1FD74E0EA
:108B3000002E37D0002835D046EA00039B0733D1FA
:108B40002AB93E490320FDF7BDFD042465E03C4BF6
:108B50000121C3F80415D3F800140029FBD03848CC
:108B6000002356F8231045F82310D0F80074344938
:108B7000002FFAD001339A42F3D10023C1F8043513
:108B8000D1F80034002BFBD00026002C45D00194F6
:108B90008DF800600295ADF80C2031466846A0477C
:108BA00034463AE0032438E0062436E06EB365B379
:108BB00046EA050399072AD13B689D4229D31FFA4B
:108BC00082F97A6805EB89039A4222D3B9F1000F42
:108BD00021D06846FDF71CFA98B1009B5C601F60CD
:108BE000009B01221A72DE601D61A3F81490FDF74C
:108BF0002BFAD8F8083043F001030024C8F80830F5
:108C00000BE007248EE701248CE703248AE706247F
:108C100088E7052486E7042484E7204605B0BDE8FC
:108C2000F08300BF2C3900209BC90700E42D0020F1
:108C3000E42D0020F42D0020BDC90700D6C907008F
:108C400000E0014070B52B4A2B492C4E054603200D
:108C5000FDF72EFD3378294C4BB129490320FDF750
:108C600031FD2848FFF714FEFDF7DAFCF2E7012397
:108C700023706560FFF752FE002201211D48FFF7B7
:108C800073FE07280246F5D030B11F490120FDF7D9
:108C900019FD0023237025E01C4C58212046FDF7C8
:108CA000E1F9572244F8040C19490320FDF700FDAF
:108CB0004FF4AE72211F174801F089FF0F4DFFF7E7
:108CC0002DFE154B0B48572205F17801FFF706FFE3
:108CD00007280446F2D038B110490120FDF7F2FC14
:108CE00000232B70032070BD0D490320FDF7EAFC23
:108CF000204670BD00F00700FCC907002C39002099
:108D000024CA0700A086010059CA0700743B00204E
:108D100084CA0700A43900207D870700A1CA070084
:108D2000CACA07002DE9F043204B0D685C6B8946E9
:108D300043F208012D1B044485B02B4622460968E6
:108D40001B4800F097FBAF081A4B019303266846B7
:108D5000009602940397FFF7F7FD804658B916492D
:108D60003046FDF7AFFC4846FFF784FD4046FFF76D
:108D700069FF044615E02B46224610493046FDF7B0
:108D80008DFC102200216846FCF7DCFB684601944C
:108D90000297FFF7D9FD044618B109493046FDF79F
:108DA00091FC204605B0BDE8F08300BF703B002079
:108DB000E6CA07000050070023CB070043CB07009B
:108DC00086CB070013DF704710B5024604461249F0
:108DD0000320FDF76DFCFFF7B9FD08B10F4912E064
:108DE0000F490320FDF76EFC0E4B0F494FF0FF3289
:108DF000C3F8802003202246FDF75AFC2046FFF7E7
:108E0000E1FF28B109490320BDE81040FDF75ABC35
:108E10002046BDE81040BBE4A8CB0700E6CB070026
:108E200011CC070000E100E02ECC07005BCC07006E
:108E30002DE9F341214ED6F8D451D6F8D841B5FAF0
:108E400085F5B4FA84F46D096409374685BB96F854
:108E5000DC317BBB01A8FEF7F1FF052805D0B8B9CE
:108E6000D7F8D4310198984700E00125ECB996F87D
:108E7000DC31FBB9D7F8E081B7F8DE31ADF804306A
:108E800001A94046FEF7D8FF0528044607D008B1DF
:108E9000FFF716F9D7F8D8314046984700E001248B
:108EA000002DD4D0002CD1D004E0002DCFD001E093
:108EB000002CDCD002B0BDE8F08100BF2C390020CE
:108EC00008B511B10020FFF7FBF8044B93F8E4312B
:108ED00013B1BDE80840ABE708BD00BF2C39002046
:108EE00067DF7047ADDF7047A9DF7047A8DF7047C5
:108EF000A6DF7047A5DF704786DF70477FDF7047CA
:108F00007DDF704708B5FFF7DBF830B587B0044662
:108F10000D46ADF806200021102202A8FCF712FB36
:108F200001238DF80A300DF10603049302A9044BC6
:108F3000ADF8085020460593FFF7DAFF07B030BDC3
:108F4000D033002030B5324D296811F002018BB0CA
:108F500058D1102201A8FCF7F5FA0B230122ADF835
:108F6000023002238DF814308DF815208DF818305A
:108F7000062259238DF816208DF819300322FE237E
:108F80000DF102010DF11D008DF817208DF81A303A
:108F9000FFF7B6FFC8B9BDF802100B2908D84B1C63
:108FA0008DF81B30092319448DF81C3089B206E076
:108FB0000C238DF81B3008238DF81C30142100235E
:108FC0001A46C9B205A8FFF775F80446E8B98DF846
:108FD000040002908DF80C002823ADF8100001A8C1
:108FE000ADF80E30FFF764F870B94FF0A0434FF0C2
:108FF0000042C3F80C25C3F808252B6843F0020390
:109000002B6002E0002400E0044620460BB030BD97
:10901000CC3300202DE9F04F0388112B89B0044692
:1090200018D002D8102B05D03DE0122B33D0502B96
:109030001DD038E0A64B82881A8000F1100303CBC4
:10904000A44AA54B1060516000221A70A34BDB8923
:109050004BBB26E09E4B4FF6FF721A809E4B0022C0
:109060001A7000F09DFAF0B19C4B9B6910E09B4D8B
:10907000C288EB899A4240F0AB81038A022B40F010
:10908000A781837CD9070CD400F08AFA58B1AB6968
:109090004BB1984707E000F1080303CB8D4A1060FD
:1090A0005160FEF7CDFE2388142B00F0838118D881
:1090B000102B26D008D8022B40F0BF81884B00210E
:1090C0001888FFF70DFFB5E1112B2BD0132B40F0C3
:1090D000B481834800231A4685210088FFF70EFFDC
:1090E000A8E1522B00F06D8105D8502B00F0708163
:1090F000512B2BD0A1E1552B00F09881562B1BD082
:109100009BE14FF0A0434FF00042C3F80C25C3F899
:109110000825734BA2881A80724A136823F0020351
:1091200013608AE1FFF70EFF002840F084816C4B4A
:109130004FF6FF721A8080E1A379002B40F07D8109
:10914000674B13211888FEF7F1FE73E1A579002D16
:1091500000F07381102200210DEB0200FCF7F2F900
:10916000022D40F06A81604B21899A89914298468C
:1091700040F06381A37B043B022B40F25E819DF8AB
:109180001630B8F81010CDF808D043F001038DF870
:109190001630238AADF81830638AADF81A3004F11E
:1091A00014030793002301934D4B02228DF81020E6
:1091B000ADF80420188801AAFFF79CFE994660B913
:1091C0009DF80020D20708D440F2FD1204A91888A7
:1091D000ADF81420FFF78AFE2FE1002304A9B9F8A7
:1091E0000000ADF81430FFF781FE002840F0258123
:1091F00019460C2201A8049305930693FCF7A2F9E3
:10920000237D013B052B00F2C280DFE803F0032D34
:10921000401FC056638A062B02D003210120BCE008
:1092200032490320FDF74EFA314B5A881A80637D8C
:10923000029304A9D4F816300393012401A88DF8F1
:109240000440FDF743FA01462046A6E029490320E1
:10925000FDF738FA032304A901A88DF80430FDF7BF
:1092600035FA0146042098E023490320FDF72AFA45
:10927000638A032B01BFA27D637D43EA02231C4A5C
:1092800011BF0321538013800121022085E01B4977
:109290000320FDF717FA042304A90DEB03008DF852
:1092A0000430FDF713FA0128014604D10699059808
:1092B000FDF73EFF76E003206FE011490320FDF744
:1092C00001FA638A022B1DD00321062065E000BF4E
:1092D0009E340020A2340020A034002078340020E6
:1092E000662C0020CC330020E033002096CC070011
:1092F000143B0020B5CC0700D5CC0700EFCC07000D
:109300000ECD0700637D02934FF0060A04A901A861
:109310008DF804A0FDF7DAF90128834634D1049FC3
:10932000059E069D46482B463246394600F0A2F877
:10933000B9F800004FF6FF73984231D0414B1B68DB
:10934000DB072DD5404CB8F80C10E7706023237074
:109350003B0A23713B0C6371330A2372330C637233
:109360002B0A3F0EE671E572360E23732B0C2D0E81
:10937000A771A6726373A5730F2284F801A084F805
:1093800002B0FFF7C2FD0DE00146504605E02F494F
:109390000320FDF797F9207D0321FDF79FFE01E0F3
:1093A000082001E0002848D0024629490120FDF7A5
:1093B0007FF942E000231A461946A088FFF79CFD7A
:1093C00038E000231A461946A088FFF78DFD31E0EA
:1093D000204BE2889B889A422FD100210C2201A8C1
:1093E000049105910691FCF7ADF802238DF8043045
:1093F00004F11203029304A9238A039301A8FDF741
:1094000065F9012803D014490320FDF75BF9134CDB
:10941000638893B12388013B9BB223806BB9069983
:109420000598FDF785FE6388238006E01721A08854
:10943000FFF758FD08B1FEF743FE09B0BDE8F08F15
:109440002DCD0700CC330020D03300207ECD070087
:10945000A3CD0700E0330020E0CD0700143B00203F
:1094600063DF7047A2DF7047A0DF70477CDF704783
:1094700074DF70471FB503930323019102920146E5
:1094800001AA1846FDF7FEF805B05DF804FB2DE9CA
:10949000FF4100230A4F06460C469846CDF80C8043
:1094A000CDF8088001940096064ABD69002103208A
:1094B000A84784420346F1D804B0BDE8F08100BF5C
:1094C000183B0020DEB7070070B5EFF3108572B6C9
:1094D0000D4A546A012394B953620C4B0C49D3F8DA
:1094E00080603140D1610A49C3F88010D3F88410FC
:1094F00011624FF0FF32C3F88420047000E0037063
:1095000005B962B6002070BD183B002000E100E004
:10951000FC06FFBC204B21491A682F2300BF00BF67
:1095200000BF00BF00BF00BF00BF00BF8A422FD0F6
:1095300000BF00BF00BF00BF00BF00BF00BF00BF33
:1095400000BF00BF00BF00BF00BF00BF00BF00BF23
:1095500000BF00BF00BF00BF00BF00BF00BF00BF13
:1095600000BF00BF00BF00BF00BF00BF00BF00BF03
:1095700000BF00BF00BF00BF00BF00BF00BF00BFF3
:1095800000BF00BF00BF00BF00BF00BF00BF00BFE3
:10959000013BC3D1704700BF682C00200024F400B9
:1095A00037B5164DEB6A2BB36B6C1BB302A80024C6
:1095B00000F8014D85F84040FFF786FF0DF10600E9
:1095C000FCF7E2FD48B10223037005F1300343606C
:1095D0009DF8063085F8293000E004249DF8070046
:1095E000FCF75CFD24B9064B4FF48012C3F8002150
:1095F000204600E0082003B030BD00BF183B00202B
:1096000000E100E070B59CB000231093002200231D
:10961000CDE91223514B1493514B1593514B169393
:10962000514B1793514B1893514B1993514B1A931C
:1096300003F17453A3F52303A3F692431B9301B1E3
:1096400000B3044645180026AC4218D0109B14F80D
:10965000011B1CAA1A440133402B02F8701C109302
:10966000F2D169466846FCF72FFCDDE9122312F5BA
:10967000007243F10003CDE912231096E4E73E4C5B
:10968000256D0DB90E2066E0109B1CAA1A4480219E
:10969000372B03F1010302F8701C6E466B444FF048
:1096A000000105D89A1B382A11D003F8011BF9E7ED
:1096B0009A1B3F2A02D803F8011BF9E731463046CE
:1096C000FCF702FC382200213046FBF73BFFDDE9C6
:1096D000122310980821E1FB002322FA01F1CDE9C1
:1096E00012238DF83F208DF83E10110C120E8DF8CC
:1096F0003C201A0A8DF83D108DF83B308DF83A2049
:1097000031461A0C30461B0E8DF839208DF8383052
:10971000FCF7DAFB2A4600231B99D94011701A99ED
:10972000D94011711999D94011721899D940117302
:109730001799D94011741699D94011751599D940C6
:1097400011761499D9400833202B117702F10102C8
:10975000E2D1636500201CB070BD00BF67E6096AF6
:1097600085AE67BB72F36E3C3AF54FA57F520E5142
:109770008C68059BABD9831F183B0020F8B5384B8C
:1097800038491D6843F20807A5F540533D68064671
:109790005D1B0320FCF796FFB54205D2324903203A
:1097A000FCF790FF0420F8BD304C31490320FCF752
:1097B00089FFA26E2F490320FCF77AFF236FA26F67
:1097C0002D490320FCF76AFFE36FD4F884202B496E
:1097D0000320FCF763FF3B68A76FC4F8B431012F87
:1097E0002ED12A4626490320FCF762FF226F254925
:1097F00002F6FF7222F47F6222F00F02AD1A3346A6
:109800002A460320FCF74AFFAE424FF0000303D97B
:10981000A766E3661C4917E0A366236FD4F8B4215A
:109820001A49E76603F6FF7323F47F6323F00F03FF
:1098300013440320C4F8B431FCF744FF7C3407E040
:1098400000231349A366E3660320FCF73BFF703453
:109850000C2200212046FBF775FE26600020F8BD93
:109860001410001004CE070025CE0700183B00207E
:1098700056CE07006BCE070081CE0700A7CE0700AB
:10988000CDCE0700F6CE07001ACF070038CF07006D
:1098900052CF07000649074A074B9B1A03DD043BDA
:1098A000C858D050FBDCFDF71BFEFBF7D7FD0000CE
:1098B00070D10700002C0020FC2D0020FEE7FEE701
:1098C000FEE7FEE7FEE7FEE7FEE7FEE7FEE7FEE770
:1098D0001AB1013A8B5C8354FAE7704710B5013A2C
:1098E000D2B253B2002B09DB1BB250F8234051F81F
:1098F00023309C4204D8F2D2FF2002E0002000E096
:10990000012040B210BD0000000000000000000077
:10991000C3F10803DB0070B501330446002003A542
:109920005B1920C940CAAD1920C4184720C940CAD4
:10993000754120C420C940CA754120C420C940CA0D
:10994000754120C420C940CA754120C420C940CAFD
:10995000754120C420C940CA754120C420C940CAED
:10996000754120C4404170BD0000000000000000AF
:10997000C3F10803DB0070B50133002403A500BF69
:109980005B1920C940CAAD1B20C0184720C940CA76
:10999000B54120C020C940CAB54120C020C940CA35
:1099A000B54120C020C940CAB54120C020C940CA25
:1099B000B54120C020C940CAB54120C020C940CA15
:1099C000B54120C06441B4FA84F0400970BD00BFC5
:1099D0002DE9F04F08B4F8CA04B451F8042BA3FBE6
:1099E000028940F8048B4FF0000AE4FB629A4FF0C2
:1099F000000BE5FB62AB4FF0000CE6FB62BC4FF0E6
:109A0000000EE7FB62CE51F8042B4FF00008E3FB99
:109A1000628940F8048BE4FB629AE5FB62ABE6FBEB
:109A200062BCE7FB62CE51F8042B4FF00008E3FB69
:109A3000628940F8048BE4FB629AE5FB62ABE6FBCB
:109A400062BCE7FB62CE51F8042B4FF00008E3FB49
:109A5000628940F8048BE4FB629AE5FB62ABE6FBAB
:109A600062BCE7FB62CE51F8042B4FF00008E3FB29
:109A7000628940F8048BE4FB629AE5FB62ABE6FB8B
:109A800062BCE7FB62CE40F8049B40F804AB40F8B0
:109A900004BB40F804CB40F804EB0CBC052B00F0F1
:109AA0001E810C68A0F11400A1F11401A2F11402AE
:109AB00052F804EB4FF0000550F8046BE4FB6E56CF
:109AC00052F804EB50F8047BE4FB6E6752F804EBA9
:109AD00050F8048BE4FB6E7852F804EB50F8049BCA
:109AE000E4FB6E8952F804EB50F804ABE4FB6E9A89
:109AF000A0F1140052F8044B51F804EB4FF0000CA5
:109B0000E4FB6EC540F804CB51F804EBE4FB6E5661
:109B100040F8045B51F804EBE4FB6E6740F8046B1B
:109B200051F804EBE4FB6E7840F8047B51F804EB49
:109B3000E4FB6E8940F8048B51F804EBE4FB6E9A69
:109B4000A0E80006062B00F0CA800C68A0F11800FF
:109B5000A1F11801A2F1180252F804EB4FF0000530
:109B600050F8046BE4FB6E5652F804EB50F8047B9B
:109B7000E4FB6E6752F804EB50F8048BE4FB6E785C
:109B800052F804EB50F8049BE4FB6E8952F804EBA6
:109B900050F804ABE4FB6E9A52F804EB50F804BBA7
:109BA000E4FB6EABA0F1180052F8044B51F804EB43
:109BB0004FF0000CE4FB6EC540F804CB51F804EB09
:109BC000E4FB6E5640F8045B51F804EBE4FB6E676F
:109BD00040F8046B51F804EBE4FB6E7840F8047B2A
:109BE00051F804EBE4FB6E8940F8048B51F804EB68
:109BF000E4FB6E9A40F8049B51F804EBE4FB6EAB77
:109C0000A0E8000C072B6AD008B40C68A0F11C0077
:109C1000A1F11C01A2F11C0252F804EB4FF0000567
:109C200050F8046BE4FB6E5652F804EB50F8047BDA
:109C3000E4FB6E6752F804EB50F8048BE4FB6E789B
:109C400052F804EB50F8049BE4FB6E8952F804EBE5
:109C500050F804ABE4FB6E9A52F804EB50F804BBE6
:109C6000E4FB6EAB52F804EB50F804CBE4FB6EBCA3
:109C7000A0F11C0052F8044B51F804EB4FF0000324
:109C8000E4FB6E3540F8043B51F804EBE4FB6E5600
:109C900040F8045B51F804EBE4FB6E6740F8046B9A
:109CA00051F804EBE4FB6E7840F8047B51F804EBC8
:109CB000E4FB6E8940F8048B51F804EBE4FB6E9AE8
:109CC00040F8049B51F804EBE4FB6EAB40F804ABA6
:109CD00051F804EBE4FB6EBCA0E8001808BCBDE83A
:109CE000F08F2DE9F04FB1E8005E06B4AAFB09122F
:109CF0004FF00003EBFB69234FF00004ECFB6934E9
:109D00004FF00005EEFB69454FF00006EBFB6A6380
:109D1000ECFB6A344918524176415B41A9FB097852
:109D20004FF0000949F1000918EB0108A0E8800193
:109D3000AAFB0A78574158EB0608A0E88001EEFB21
:109D40006A454FF0000A4AF1000A4FF00001ECFBAF
:109D50006B14EEFB6B454FF00002EEFB6C255FEAE7
:109D600059094941644152416D4149F10009EBFBF8
:109D70006B3A1AEB010AA0E80804ACFB0C6A6641D6
:109D80005AEB020AA0E84004AEFB0E6A6E415AEBA1
:109D9000090AA0E8400406BC052A00F0E680A0F10C
:109DA0001400A1F11401B1E8E043A5FB0E344FF01B
:109DB0000005E6FB6E454FF00006E7FB6E564FF0E0
:109DC0000007E8FB6E674FF00008E9FB6E784FF084
:109DD0000009DB1864416D4176417F4158EB08086A
:109DE00059F1000950F804CB13EB0C0350F804CBE5
:109DF00054EB0C0450F804CB55EB0C0550F804CB95
:109E000056EB0C0650F804CB57EB0C0758F1000842
:109E100059F10009A0F11400EEFB0E89A0E8F80347
:109E2000062A00F0A280A0F11800A1F11801B1E803
:109E3000E047A5FB0E344FF00005E6FB6E454FF002
:109E40000006E7FB6E564FF00007E8FB6E674FF029
:109E50000008E9FB6E784FF00009EAFB6E894FF0CD
:109E6000000ADB1864416D4176417F4158EB0808D8
:109E700059EB09095AF1000A50F804CB13EB0C0313
:109E800050F804CB54EB0C0450F804CB55EB0C0504
:109E900050F804CB56EB0C0650F804CB57EB0C07EC
:109EA00050F804CB58EB0C0859F100095AF1000A9C
:109EB000A0F11800EEFB0E9AA0E8F807072A54D08C
:109EC000A0F11C00A1F11C01B1E8E04FA5FB0E348C
:109ED0004FF00005E6FB6E454FF00006E7FB6E56BF
:109EE0004FF00007E8FB6E674FF00008E9FB6E7863
:109EF0004FF00009EAFB6E894FF0000AEBFB6E9A07
:109F00004FF0000BDB1864416D4176417F4158EB07
:109F1000080859EB09095AEB0A0A5BF1000B50F8E3
:109F200004CB13EB0C0350F804CB54EB0C0450F8A7
:109F300004CB55EB0C0550F804CB56EB0C0650F84F
:109F400004CB57EB0C0750F804CB58EB0C0850F837
:109F500004CB59EB0C095AF1000A5BF1000BA0F19C
:109F60001C00EEFB0EABA0E8F80FBDE8F08F10B5BB
:109F7000002253B28B4205DA1BB2002440F8234082
:109F80000132F6E710BD2DE9F0478846B3F902101B
:109F90001F460825CB1D202493FBF5F51F31954264
:109FA00091FBF4F44FFA84F928BF1546064649465A
:109FB000FFF7DDFF2A4630464146FFF789FCB7F937
:109FC0000230ED009D4220D9ED1A06EB84010022FB
:109FD0008E420AD251F8040D20FA05F313430B60A8
:109FE000C5F1200300FA03F2F2E724373846314680
:109FF0004A46FFF773FC012807D0304631463A46FF
:10A000004B46BDE8F047FFF7B3BCBDE8F08710B59D
:10A0100000231A465CB28C4204DA50F82440013323
:10A020002243F7E7B2FA82F0400910BD4A1101233A
:10A0300001F01F0150F822008B4018407047013991
:10A04000C9B24BB2002B0BDA013111F0FF0315D06E
:10A0500059B201F18043013B50F82320002304E072
:10A0600050F82330002BEAD0EEE712B1520801334A
:10A07000FBE7481E03EB401080B200E0184600B238
:10A08000704730B5002463B2934206DA1BB2013444
:10A0900051F8235040F82350F5E730BDF0B50C4699
:10A0A00089B008220646FFF7ECFFE36A0393236BAF
:10A0B0000493636B0593A36B0693E36B07930027ED
:10A0C00069466A4608236846029701970097FFF79A
:10A0D0001FFC314605466A4608233046FFF718FC48
:10A0E000236B0393636B0493A36B0593E36B06935A
:10A0F000054469466A46082368460797FFF708FC47
:10A10000314605446A4608233046FFF701FC236ABE
:10A110000093636A0193A36A0293A36B0693E36BB4
:10A120000793054431466A4608233046059704974D
:10A130000397FFF7EDFB636A0093A36A0193E36A59
:10A14000A26B0293636B039304920693E26B236A00
:10A1500005920544079331466A4608233046FFF7C7
:10A16000D7FBE36A0093236B0193636B0293236A2B
:10A170000693A36A0793054431466A46082330468E
:10A18000059704970397FFF7F3FB236B0093636B2B
:10A190000193A36B0293E36B0393636A0693E36AF1
:10A1A00007932D1A31466A460823304605970497CF
:10A1B000FFF7DEFB636B0093A36B0193E36B0293EA
:10A1C000236A0393636A0493A36A0593236B07933B
:10A1D0002D1A31466A46082330460697FFF7C8FB1A
:10A1E000A36B0093E36B0193636A0393A36A0493E5
:10A1F000E36A0593636B07932D1A314630466A462E
:10A20000082302970697FFF7B3FB2D1A16D53046A1
:10A2100031460D4A0823FFF77BFB4519F7D410E0C0
:10A22000094831460822FFF759FB012809D030467A
:10A230003146054A0823FFF79BFB2D1A002DEFD06E
:10A24000F5E709B0F0BD00BF78CF0700013A30B59F
:10A25000D2B2002453B2002B09DB1BB2013A51F8F1
:10A26000235050F823306B401C43D2B2F2E7B4FACB
:10A2700084F0400930BD00EB81010023884206D202
:10A2800051F8042D43EA52030B60D307F6E77047F9
:10A29000F8B5036813F0010506460F46144605D0CD
:10A2A00001463A462346FFF733FB05463046214632
:10A2B000FFF7E1FF45B104F18042013A56F8223040
:10A2C00043F0004346F82230F8BD70B59DF91040C8
:10A2D0001D4623460646FFF71BFB30B9284631468C
:10A2E0002246FFF7FBFA012807D0304631462A46BE
:10A2F0002346BDE87040FFF73BBB70BD70B59DF9CC
:10A3000010401D4623460646FFF732FB38B1304663
:10A3100031462A462346BDE87040FFF7F9BA70BDC2
:10A320002DE9F043A3B09846019112AB4146074690
:10A33000104691460093FFF782FEC0EB881086B26C
:10A34000454C33B21C40002CBEBF04F1FF3464F016
:10A350001F040134202593FBF5F5EDB26DB2A4B2D4
:10A3600002A8294624B2FFF702FE28B202AB002C55
:10A3700003EB800010DD00221346434510D259F84C
:10A38000235005FA04F10A4340F82320C4F12002C7
:10A3900025FA02F20133F0E749464246FFF771FE23
:10A3A0000FFA88F502AB4FEA4509012403EB850556
:10A3B000330444D40022114653B24B4522DA0DF146
:10A3C000880E0EEB840E0DF1880C18B25EF888EC46
:10A3D0000CEB83035EF820E053F8803CC3EB0E03E4
:10A3E0005B1A734502D08CBF01210021C4F1010E1C
:10A3F0000DF1880C0CEB8E0E01325EF888EC4EF8F5
:10A400002030D9E7621A544202A841465441FFF76E
:10A4100032FF22AA08F1FF3302EB830302EB88022A
:10A42000284652F8801C53F8802C013E42EAC17243
:10A43000414643F8802CB6B2FFF71DFFB8E722ABC8
:10A4400003EB8404384654F8881C4246FFF719FE93
:10A4500023B0BDE8F08300BF1F00008070B590B04E
:10A4600006469DF950401D4668462346FFF7B0FA60
:10A47000304669462A462346FFF752FF10B070BDAA
:10A4800030B51C4691B0054693F900306846FFF799
:10A490009FFAD4F8AC3028466946984711B030BDD1
:10A4A00030B5144691B0054692F900206846FFF792
:10A4B00018FCD4F8AC3028466946984711B030BD36
:10A4C0002DE9F04115468AB00446884602A80021CD
:10A4D0002022FBF737F82E780323204641462A46F0
:10A4E0002F1D76B20293FFF7DBFF2046214602AA1A
:10A4F0003B460096FFF702FF2046214642462B4688
:10A50000FFF7BEFF00962046214605F184023B4638
:10A51000FFF7DBFE0AB0BDE8F0812DE9F04793F9C3
:10A52000006092B00446894610463146154698466A
:10A53000FFF76DFD002840F0978002A8494642468B
:10A54000FFF7AEFF43460AA8214602AAFFF798FF8D
:10A5500002A801464246FFF7A3FF43464846494644
:10A560002A46FFF78DFF08F1040728462946424690
:10A57000FFF796FF204621462A463B460096FFF706
:10A58000A4FE284629462A463B460096FFF79DFE34
:10A59000284621462A463B460096FFF7AFFE204656
:10A5A00021462A464346FFF76BFF284621462246AE
:10A5B0003B460096FFF789FE20463B460096214623
:10A5C0002A46FFF782FE2368DB07204613D5334671
:10A5D00021463A46FFF79CF9314682462046FFF76E
:10A5E0004AFE06F18043013B54F8230040EACA705A
:10A5F00044F8230002E03146FFF73DFE284621469D
:10A600004246FFF74DFF284629460AAA3B460096D8
:10A61000FFF774FE284629460AAA3B460096FFF734
:10A620006DFE0AA801462A463B460096FFF766FEE5
:10A63000204621460AAA4346FFF722FF02A8024607
:10A640003B4621460096FFF759FE204629463246F2
:10A65000FFF717FD284649463246FFF712FD4846E8
:10A6600002A93246FFF70DFD12B0BDE8F0872DE9D3
:10A67000F0438BB08046129D15F9046B009614468A
:10A680001F4689462B4602A811464246FFF736FE72
:10A6900002A80146129AFFF703FF4046414602AA6C
:10A6A000129BFFF7EDFE2046214602AA129BFFF700
:10A6B000E7FE2B46384639464A460096FFF71EFE0F
:10A6C00002A83946129AFFF7EBFE02A8014642465D
:10A6D0002B460096FFF712FE02A8014622462B46A3
:10A6E0000096FFF70BFE2046214642462B46009679
:10A6F000FFF704FE484649462246129BFFF7C0FE7C
:10A700002046414602AA2B460096FFF7F7FD384641
:10A7100039462246129BFFF7B3FE384639464A4671
:10A720002B460096FFF7EAFD204602A93246FFF7C6
:10A73000A8FC0BB0BDE8F083F0B589B01C46074615
:10A740000E461546684611461A46FFF7A9FE3846DA
:10A7500039466A462346FFF793FE684669462A460D
:10A760002346FFF78DFE304631466A462346FFF703
:10A7700087FE09B0F0BDF0B50646A1B00F46084609
:10A78000194615461C46FFF742FC20B130462146CB
:10A79000FFF7EDFB73E0684639462246FFF771FC90
:10A7A00008A829462246FFF76CFC10A82146FFF7AF
:10A7B000DEFB012318A821461093FFF7D8FB68465B
:10A7C00008A92246FFF78AF8002853D0009BDA0731
:10A7D00004D468462146FFF74EFD26E0089BDB07C0
:10A7E00004D408A82146FFF746FD3DE000281EDD01
:10A7F00008AA234669466846FFF7BAF86846214624
:10A80000FFF739FD10A818A92246FFF767F80028BE
:10A8100005DA10A801462A462346FFF779F810A862
:10A82000014618AA2346FFF7A3F810A81DE008A8C0
:10A830006A4623460146FFF79BF808A82146FFF722
:10A840001AFD18A810A92246FFF748F8002805DAD3
:10A8500018A801462A462346FFF75AF818A80146C9
:10A8600010AA2346FFF784F818A829462246FFF7C6
:10A870000FFDA4E7304610A92246FFF702FC21B0E5
:10A88000F0BD00000048704774CF07002DE9F04F7D
:10A89000EFB01E46789C059023780493B4F90230FB
:10A8A00092461F33202293FBF2F3DBB206939DF90D
:10A8B000187094F9012007F1FF3926AB002543F801
:10A8C00029506EAB03EB89034EA88B46314643F803
:10A8D000805C43F8605CFEF7FBFF94F9012056A80A
:10A8E000B118FEF7F5FF9DF910604EA83146FFF74D
:10A8F0008EFB8046002840F02F8156A83146FFF796
:10A9000086FB0546002840F0258104F124084046D6
:10A910004EA93A46FEF7E2FF012840F01D8140466D
:10A9200056A93A46FEF7DAFF0128089040F0148154
:10A930003B461EA856A94246FFF71DFF0DF1380CF5
:10A9400060465946524623464CF82950CDF80CC073
:10A95000FFF719FBDDF80CC00097604661461EAAA0
:10A960004346CDF824C00DF5BC79FFF777FD43468B
:10A97000009716A84EA91EAAFFF770FD484632465A
:10A980000599FFF77EFBB300039309EB030B039AD2
:10A99000059B584699183246FFF773FB04F14403B0
:10A9A0001946324636A80793FFF76BFB04EB860186
:10A9B00032463EA8443104F1040AFFF762FB4946DF
:10A9C00000961EA836AA5346FFF798FC4A465B46F7
:10A9D00036A83EA90094FFF74AFE1EA8014633465A
:10A9E0005246FFF7C8FE1EAA484659462346FFF7BF
:10A9F000A3FEDDF824C0079B0B936046059B0C93D8
:10AA00003946CDF814C00A95CDF83490FFF717FBFE
:10AA10003946054616A8FFF712FBA842B8BF2846DC
:10AA200085B2DDF814C06F1E3FB260463946FFF7AD
:10AA3000FDFA394610F1000916A818BF4FF00109B8
:10AA4000FFF7F4FA002814BF0223002343EA0909A0
:10AA50000DF1280B32465BF8297026A83946FFF71E
:10AA600010FB039B3246F9182EA8FFF70AFB31466C
:10AA70001EA8FFF77CFA023D089B1E93AEB237B2C8
:10AA8000002F44DB23461EAAD4F8A45026A82EA9E2
:10AA9000A84739460EA8FFF7C9FA3946051C16A87B
:10AAA00018BF0125FFF7C2FA002814BF02230023B4
:10AAB0001D430AAB53F8257037B39DF9105036A8E3
:10AAC00039462A46FFF7DDFA039B3EA8F9182A46C5
:10AAD000FFF7D7FA36A83EA91EAA2346FFF72CFE99
:10AAE00046A826A936AA53460095FFF707FC36A8C4
:10AAF0003EA926AA2EAB0094FFF7B9FD1EA8014679
:10AB000046AA2346FFF7BCFC013EB6B2B7E79DF963
:10AB100010501EA8014652462B46FFF72CFE234636
:10AB200026A82EA91EAAFFF707FE9DF91840404649
:10AB300026A92246FEF7D2FE012805D026A8014606
:10AB400042462346FEF714FF26A84EA92A46FFF7E1
:10AB50007DFB02E0404600E028466FB0BDE8F08F84
:10AB6000034B1B68186A034B002808BF1846704740
:10AB7000602C00206C2C002008B5034B1868FFF7F0
:10AB8000EFFFD0F8EC0008BD602C002082B001B9C6
:10AB900001A93AB143B113780B601278101C18BFA9
:10ABA000012003E0104601E06FF0010002B07047A1
:10ABB00010B501390244904207D010F8013B11F85A
:10ABC000014FA342F7D0181B10BD002010BD10B5D7
:10ABD000431E0A44914204D011F8014B03F8014F7F
:10ABE000F8E710BD0CB430B5164B0C1E9DB01D68B7
:10ABF00004DA8B232B604FF0FF301EE04FF402731A
:10AC0000ADF8143014BF04F1FF33234604930793C7
:10AC10004FF6FF7302900690ADF81630209A21ABE4
:10AC200002A92846019300F085F8431CBCBF8B2382
:10AC30002B6014B1029B00221A701DB0BDE8304099
:10AC400002B07047602C0020034611F8012B03F876
:10AC5000012B002AF9D17047034613F8012B002A73
:10AC6000FBD1181A0138704749B1FF2A85BF8A23E2
:10AC700003600A704FF0FF3098BF0120704708460C
:10AC800070472DE9F0478E689E4282460C469146F9
:10AC900098463ED88A8912F4906F3AD0256809699F
:10ACA0006F1A6569022305EB450595FBF3F57B1CDF
:10ACB00043449D4238BF1D4653050FD5294600F039
:10ACC00089FB064698B13A462169FFF780FFA389C0
:10ACD00023F4906343F08003A38113E02A4600F03D
:10ACE000D7FB064670B92169504600F025FB0C23BE
:10ACF000CAF80030A38943F04003A3814FF0FF302E
:10AD0000BDE8F087266165613E44ED1B2660A560C5
:10AD10004646464528BF464632464946206800F02A
:10AD2000EFFAA3689B1BA36023681E4426600020E3
:10AD3000BDE8F0872DE9F04F9DB0804603938B89E5
:10AD40001C060D4616460DD50B695BB9402100F077
:10AD500041FB2860286118B90C23C8F80030CDE009
:10AD600040236B610023099320238DF82930DFF8FD
:10AD70009CB130238DF82A3037463C4614F8013B0D
:10AD80001BB9B7EB060910D003E0252BF9D02746F5
:10AD9000F3E74B46324629464046FFF772FF013043
:10ADA00000F0A780099B4B4409933B78002B00F0EF
:10ADB000A08000234FF0FF3204930793059206937F
